{
  "contractName": "DecentralizedVoting",
  "abi": [
    {
      "inputs": [],
      "stateMutability": "nonpayable",
      "type": "constructor"
    },
    {
      "anonymous": false,
      "inputs": [
        {
          "indexed": false,
          "internalType": "uint256",
          "name": "electionId",
          "type": "uint256"
        },
        {
          "indexed": false,
          "internalType": "string",
          "name": "name",
          "type": "string"
        }
      ],
      "name": "CandidateAdded",
      "type": "event"
    },
    {
      "anonymous": false,
      "inputs": [
        {
          "indexed": false,
          "internalType": "uint256",
          "name": "electionId",
          "type": "uint256"
        },
        {
          "indexed": false,
          "internalType": "string",
          "name": "name",
          "type": "string"
        }
      ],
      "name": "ElectionCreated",
      "type": "event"
    },
    {
      "anonymous": false,
      "inputs": [
        {
          "indexed": false,
          "internalType": "uint256",
          "name": "electionId",
          "type": "uint256"
        },
        {
          "indexed": false,
          "internalType": "uint256",
          "name": "candidateIndex",
          "type": "uint256"
        },
        {
          "indexed": false,
          "internalType": "address",
          "name": "voter",
          "type": "address"
        }
      ],
      "name": "Voted",
      "type": "event"
    },
    {
      "inputs": [],
      "name": "electionCount",
      "outputs": [
        {
          "internalType": "uint256",
          "name": "",
          "type": "uint256"
        }
      ],
      "stateMutability": "view",
      "type": "function"
    },
    {
      "inputs": [
        {
          "internalType": "uint256",
          "name": "",
          "type": "uint256"
        }
      ],
      "name": "elections",
      "outputs": [
        {
          "internalType": "string",
          "name": "name",
          "type": "string"
        },
        {
          "internalType": "bool",
          "name": "active",
          "type": "bool"
        }
      ],
      "stateMutability": "view",
      "type": "function"
    },
    {
      "inputs": [],
      "name": "owner",
      "outputs": [
        {
          "internalType": "address",
          "name": "",
          "type": "address"
        }
      ],
      "stateMutability": "view",
      "type": "function"
    },
    {
      "inputs": [
        {
          "internalType": "address",
          "name": "",
          "type": "address"
        }
      ],
      "name": "users",
      "outputs": [
        {
          "internalType": "string",
          "name": "userName",
          "type": "string"
        },
        {
          "internalType": "string",
          "name": "email",
          "type": "string"
        }
      ],
      "stateMutability": "view",
      "type": "function"
    },
    {
      "inputs": [
        {
          "internalType": "address",
          "name": "userAddress",
          "type": "address"
        },
        {
          "internalType": "string",
          "name": "userName",
          "type": "string"
        },
        {
          "internalType": "string",
          "name": "email",
          "type": "string"
        }
      ],
      "name": "addUser",
      "outputs": [],
      "stateMutability": "nonpayable",
      "type": "function"
    },
    {
      "inputs": [
        {
          "internalType": "address",
          "name": "userAddress",
          "type": "address"
        }
      ],
      "name": "isUser",
      "outputs": [
        {
          "internalType": "bool",
          "name": "",
          "type": "bool"
        }
      ],
      "stateMutability": "view",
      "type": "function"
    },
    {
      "inputs": [],
      "name": "getUserAddress",
      "outputs": [
        {
          "internalType": "address",
          "name": "",
          "type": "address"
        }
      ],
      "stateMutability": "view",
      "type": "function"
    },
    {
      "inputs": [
        {
          "internalType": "address",
          "name": "userAddress",
          "type": "address"
        }
      ],
      "name": "getUserName",
      "outputs": [
        {
          "internalType": "string",
          "name": "",
          "type": "string"
        }
      ],
      "stateMutability": "view",
      "type": "function"
    },
    {
      "inputs": [
        {
          "internalType": "address",
          "name": "userAddress",
          "type": "address"
        }
      ],
      "name": "getEmail",
      "outputs": [
        {
          "internalType": "string",
          "name": "",
          "type": "string"
        }
      ],
      "stateMutability": "view",
      "type": "function"
    },
    {
      "inputs": [],
      "name": "getOwnerAddress",
      "outputs": [
        {
          "internalType": "address",
          "name": "",
          "type": "address"
        }
      ],
      "stateMutability": "view",
      "type": "function"
    },
    {
      "inputs": [
        {
          "internalType": "string",
          "name": "_name",
          "type": "string"
        }
      ],
      "name": "createElection",
      "outputs": [],
      "stateMutability": "nonpayable",
      "type": "function"
    },
    {
      "inputs": [
        {
          "internalType": "uint256",
          "name": "_electionId",
          "type": "uint256"
        },
        {
          "internalType": "string",
          "name": "_candidateName",
          "type": "string"
        }
      ],
      "name": "addCandidate",
      "outputs": [],
      "stateMutability": "nonpayable",
      "type": "function"
    },
    {
      "inputs": [
        {
          "internalType": "uint256",
          "name": "_electionId",
          "type": "uint256"
        },
        {
          "internalType": "uint256",
          "name": "_candidateIndex",
          "type": "uint256"
        }
      ],
      "name": "vote",
      "outputs": [],
      "stateMutability": "nonpayable",
      "type": "function"
    },
    {
      "inputs": [
        {
          "internalType": "uint256",
          "name": "_electionId",
          "type": "uint256"
        }
      ],
      "name": "getElectionResults",
      "outputs": [
        {
          "internalType": "string",
          "name": "",
          "type": "string"
        },
        {
          "internalType": "uint256[]",
          "name": "",
          "type": "uint256[]"
        }
      ],
      "stateMutability": "view",
      "type": "function"
    },
    {
      "inputs": [
        {
          "internalType": "uint256",
          "name": "_electionId",
          "type": "uint256"
        }
      ],
      "name": "getCandidatesCount",
      "outputs": [
        {
          "internalType": "uint256",
          "name": "",
          "type": "uint256"
        }
      ],
      "stateMutability": "view",
      "type": "function"
    },
    {
      "inputs": [
        {
          "internalType": "uint256",
          "name": "_electionId",
          "type": "uint256"
        },
        {
          "internalType": "uint256",
          "name": "_candidateIndex",
          "type": "uint256"
        }
      ],
      "name": "getCandidateName",
      "outputs": [
        {
          "internalType": "string",
          "name": "",
          "type": "string"
        }
      ],
      "stateMutability": "view",
      "type": "function"
    },
    {
      "inputs": [
        {
          "internalType": "uint256",
          "name": "_electionId",
          "type": "uint256"
        }
      ],
      "name": "getCandidateNames",
      "outputs": [
        {
          "internalType": "string[]",
          "name": "",
          "type": "string[]"
        }
      ],
      "stateMutability": "view",
      "type": "function"
    },
    {
      "inputs": [
        {
          "internalType": "uint256",
          "name": "_electionId",
          "type": "uint256"
        }
      ],
      "name": "getElectionName",
      "outputs": [
        {
          "internalType": "string",
          "name": "",
          "type": "string"
        }
      ],
      "stateMutability": "view",
      "type": "function"
    },
    {
      "inputs": [
        {
          "internalType": "uint256",
          "name": "_electionId",
          "type": "uint256"
        }
      ],
      "name": "closeElection",
      "outputs": [],
      "stateMutability": "nonpayable",
      "type": "function"
    },
    {
      "inputs": [],
      "name": "getElectionNames",
      "outputs": [
        {
          "internalType": "string[]",
          "name": "",
          "type": "string[]"
        }
      ],
      "stateMutability": "view",
      "type": "function"
    }
  ],
  "bytecode": "0x608060405234801561000f575f80fd5b50335f806101000a81548173ffffffffffffffffffffffffffffffffffffffff021916908373ffffffffffffffffffffffffffffffffffffffff1602179055506125ed8061005c5f395ff3fe608060405234801561000f575f80fd5b506004361061012a575f3560e01c80638da5cb5b116100ab578063d7554a681161006f578063d7554a681461037a578063d84f55ee14610396578063e220cde5146103c6578063e8ededa6146103e4578063ebc3eee8146104155761012a565b80638da5cb5b146102c1578063997d2830146102df578063a87430ba146102fd578063b024419e1461032e578063b384abef1461035e5761012a565b80634209fff1116100f25780634209fff1146101d05780634fa7353c1461020057806352675be3146102305780635e6fef01146102605780637eb507d7146102915761012a565b806309e33d071461012e5780630c4f65bd1461014a57806315cf4a5f146101685780631750a3d0146101845780633ee95f00146101a0575b5f80fd5b61014860048036038101906101439190611711565b610433565b005b61015261056e565b60405161015f919061177b565b60405180910390f35b610182600480360381019061017d91906118d0565b610595565b005b61019e60048036038101906101999190611917565b6106bb565b005b6101ba60048036038101906101b59190611711565b6108a4565b6040516101c79190611980565b60405180910390f35b6101ea60048036038101906101e591906119c3565b610914565b6040516101f79190611a08565b60405180910390f35b61021a600480360381019061021591906119c3565b61096a565b6040516102279190611a9b565b60405180910390f35b61024a60048036038101906102459190611711565b6109f6565b6040516102579190611a9b565b60405180910390f35b61027a60048036038101906102759190611711565b610ae9565b604051610288929190611abb565b60405180910390f35b6102ab60048036038101906102a69190611711565b610b9b565b6040516102b89190611bec565b60405180910390f35b6102c9610d5a565b6040516102d6919061177b565b60405180910390f35b6102e7610d7d565b6040516102f49190611980565b60405180910390f35b610317600480360381019061031291906119c3565b610d83565b604051610325929190611c0c565b60405180910390f35b61034860048036038101906103439190611c41565b610eaf565b6040516103559190611a9b565b60405180910390f35b61037860048036038101906103739190611c41565b61101d565b005b610394600480360381019061038f9190611c7f565b61122e565b005b6103b060048036038101906103ab91906119c3565b61133f565b6040516103bd9190611a9b565b60405180910390f35b6103ce6113c9565b6040516103db9190611bec565b60405180910390f35b6103fe60048036038101906103f99190611711565b611509565b60405161040c929190611dbe565b60405180910390f35b61041d6116c6565b60405161042a919061177b565b60405180910390f35b5f8054906101000a900473ffffffffffffffffffffffffffffffffffffffff1673ffffffffffffffffffffffffffffffffffffffff163373ffffffffffffffffffffffffffffffffffffffff16146104c0576040517f08c379a00000000000000000000000000000000000000000000000000000000081526004016104b790611e63565b60405180910390fd5b5f811180156104d157506003548111155b801561050157506001151560025f8381526020019081526020015f206001015f9054906101000a900460ff161515145b610540576040517f08c379a000000000000000000000000000000000000000000000000000000000815260040161053790611ef1565b60405180910390fd5b5f60025f8381526020019081526020015f206001015f6101000a81548160ff02191690831515021790555050565b5f805f9054906101000a900473ffffffffffffffffffffffffffffffffffffffff16905090565b5f8054906101000a900473ffffffffffffffffffffffffffffffffffffffff1673ffffffffffffffffffffffffffffffffffffffff163373ffffffffffffffffffffffffffffffffffffffff1614610622576040517f08c379a000000000000000000000000000000000000000000000000000000000815260040161061990611e63565b60405180910390fd5b60035f81548092919061063490611f3c565b91905055505f60025f60035481526020019081526020015f20905081815f01908161065f919061217d565b506001816001015f6101000a81548160ff0219169083151502179055507f52be7c4e77b4de76b7607d621492061fe13b58597e72dfb5e51ab8f6187ed141600354836040516106af92919061224c565b60405180910390a15050565b5f8054906101000a900473ffffffffffffffffffffffffffffffffffffffff1673ffffffffffffffffffffffffffffffffffffffff163373ffffffffffffffffffffffffffffffffffffffff1614610748576040517f08c379a000000000000000000000000000000000000000000000000000000000815260040161073f90611e63565b60405180910390fd5b5f8211801561075957506003548211155b610798576040517f08c379a000000000000000000000000000000000000000000000000000000000815260040161078f906122c4565b60405180910390fd5b60025f8381526020019081526020015f206001015f9054906101000a900460ff166107f8576040517f08c379a00000000000000000000000000000000000000000000000000000000081526004016107ef9061232c565b60405180910390fd5b60025f8381526020019081526020015f2060020160405180604001604052808381526020015f815250908060018154018082558091505060019003905f5260205f2090600202015f909190919091505f820151815f01908161085a919061217d565b506020820151816001015550507fe83b2a43e7e82d975c8a0a6d2f045153c869e111136a34d1889ab7b598e396a3828260405161089892919061224c565b60405180910390a15050565b5f80821180156108b657506003548211155b6108f5576040517f08c379a00000000000000000000000000000000000000000000000000000000081526004016108ec906122c4565b60405180910390fd5b60025f8381526020019081526020015f20600201805490509050919050565b5f8060015f8473ffffffffffffffffffffffffffffffffffffffff1673ffffffffffffffffffffffffffffffffffffffff1681526020019081526020015f205f01805461096090611fb0565b9050119050919050565b60605f60015f8473ffffffffffffffffffffffffffffffffffffffff1673ffffffffffffffffffffffffffffffffffffffff1681526020019081526020015f2090505f8160010180546109bc90611fb0565b905011156109ef57806001016040516020016109d891906123d4565b6040516020818303038152906040529150506109f1565b505b919050565b60605f82118015610a0957506003548211155b610a48576040517f08c379a0000000000000000000000000000000000000000000000000000000008152600401610a3f906122c4565b60405180910390fd5b60025f8381526020019081526020015f205f018054610a6690611fb0565b80601f0160208091040260200160405190810160405280929190818152602001828054610a9290611fb0565b8015610add5780601f10610ab457610100808354040283529160200191610add565b820191905f5260205f20905b815481529060010190602001808311610ac057829003601f168201915b50505050509050919050565b6002602052805f5260405f205f91509050805f018054610b0890611fb0565b80601f0160208091040260200160405190810160405280929190818152602001828054610b3490611fb0565b8015610b7f5780601f10610b5657610100808354040283529160200191610b7f565b820191905f5260205f20905b815481529060010190602001808311610b6257829003601f168201915b505050505090806001015f9054906101000a900460ff16905082565b60605f82118015610bae57506003548211155b610bed576040517f08c379a0000000000000000000000000000000000000000000000000000000008152600401610be4906122c4565b60405180910390fd5b5f60025f8481526020019081526020015f206002018054905090505f8167ffffffffffffffff811115610c2357610c226117ac565b5b604051908082528060200260200182016040528015610c5657816020015b6060815260200190600190039081610c415790505b5090505f5b82811015610d4f5760025f8681526020019081526020015f206002018181548110610c8957610c886123ea565b5b905f5260205f2090600202015f018054610ca290611fb0565b80601f0160208091040260200160405190810160405280929190818152602001828054610cce90611fb0565b8015610d195780601f10610cf057610100808354040283529160200191610d19565b820191905f5260205f20905b815481529060010190602001808311610cfc57829003601f168201915b5050505050828281518110610d3157610d306123ea565b5b60200260200101819052508080610d4790611f3c565b915050610c5b565b508092505050919050565b5f8054906101000a900473ffffffffffffffffffffffffffffffffffffffff1681565b60035481565b6001602052805f5260405f205f91509050805f018054610da290611fb0565b80601f0160208091040260200160405190810160405280929190818152602001828054610dce90611fb0565b8015610e195780601f10610df057610100808354040283529160200191610e19565b820191905f5260205f20905b815481529060010190602001808311610dfc57829003601f168201915b505050505090806001018054610e2e90611fb0565b80601f0160208091040260200160405190810160405280929190818152602001828054610e5a90611fb0565b8015610ea55780601f10610e7c57610100808354040283529160200191610ea5565b820191905f5260205f20905b815481529060010190602001808311610e8857829003601f168201915b5050505050905082565b60605f83118015610ec257506003548311155b610f01576040517f08c379a0000000000000000000000000000000000000000000000000000000008152600401610ef8906122c4565b60405180910390fd5b60025f8481526020019081526020015f20600201805490508210610f5a576040517f08c379a0000000000000000000000000000000000000000000000000000000008152600401610f5190612461565b60405180910390fd5b60025f8481526020019081526020015f206002018281548110610f8057610f7f6123ea565b5b905f5260205f2090600202015f018054610f9990611fb0565b80601f0160208091040260200160405190810160405280929190818152602001828054610fc590611fb0565b80156110105780601f10610fe757610100808354040283529160200191611010565b820191905f5260205f20905b815481529060010190602001808311610ff357829003601f168201915b5050505050905092915050565b5f8211801561102e57506003548211155b61106d576040517f08c379a0000000000000000000000000000000000000000000000000000000008152600401611064906122c4565b60405180910390fd5b5f60025f8481526020019081526020015f209050806001015f9054906101000a900460ff166110d1576040517f08c379a00000000000000000000000000000000000000000000000000000000081526004016110c89061232c565b60405180910390fd5b806003015f3373ffffffffffffffffffffffffffffffffffffffff1673ffffffffffffffffffffffffffffffffffffffff1681526020019081526020015f205f9054906101000a900460ff161561115d576040517f08c379a0000000000000000000000000000000000000000000000000000000008152600401611154906124c9565b60405180910390fd5b806002018281548110611173576111726123ea565b5b905f5260205f2090600202016001015f81548092919061119290611f3c565b91905055506001816003015f3373ffffffffffffffffffffffffffffffffffffffff1673ffffffffffffffffffffffffffffffffffffffff1681526020019081526020015f205f6101000a81548160ff0219169083151502179055507fd91ecafccf238642dccd41161308b3eebe62a12bc5819daf5164780c221ec95b838333604051611221939291906124e7565b60405180910390a1505050565b5f60015f8573ffffffffffffffffffffffffffffffffffffffff1673ffffffffffffffffffffffffffffffffffffffff1681526020019081526020015f205f01805461127990611fb0565b9050146112bb576040517f08c379a00000000000000000000000000000000000000000000000000000000081526004016112b290612566565b60405180910390fd5b60405180604001604052808381526020018281525060015f8573ffffffffffffffffffffffffffffffffffffffff1673ffffffffffffffffffffffffffffffffffffffff1681526020019081526020015f205f820151815f019081611320919061217d565b506020820151816001019081611336919061217d565b50905050505050565b60605f60015f8473ffffffffffffffffffffffffffffffffffffffff1673ffffffffffffffffffffffffffffffffffffffff1681526020019081526020015f2090505f815f01805461139090611fb0565b905011156113c257805f016040516020016113ab91906123d4565b6040516020818303038152906040529150506113c4565b505b919050565b60605f60035467ffffffffffffffff8111156113e8576113e76117ac565b5b60405190808252806020026020018201604052801561141b57816020015b60608152602001906001900390816114065790505b5090505f5b6003548110156115015760025f60018361143a9190612584565b81526020019081526020015f205f01805461145490611fb0565b80601f016020809104026020016040519081016040528092919081815260200182805461148090611fb0565b80156114cb5780601f106114a2576101008083540402835291602001916114cb565b820191905f5260205f20905b8154815290600101906020018083116114ae57829003601f168201915b50505050508282815181106114e3576114e26123ea565b5b602002602001018190525080806114f990611f3c565b915050611420565b508091505090565b6060805f8311801561151d57506003548311155b61155c576040517f08c379a0000000000000000000000000000000000000000000000000000000008152600401611553906122c4565b60405180910390fd5b5f60025f8581526020019081526020015f2090505f816002018054905067ffffffffffffffff811115611592576115916117ac565b5b6040519080825280602002602001820160405280156115c05781602001602082028036833780820191505090505b5090505f5b826002018054905081101561162c578260020181815481106115ea576115e96123ea565b5b905f5260205f2090600202016001015482828151811061160d5761160c6123ea565b5b602002602001018181525050808061162490611f3c565b9150506115c5565b50815f018181805461163d90611fb0565b80601f016020809104026020016040519081016040528092919081815260200182805461166990611fb0565b80156116b45780601f1061168b576101008083540402835291602001916116b4565b820191905f5260205f20905b81548152906001019060200180831161169757829003601f168201915b50505050509150935093505050915091565b5f33905090565b5f604051905090565b5f80fd5b5f80fd5b5f819050919050565b6116f0816116de565b81146116fa575f80fd5b50565b5f8135905061170b816116e7565b92915050565b5f60208284031215611726576117256116d6565b5b5f611733848285016116fd565b91505092915050565b5f73ffffffffffffffffffffffffffffffffffffffff82169050919050565b5f6117658261173c565b9050919050565b6117758161175b565b82525050565b5f60208201905061178e5f83018461176c565b92915050565b5f80fd5b5f80fd5b5f601f19601f8301169050919050565b7f4e487b71000000000000000000000000000000000000000000000000000000005f52604160045260245ffd5b6117e28261179c565b810181811067ffffffffffffffff82111715611801576118006117ac565b5b80604052505050565b5f6118136116cd565b905061181f82826117d9565b919050565b5f67ffffffffffffffff82111561183e5761183d6117ac565b5b6118478261179c565b9050602081019050919050565b828183375f83830152505050565b5f61187461186f84611824565b61180a565b9050828152602081018484840111156118905761188f611798565b5b61189b848285611854565b509392505050565b5f82601f8301126118b7576118b6611794565b5b81356118c7848260208601611862565b91505092915050565b5f602082840312156118e5576118e46116d6565b5b5f82013567ffffffffffffffff811115611902576119016116da565b5b61190e848285016118a3565b91505092915050565b5f806040838503121561192d5761192c6116d6565b5b5f61193a858286016116fd565b925050602083013567ffffffffffffffff81111561195b5761195a6116da565b5b611967858286016118a3565b9150509250929050565b61197a816116de565b82525050565b5f6020820190506119935f830184611971565b92915050565b6119a28161175b565b81146119ac575f80fd5b50565b5f813590506119bd81611999565b92915050565b5f602082840312156119d8576119d76116d6565b5b5f6119e5848285016119af565b91505092915050565b5f8115159050919050565b611a02816119ee565b82525050565b5f602082019050611a1b5f8301846119f9565b92915050565b5f81519050919050565b5f82825260208201905092915050565b5f5b83811015611a58578082015181840152602081019050611a3d565b5f8484015250505050565b5f611a6d82611a21565b611a778185611a2b565b9350611a87818560208601611a3b565b611a908161179c565b840191505092915050565b5f6020820190508181035f830152611ab38184611a63565b905092915050565b5f6040820190508181035f830152611ad38185611a63565b9050611ae260208301846119f9565b9392505050565b5f81519050919050565b5f82825260208201905092915050565b5f819050602082019050919050565b5f82825260208201905092915050565b5f611b2c82611a21565b611b368185611b12565b9350611b46818560208601611a3b565b611b4f8161179c565b840191505092915050565b5f611b658383611b22565b905092915050565b5f602082019050919050565b5f611b8382611ae9565b611b8d8185611af3565b935083602082028501611b9f85611b03565b805f5b85811015611bda5784840389528151611bbb8582611b5a565b9450611bc683611b6d565b925060208a01995050600181019050611ba2565b50829750879550505050505092915050565b5f6020820190508181035f830152611c048184611b79565b905092915050565b5f6040820190508181035f830152611c248185611a63565b90508181036020830152611c388184611a63565b90509392505050565b5f8060408385031215611c5757611c566116d6565b5b5f611c64858286016116fd565b9250506020611c75858286016116fd565b9150509250929050565b5f805f60608486031215611c9657611c956116d6565b5b5f611ca3868287016119af565b935050602084013567ffffffffffffffff811115611cc457611cc36116da565b5b611cd0868287016118a3565b925050604084013567ffffffffffffffff811115611cf157611cf06116da565b5b611cfd868287016118a3565b9150509250925092565b5f81519050919050565b5f82825260208201905092915050565b5f819050602082019050919050565b611d39816116de565b82525050565b5f611d4a8383611d30565b60208301905092915050565b5f602082019050919050565b5f611d6c82611d07565b611d768185611d11565b9350611d8183611d21565b805f5b83811015611db1578151611d988882611d3f565b9750611da383611d56565b925050600181019050611d84565b5085935050505092915050565b5f6040820190508181035f830152611dd68185611a63565b90508181036020830152611dea8184611d62565b90509392505050565b7f4f6e6c7920746865206f776e65722063616e20706572666f726d2074686973205f8201527f616374696f6e0000000000000000000000000000000000000000000000000000602082015250565b5f611e4d602683611a2b565b9150611e5882611df3565b604082019050919050565b5f6020820190508181035f830152611e7a81611e41565b9050919050565b7f456c656374696f6e20646f6573206e6f74206578697374206f72206973206e6f5f8201527f7420616374697665000000000000000000000000000000000000000000000000602082015250565b5f611edb602883611a2b565b9150611ee682611e81565b604082019050919050565b5f6020820190508181035f830152611f0881611ecf565b9050919050565b7f4e487b71000000000000000000000000000000000000000000000000000000005f52601160045260245ffd5b5f611f46826116de565b91507fffffffffffffffffffffffffffffffffffffffffffffffffffffffffffffffff8203611f7857611f77611f0f565b5b600182019050919050565b7f4e487b71000000000000000000000000000000000000000000000000000000005f52602260045260245ffd5b5f6002820490506001821680611fc757607f821691505b602082108103611fda57611fd9611f83565b5b50919050565b5f819050815f5260205f209050919050565b5f6020601f8301049050919050565b5f82821b905092915050565b5f6008830261203c7fffffffffffffffffffffffffffffffffffffffffffffffffffffffffffffffff82612001565b6120468683612001565b95508019841693508086168417925050509392505050565b5f819050919050565b5f61208161207c612077846116de565b61205e565b6116de565b9050919050565b5f819050919050565b61209a83612067565b6120ae6120a682612088565b84845461200d565b825550505050565b5f90565b6120c26120b6565b6120cd818484612091565b505050565b5b818110156120f0576120e55f826120ba565b6001810190506120d3565b5050565b601f8211156121355761210681611fe0565b61210f84611ff2565b8101602085101561211e578190505b61213261212a85611ff2565b8301826120d2565b50505b505050565b5f82821c905092915050565b5f6121555f198460080261213a565b1980831691505092915050565b5f61216d8383612146565b9150826002028217905092915050565b61218682611a21565b67ffffffffffffffff81111561219f5761219e6117ac565b5b6121a98254611fb0565b6121b48282856120f4565b5f60209050601f8311600181146121e5575f84156121d3578287015190505b6121dd8582612162565b865550612244565b601f1984166121f386611fe0565b5f5b8281101561221a578489015182556001820191506020850194506020810190506121f5565b868310156122375784890151612233601f891682612146565b8355505b6001600288020188555050505b505050505050565b5f60408201905061225f5f830185611971565b81810360208301526122718184611a63565b90509392505050565b7f456c656374696f6e20646f6573206e6f742065786973740000000000000000005f82015250565b5f6122ae601783611a2b565b91506122b98261227a565b602082019050919050565b5f6020820190508181035f8301526122db816122a2565b9050919050565b7f456c656374696f6e206973206e6f7420616374697665000000000000000000005f82015250565b5f612316601683611a2b565b9150612321826122e2565b602082019050919050565b5f6020820190508181035f8301526123438161230a565b9050919050565b5f81905092915050565b5f815461236081611fb0565b61236a818661234a565b9450600182165f81146123845760018114612399576123cb565b60ff19831686528115158202860193506123cb565b6123a285611fe0565b5f5b838110156123c3578154818901526001820191506020810190506123a4565b838801955050505b50505092915050565b5f6123df8284612354565b915081905092915050565b7f4e487b71000000000000000000000000000000000000000000000000000000005f52603260045260245ffd5b7f43616e64696461746520646f6573206e6f7420657869737400000000000000005f82015250565b5f61244b601883611a2b565b915061245682612417565b602082019050919050565b5f6020820190508181035f8301526124788161243f565b9050919050565b7f596f75206861766520616c726561647920766f746564000000000000000000005f82015250565b5f6124b3601683611a2b565b91506124be8261247f565b602082019050919050565b5f6020820190508181035f8301526124e0816124a7565b9050919050565b5f6060820190506124fa5f830186611971565b6125076020830185611971565b612514604083018461176c565b949350505050565b7f5573657220616c726561647920657869737473000000000000000000000000005f82015250565b5f612550601383611a2b565b915061255b8261251c565b602082019050919050565b5f6020820190508181035f83015261257d81612544565b9050919050565b5f61258e826116de565b9150612599836116de565b92508282019050808211156125b1576125b0611f0f565b5b9291505056fea2646970667358221220fe1207f5e4c871f328687bd3489c1ec09c0eff0930e298dc196b5c62088e29d164736f6c63430008140033",
  "immutableReferences": {},
  "source": "// SPDX-License-Identifier: MIT\r\npragma solidity >=0.4.21 <=0.8.20;\r\npragma experimental ABIEncoderV2;\r\n\r\ncontract DecentralizedVoting {\r\n    address public owner; // Contract deployer\r\n\r\n    struct User {\r\n        string userName;\r\n        string email;\r\n    }\r\n\r\n    mapping(address => User) public users;\r\n\r\n    struct Candidate {\r\n        string name;\r\n        uint256 voteCount;\r\n    }\r\n\r\n    struct Election {\r\n        string name;\r\n        bool active;\r\n        Candidate[] candidates;\r\n        mapping(address => bool) hasVoted;\r\n    }\r\n\r\n    mapping(uint256 => Election) public elections;\r\n    uint256 public electionCount;\r\n\r\n    event ElectionCreated(uint256 electionId, string name);\r\n    event CandidateAdded(uint256 electionId, string name);\r\n    event Voted(uint256 electionId, uint256 candidateIndex, address voter);\r\n\r\n    modifier onlyOwner() {\r\n        require(msg.sender == owner, \"Only the owner can perform this action\");\r\n        _;\r\n    }\r\n\r\n    constructor() public{\r\n        owner = msg.sender; // Set the contract deployer as the owner\r\n    }\r\n\r\n\r\n    \r\n    function addUser(address userAddress, string memory userName, string memory email) public {\r\n        require(bytes(users[userAddress].userName).length == 0, \"User already exists\");\r\n        users[userAddress] = User(userName, email);\r\n    }\r\n\r\n    function isUser(address userAddress) public view returns (bool){\r\n        return bytes(users[userAddress].userName).length > 0;\r\n    }\r\n\r\n    function getUserAddress() public view returns (address) {\r\n        return msg.sender;\r\n    }\r\n\r\n    function getUserName(address userAddress) public view returns (string memory){\r\n        User storage user = users[userAddress];\r\n        if(bytes(user.userName).length > 0)\r\n            return string(abi.encodePacked(user.userName));\r\n    }\r\n\r\n    function getEmail(address userAddress) public view returns (string memory){\r\n        User storage user = users[userAddress];\r\n        if(bytes(user.email).length > 0)\r\n            return string(abi.encodePacked(user.email));\r\n    }\r\n\r\n\r\n\r\n    function getOwnerAddress() public view returns (address) {\r\n        return owner;\r\n    }\r\n\r\n    // Create a new election (only owner)\r\n    function createElection(string memory _name) public onlyOwner {\r\n        electionCount++;\r\n        Election storage newElection = elections[electionCount];\r\n        newElection.name = _name;\r\n        newElection.active = true;\r\n\r\n        emit ElectionCreated(electionCount, _name);\r\n    }\r\n\r\n    // Add a candidate to an election (only owner)\r\n    function addCandidate(uint256 _electionId, string memory _candidateName) public onlyOwner {\r\n        require(_electionId > 0 && _electionId <= electionCount, \"Election does not exist\");\r\n        require(elections[_electionId].active, \"Election is not active\");\r\n\r\n        elections[_electionId].candidates.push(Candidate({ name: _candidateName, voteCount: 0 }));\r\n        emit CandidateAdded(_electionId, _candidateName);\r\n    }\r\n\r\n    // Vote for a candidate in an election\r\n    function vote(uint256 _electionId, uint256 _candidateIndex) public {\r\n        require(_electionId > 0 && _electionId <= electionCount, \"Election does not exist\");\r\n        Election storage election = elections[_electionId];\r\n\r\n        require(election.active, \"Election is not active\");\r\n        require(!election.hasVoted[msg.sender], \"You have already voted\");\r\n\r\n        election.candidates[_candidateIndex].voteCount++;\r\n        election.hasVoted[msg.sender] = true;\r\n\r\n        emit Voted(_electionId, _candidateIndex, msg.sender);\r\n    }\r\n\r\n    // Get election results\r\n    function getElectionResults(uint256 _electionId) public view returns (string memory, uint256[] memory) {\r\n        require(_electionId > 0 && _electionId <= electionCount, \"Election does not exist\");\r\n        Election storage election = elections[_electionId];\r\n\r\n        uint256[] memory votes = new uint256[](election.candidates.length);\r\n        for (uint256 i = 0; i < election.candidates.length; i++) {\r\n            votes[i] = election.candidates[i].voteCount;\r\n        }\r\n\r\n        return (election.name, votes);\r\n    }\r\n\r\n    // Get the number of candidates in an election\r\n    function getCandidatesCount(uint256 _electionId) public view returns (uint256) {\r\n        require(_electionId > 0 && _electionId <= electionCount, \"Election does not exist\");\r\n        return elections[_electionId].candidates.length;\r\n    }\r\n\r\n\r\n    \r\n    // Get candidate name\r\n    function getCandidateName(uint256 _electionId, uint256 _candidateIndex) public view returns (string memory) {\r\n        require(_electionId > 0 && _electionId <= electionCount, \"Election does not exist\");\r\n        require(_candidateIndex < elections[_electionId].candidates.length, \"Candidate does not exist\");\r\n        return elections[_electionId].candidates[_candidateIndex].name;\r\n    }\r\n\r\n    function getCandidateNames(uint256 _electionId) public view returns (string[] memory) {\r\n        require(_electionId > 0 && _electionId <= electionCount, \"Election does not exist\");\r\n\r\n        uint256 candidateCount = elections[_electionId].candidates.length;\r\n        string[] memory candidateNames = new string[](candidateCount);\r\n\r\n        for (uint256 i = 0; i < candidateCount; i++) {\r\n            candidateNames[i] = elections[_electionId].candidates[i].name;\r\n        }\r\n\r\n        return candidateNames;\r\n    }\r\n    \r\n    // Get election name\r\n    function getElectionName(uint256 _electionId) public view returns (string memory) {\r\n        require(_electionId > 0 && _electionId <= electionCount, \"Election does not exist\");\r\n        return elections[_electionId].name;\r\n    }\r\n\r\n    // Close an election (only owner)\r\n    function closeElection(uint256 _electionId) public onlyOwner {\r\n        require(_electionId > 0 && _electionId <= electionCount && elections[_electionId].active == true, \"Election does not exist or is not active\");\r\n        elections[_electionId].active = false;\r\n    }\r\n\r\n    \r\n    // Get list of all election names\r\n    function getElectionNames() public view returns (string[] memory) {\r\n        string[] memory electionNames = new string[](electionCount);\r\n\r\n        for (uint256 i = 0; i < electionCount; i++) {\r\n            electionNames[i] = elections[i + 1].name;\r\n        }\r\n\r\n        return electionNames;\r\n    }\r\n\r\n\r\n\r\n}\r\n",
  "sourcePath": "C:\\Users\\dizon\\OneDrive\\Desktop\\Gordon College\\AppDev\\BlockVote\\contract\\contracts\\Voting.sol",
  "compiler": {
    "name": "solc",
    "version": "0.8.20+commit.a1b79de6.Emscripten.clang"
  },
  "schemaVersion": "3.4.16",
  "updatedAt": "2025-03-23T09:09:14.404Z",
  "devdoc": {
    "kind": "dev",
    "methods": {},
    "version": 1
  },
  "userdoc": {
    "kind": "user",
    "methods": {},
    "version": 1
  }
}