{
  "contractName": "DecentralizedVoting",
  "abi": [
    {
      "inputs": [],
      "payable": false,
      "stateMutability": "nonpayable",
      "type": "constructor"
    },
    {
      "anonymous": false,
      "inputs": [
        {
          "indexed": false,
          "internalType": "uint256",
          "name": "electionId",
          "type": "uint256"
        },
        {
          "indexed": false,
          "internalType": "string",
          "name": "name",
          "type": "string"
        }
      ],
      "name": "CandidateAdded",
      "type": "event"
    },
    {
      "anonymous": false,
      "inputs": [
        {
          "indexed": false,
          "internalType": "uint256",
          "name": "electionId",
          "type": "uint256"
        },
        {
          "indexed": false,
          "internalType": "string",
          "name": "name",
          "type": "string"
        }
      ],
      "name": "ElectionCreated",
      "type": "event"
    },
    {
      "anonymous": false,
      "inputs": [
        {
          "indexed": false,
          "internalType": "uint256",
          "name": "electionId",
          "type": "uint256"
        },
        {
          "indexed": false,
          "internalType": "uint256[]",
          "name": "candidateIndex",
          "type": "uint256[]"
        },
        {
          "indexed": false,
          "internalType": "address",
          "name": "voter",
          "type": "address"
        }
      ],
      "name": "Voted",
      "type": "event"
    },
    {
      "constant": true,
      "inputs": [],
      "name": "electionCount",
      "outputs": [
        {
          "internalType": "uint256",
          "name": "",
          "type": "uint256"
        }
      ],
      "payable": false,
      "stateMutability": "view",
      "type": "function"
    },
    {
      "constant": true,
      "inputs": [
        {
          "internalType": "uint256",
          "name": "",
          "type": "uint256"
        }
      ],
      "name": "elections",
      "outputs": [
        {
          "internalType": "string",
          "name": "name",
          "type": "string"
        },
        {
          "internalType": "bool",
          "name": "active",
          "type": "bool"
        },
        {
          "internalType": "string",
          "name": "startDate",
          "type": "string"
        },
        {
          "internalType": "string",
          "name": "endDate",
          "type": "string"
        },
        {
          "internalType": "string",
          "name": "domainFilter",
          "type": "string"
        }
      ],
      "payable": false,
      "stateMutability": "view",
      "type": "function"
    },
    {
      "constant": true,
      "inputs": [
        {
          "internalType": "address",
          "name": "",
          "type": "address"
        }
      ],
      "name": "org",
      "outputs": [
        {
          "internalType": "string",
          "name": "orgName",
          "type": "string"
        },
        {
          "internalType": "string",
          "name": "userName",
          "type": "string"
        },
        {
          "internalType": "string",
          "name": "email",
          "type": "string"
        }
      ],
      "payable": false,
      "stateMutability": "view",
      "type": "function"
    },
    {
      "constant": true,
      "inputs": [
        {
          "internalType": "address",
          "name": "",
          "type": "address"
        },
        {
          "internalType": "uint256",
          "name": "",
          "type": "uint256"
        }
      ],
      "name": "ownedElections",
      "outputs": [
        {
          "internalType": "uint256",
          "name": "electionId",
          "type": "uint256"
        },
        {
          "internalType": "string",
          "name": "electionName",
          "type": "string"
        }
      ],
      "payable": false,
      "stateMutability": "view",
      "type": "function"
    },
    {
      "constant": true,
      "inputs": [
        {
          "internalType": "address",
          "name": "",
          "type": "address"
        }
      ],
      "name": "users",
      "outputs": [
        {
          "internalType": "string",
          "name": "userName",
          "type": "string"
        },
        {
          "internalType": "string",
          "name": "email",
          "type": "string"
        }
      ],
      "payable": false,
      "stateMutability": "view",
      "type": "function"
    },
    {
      "constant": false,
      "inputs": [
        {
          "internalType": "string",
          "name": "_name",
          "type": "string"
        },
        {
          "internalType": "string",
          "name": "_startDate",
          "type": "string"
        },
        {
          "internalType": "string",
          "name": "_endDate",
          "type": "string"
        },
        {
          "internalType": "string",
          "name": "_domainFilter",
          "type": "string"
        }
      ],
      "name": "createElection",
      "outputs": [],
      "payable": false,
      "stateMutability": "nonpayable",
      "type": "function"
    },
    {
      "constant": false,
      "inputs": [
        {
          "internalType": "uint256",
          "name": "_electionId",
          "type": "uint256"
        },
        {
          "internalType": "string",
          "name": "_newName",
          "type": "string"
        },
        {
          "internalType": "string",
          "name": "_startDate",
          "type": "string"
        },
        {
          "internalType": "string",
          "name": "_endDate",
          "type": "string"
        },
        {
          "internalType": "string",
          "name": "_newDomainFilter",
          "type": "string"
        }
      ],
      "name": "updateElectionDetails",
      "outputs": [],
      "payable": false,
      "stateMutability": "nonpayable",
      "type": "function"
    },
    {
      "constant": true,
      "inputs": [
        {
          "internalType": "address",
          "name": "organizer",
          "type": "address"
        }
      ],
      "name": "getOwnedElections",
      "outputs": [
        {
          "components": [
            {
              "internalType": "uint256",
              "name": "electionId",
              "type": "uint256"
            },
            {
              "internalType": "string",
              "name": "electionName",
              "type": "string"
            }
          ],
          "internalType": "struct DecentralizedVoting.CreatedElections[]",
          "name": "",
          "type": "tuple[]"
        }
      ],
      "payable": false,
      "stateMutability": "view",
      "type": "function"
    },
    {
      "constant": true,
      "inputs": [
        {
          "internalType": "address",
          "name": "organizer",
          "type": "address"
        }
      ],
      "name": "getOwnedElectionIds",
      "outputs": [
        {
          "internalType": "uint256[]",
          "name": "",
          "type": "uint256[]"
        }
      ],
      "payable": false,
      "stateMutability": "view",
      "type": "function"
    },
    {
      "constant": true,
      "inputs": [
        {
          "internalType": "address",
          "name": "organizer",
          "type": "address"
        }
      ],
      "name": "getOwnedElectionNames",
      "outputs": [
        {
          "internalType": "string[]",
          "name": "",
          "type": "string[]"
        }
      ],
      "payable": false,
      "stateMutability": "view",
      "type": "function"
    },
    {
      "constant": true,
      "inputs": [
        {
          "internalType": "address",
          "name": "organizer",
          "type": "address"
        },
        {
          "internalType": "string",
          "name": "_name",
          "type": "string"
        }
      ],
      "name": "getElectionIdByName",
      "outputs": [
        {
          "internalType": "uint256",
          "name": "",
          "type": "uint256"
        }
      ],
      "payable": false,
      "stateMutability": "view",
      "type": "function"
    },
    {
      "constant": true,
      "inputs": [
        {
          "internalType": "uint256",
          "name": "_electionId",
          "type": "uint256"
        }
      ],
      "name": "getElectionResults",
      "outputs": [
        {
          "internalType": "string",
          "name": "",
          "type": "string"
        },
        {
          "internalType": "uint256[]",
          "name": "",
          "type": "uint256[]"
        }
      ],
      "payable": false,
      "stateMutability": "view",
      "type": "function"
    },
    {
      "constant": true,
      "inputs": [
        {
          "internalType": "uint256",
          "name": "_electionId",
          "type": "uint256"
        }
      ],
      "name": "getElectionName",
      "outputs": [
        {
          "internalType": "string",
          "name": "",
          "type": "string"
        }
      ],
      "payable": false,
      "stateMutability": "view",
      "type": "function"
    },
    {
      "constant": false,
      "inputs": [
        {
          "internalType": "uint256",
          "name": "_electionId",
          "type": "uint256"
        }
      ],
      "name": "closeElection",
      "outputs": [],
      "payable": false,
      "stateMutability": "nonpayable",
      "type": "function"
    },
    {
      "constant": true,
      "inputs": [],
      "name": "getElectionNames",
      "outputs": [
        {
          "internalType": "string[]",
          "name": "",
          "type": "string[]"
        }
      ],
      "payable": false,
      "stateMutability": "view",
      "type": "function"
    },
    {
      "constant": true,
      "inputs": [
        {
          "internalType": "uint256",
          "name": "_electionId",
          "type": "uint256"
        }
      ],
      "name": "getElectionStartDate",
      "outputs": [
        {
          "internalType": "string",
          "name": "",
          "type": "string"
        }
      ],
      "payable": false,
      "stateMutability": "view",
      "type": "function"
    },
    {
      "constant": true,
      "inputs": [
        {
          "internalType": "uint256",
          "name": "_electionId",
          "type": "uint256"
        }
      ],
      "name": "getElectionEndDate",
      "outputs": [
        {
          "internalType": "string",
          "name": "",
          "type": "string"
        }
      ],
      "payable": false,
      "stateMutability": "view",
      "type": "function"
    },
    {
      "constant": true,
      "inputs": [
        {
          "internalType": "uint256",
          "name": "_electionId",
          "type": "uint256"
        }
      ],
      "name": "getElectionDomainFilter",
      "outputs": [
        {
          "internalType": "string",
          "name": "",
          "type": "string"
        }
      ],
      "payable": false,
      "stateMutability": "view",
      "type": "function"
    },
    {
      "constant": true,
      "inputs": [
        {
          "internalType": "uint256",
          "name": "_electionId",
          "type": "uint256"
        }
      ],
      "name": "getElectionStatus",
      "outputs": [
        {
          "internalType": "bool",
          "name": "",
          "type": "bool"
        }
      ],
      "payable": false,
      "stateMutability": "view",
      "type": "function"
    },
    {
      "constant": false,
      "inputs": [
        {
          "internalType": "uint256",
          "name": "_electionId",
          "type": "uint256"
        },
        {
          "internalType": "string",
          "name": "_candidateName",
          "type": "string"
        },
        {
          "internalType": "string",
          "name": "_candidatePosition",
          "type": "string"
        },
        {
          "internalType": "string",
          "name": "_platform",
          "type": "string"
        },
        {
          "internalType": "string",
          "name": "_cdn",
          "type": "string"
        }
      ],
      "name": "addCandidate",
      "outputs": [],
      "payable": false,
      "stateMutability": "nonpayable",
      "type": "function"
    },
    {
      "constant": false,
      "inputs": [
        {
          "internalType": "uint256",
          "name": "_electionId",
          "type": "uint256"
        },
        {
          "internalType": "uint256",
          "name": "_candidateIndex",
          "type": "uint256"
        },
        {
          "internalType": "string",
          "name": "_newName",
          "type": "string"
        },
        {
          "internalType": "string",
          "name": "_newPosition",
          "type": "string"
        },
        {
          "internalType": "string",
          "name": "_newPlatform",
          "type": "string"
        },
        {
          "internalType": "string",
          "name": "_newcdn",
          "type": "string"
        }
      ],
      "name": "updateCandidateInfo",
      "outputs": [],
      "payable": false,
      "stateMutability": "nonpayable",
      "type": "function"
    },
    {
      "constant": false,
      "inputs": [
        {
          "internalType": "uint256",
          "name": "_electionId",
          "type": "uint256"
        },
        {
          "internalType": "uint256",
          "name": "_candidateIndex",
          "type": "uint256"
        }
      ],
      "name": "deleteCandidate",
      "outputs": [],
      "payable": false,
      "stateMutability": "nonpayable",
      "type": "function"
    },
    {
      "constant": true,
      "inputs": [
        {
          "internalType": "uint256",
          "name": "_electionId",
          "type": "uint256"
        }
      ],
      "name": "getCandidatesCount",
      "outputs": [
        {
          "internalType": "uint256",
          "name": "",
          "type": "uint256"
        }
      ],
      "payable": false,
      "stateMutability": "view",
      "type": "function"
    },
    {
      "constant": true,
      "inputs": [
        {
          "internalType": "uint256",
          "name": "_electionId",
          "type": "uint256"
        },
        {
          "internalType": "uint256",
          "name": "_candidateIndex",
          "type": "uint256"
        }
      ],
      "name": "getCandidateName",
      "outputs": [
        {
          "internalType": "string",
          "name": "",
          "type": "string"
        }
      ],
      "payable": false,
      "stateMutability": "view",
      "type": "function"
    },
    {
      "constant": true,
      "inputs": [
        {
          "internalType": "uint256",
          "name": "_electionId",
          "type": "uint256"
        },
        {
          "internalType": "uint256",
          "name": "_candidateIndex",
          "type": "uint256"
        }
      ],
      "name": "getCandidatePosition",
      "outputs": [
        {
          "internalType": "string",
          "name": "",
          "type": "string"
        }
      ],
      "payable": false,
      "stateMutability": "view",
      "type": "function"
    },
    {
      "constant": true,
      "inputs": [
        {
          "internalType": "uint256",
          "name": "_electionId",
          "type": "uint256"
        },
        {
          "internalType": "uint256",
          "name": "_candidateIndex",
          "type": "uint256"
        }
      ],
      "name": "getCandidatePlatform",
      "outputs": [
        {
          "internalType": "string",
          "name": "",
          "type": "string"
        }
      ],
      "payable": false,
      "stateMutability": "view",
      "type": "function"
    },
    {
      "constant": true,
      "inputs": [
        {
          "internalType": "uint256",
          "name": "_electionId",
          "type": "uint256"
        },
        {
          "internalType": "uint256",
          "name": "_candidateIndex",
          "type": "uint256"
        }
      ],
      "name": "getCandidateCdn",
      "outputs": [
        {
          "internalType": "string",
          "name": "",
          "type": "string"
        }
      ],
      "payable": false,
      "stateMutability": "view",
      "type": "function"
    },
    {
      "constant": true,
      "inputs": [
        {
          "internalType": "uint256",
          "name": "_electionId",
          "type": "uint256"
        }
      ],
      "name": "getCandidateNames",
      "outputs": [
        {
          "internalType": "string[]",
          "name": "",
          "type": "string[]"
        }
      ],
      "payable": false,
      "stateMutability": "view",
      "type": "function"
    },
    {
      "constant": true,
      "inputs": [
        {
          "internalType": "uint256",
          "name": "_electionId",
          "type": "uint256"
        },
        {
          "internalType": "string",
          "name": "_candidateName",
          "type": "string"
        }
      ],
      "name": "getCandidateIDbyName",
      "outputs": [
        {
          "internalType": "uint256",
          "name": "",
          "type": "uint256"
        }
      ],
      "payable": false,
      "stateMutability": "view",
      "type": "function"
    },
    {
      "constant": true,
      "inputs": [
        {
          "internalType": "uint256",
          "name": "_electionId",
          "type": "uint256"
        },
        {
          "internalType": "uint256",
          "name": "_candidateIndex",
          "type": "uint256"
        }
      ],
      "name": "getCandidateVoteCount",
      "outputs": [
        {
          "internalType": "uint256",
          "name": "",
          "type": "uint256"
        }
      ],
      "payable": false,
      "stateMutability": "view",
      "type": "function"
    },
    {
      "constant": false,
      "inputs": [
        {
          "internalType": "string",
          "name": "orgName",
          "type": "string"
        },
        {
          "internalType": "string",
          "name": "name",
          "type": "string"
        },
        {
          "internalType": "string",
          "name": "email",
          "type": "string"
        }
      ],
      "name": "addOrg",
      "outputs": [],
      "payable": false,
      "stateMutability": "nonpayable",
      "type": "function"
    },
    {
      "constant": true,
      "inputs": [
        {
          "internalType": "address",
          "name": "orgAddress",
          "type": "address"
        }
      ],
      "name": "isOrg",
      "outputs": [
        {
          "internalType": "bool",
          "name": "",
          "type": "bool"
        }
      ],
      "payable": false,
      "stateMutability": "view",
      "type": "function"
    },
    {
      "constant": true,
      "inputs": [
        {
          "internalType": "address",
          "name": "orgAddress",
          "type": "address"
        }
      ],
      "name": "getOrgName",
      "outputs": [
        {
          "internalType": "string",
          "name": "",
          "type": "string"
        }
      ],
      "payable": false,
      "stateMutability": "view",
      "type": "function"
    },
    {
      "constant": true,
      "inputs": [
        {
          "internalType": "address",
          "name": "orgAddress",
          "type": "address"
        }
      ],
      "name": "getOrgUserName",
      "outputs": [
        {
          "internalType": "string",
          "name": "",
          "type": "string"
        }
      ],
      "payable": false,
      "stateMutability": "view",
      "type": "function"
    },
    {
      "constant": true,
      "inputs": [
        {
          "internalType": "address",
          "name": "orgAddress",
          "type": "address"
        }
      ],
      "name": "getOrgEmail",
      "outputs": [
        {
          "internalType": "string",
          "name": "",
          "type": "string"
        }
      ],
      "payable": false,
      "stateMutability": "view",
      "type": "function"
    },
    {
      "constant": false,
      "inputs": [
        {
          "internalType": "address",
          "name": "orgAddress",
          "type": "address"
        },
        {
          "internalType": "string",
          "name": "newOrgName",
          "type": "string"
        },
        {
          "internalType": "string",
          "name": "newUserName",
          "type": "string"
        },
        {
          "internalType": "string",
          "name": "newEmail",
          "type": "string"
        }
      ],
      "name": "updateOrgDetails",
      "outputs": [],
      "payable": false,
      "stateMutability": "nonpayable",
      "type": "function"
    },
    {
      "constant": true,
      "inputs": [],
      "name": "getUserAddress",
      "outputs": [
        {
          "internalType": "address",
          "name": "",
          "type": "address"
        }
      ],
      "payable": false,
      "stateMutability": "view",
      "type": "function"
    },
    {
      "constant": false,
      "inputs": [
        {
          "internalType": "address",
          "name": "userAddress",
          "type": "address"
        },
        {
          "internalType": "string",
          "name": "userName",
          "type": "string"
        },
        {
          "internalType": "string",
          "name": "email",
          "type": "string"
        }
      ],
      "name": "addUser",
      "outputs": [],
      "payable": false,
      "stateMutability": "nonpayable",
      "type": "function"
    },
    {
      "constant": true,
      "inputs": [
        {
          "internalType": "address",
          "name": "userAddress",
          "type": "address"
        }
      ],
      "name": "isUser",
      "outputs": [
        {
          "internalType": "bool",
          "name": "",
          "type": "bool"
        }
      ],
      "payable": false,
      "stateMutability": "view",
      "type": "function"
    },
    {
      "constant": true,
      "inputs": [
        {
          "internalType": "address",
          "name": "userAddress",
          "type": "address"
        }
      ],
      "name": "getUserName",
      "outputs": [
        {
          "internalType": "string",
          "name": "",
          "type": "string"
        }
      ],
      "payable": false,
      "stateMutability": "view",
      "type": "function"
    },
    {
      "constant": true,
      "inputs": [
        {
          "internalType": "address",
          "name": "userAddress",
          "type": "address"
        }
      ],
      "name": "getEmail",
      "outputs": [
        {
          "internalType": "string",
          "name": "",
          "type": "string"
        }
      ],
      "payable": false,
      "stateMutability": "view",
      "type": "function"
    },
    {
      "constant": false,
      "inputs": [
        {
          "internalType": "address",
          "name": "userAddress",
          "type": "address"
        },
        {
          "internalType": "string",
          "name": "newUserName",
          "type": "string"
        },
        {
          "internalType": "string",
          "name": "newEmail",
          "type": "string"
        }
      ],
      "name": "updateUser",
      "outputs": [],
      "payable": false,
      "stateMutability": "nonpayable",
      "type": "function"
    },
    {
      "constant": true,
      "inputs": [],
      "name": "getOwnerAddress",
      "outputs": [
        {
          "internalType": "address",
          "name": "",
          "type": "address"
        }
      ],
      "payable": false,
      "stateMutability": "view",
      "type": "function"
    },
    {
      "constant": false,
      "inputs": [
        {
          "internalType": "uint256",
          "name": "_electionId",
          "type": "uint256"
        },
        {
          "internalType": "uint256[]",
          "name": "_candidateIndexes",
          "type": "uint256[]"
        }
      ],
      "name": "Vote",
      "outputs": [],
      "payable": false,
      "stateMutability": "nonpayable",
      "type": "function"
    }
  ],
  "bytecode": "0x608060405234801561001057600080fd5b5033600260006101000a81548173ffffffffffffffffffffffffffffffffffffffff021916908373ffffffffffffffffffffffffffffffffffffffff1602179055506158c080620000626000396000f3fe608060405234801561001057600080fd5b50600436106102735760003560e01c80638ac7775b11610151578063cea6a72c116100c3578063e8ededa611610087578063e8ededa6146108b6578063ebc3eee8146108e7578063ee96e3be14610905578063f4dee31a14610935578063fa3dd69c14610951578063fad178fe1461098157610273565b8063cea6a72c14610814578063cf4a606014610830578063d7554a681461084c578063d84f55ee14610868578063e220cde51461089857610273565b8063ac6b4f7511610115578063ac6b4f7514610706578063b024419e14610736578063b476cbce14610766578063bbc0c1a214610798578063bec9e911146107b4578063c89782a2146107e457610273565b80638ac7775b1461063b5780638ed9df771461065757806393a9aa8114610687578063997d2830146106b7578063a87430ba146106d557610273565b80633ee95f00116101ea5780635e6fef01116101ae5780635e6fef011461052b5780636c24296e1461055f5780636c6281271461057b5780637a372c02146105ab5780637eb507d7146105db578063840e73f81461060b57610273565b80633ee95f001461043b5780634209fff11461046b5780634fa7353c1461049b57806352675be3146104cb5780635bef3e40146104fb57610273565b806319f4dea81161023c57806319f4dea81461031a5780631d8af5091461034a5780631e5862b51461037b57806324785b9e146103ab5780632ed37409146103db578063396aabeb1461040b57610273565b8062a3ea7c1461027857806309e33d07146102a85780630c4f65bd146102c457806310e8b22d146102e2578063119aeab7146102fe575b600080fd5b610292600480360361028d91908101906148d9565b61099d565b60405161029f9190615521565b60405180910390f35b6102c260048036036102bd919081019061485c565b610a93565b005b6102cc610c39565b6040516102d991906151fa565b60405180910390f35b6102fc60048036036102f7919081019061459c565b610c63565b005b6103186004803603610313919081019061492d565b610d3c565b005b610334600480360361032f919081019061451f565b61100a565b604051610341919061527b565b60405180910390f35b610364600480360361035f91908101906146c6565b61106b565b60405161037292919061557a565b60405180910390f35b6103956004803603610390919081019061451f565b611141565b6040516103a29190615237565b60405180910390f35b6103c560048036036103c0919081019061485c565b61128b565b6040516103d2919061527b565b60405180910390f35b6103f560048036036103f0919081019061451f565b611308565b6040516104029190615296565b60405180910390f35b61042560048036036104209190810190614a04565b6113eb565b6040516104329190615521565b60405180910390f35b6104556004803603610450919081019061485c565b6114d3565b6040516104629190615521565b60405180910390f35b6104856004803603610480919081019061451f565b611546565b604051610492919061527b565b60405180910390f35b6104b560048036036104b0919081019061451f565b6115a8565b6040516104c29190615296565b60405180910390f35b6104e560048036036104e0919081019061485c565b611640565b6040516104f29190615296565b60405180910390f35b6105156004803603610510919081019061451f565b611749565b6040516105229190615215565b60405180910390f35b6105456004803603610540919081019061485c565b6118fc565b6040516105569594939291906152ef565b60405180910390f35b61057960048036036105749190810190614799565b611b9f565b005b6105956004803603610590919081019061451f565b611d8a565b6040516105a29190615296565b60405180910390f35b6105c560048036036105c09190810190614a04565b611e6d565b6040516105d29190615296565b60405180910390f35b6105f560048036036105f0919081019061485c565b611fee565b6040516106029190615215565b60405180910390f35b6106256004803603610620919081019061485c565b6121a0565b6040516106329190615296565b60405180910390f35b6106556004803603610650919081019061461b565b6122a9565b005b610671600480360361066c919081019061485c565b6123f9565b60405161067e9190615296565b60405180910390f35b6106a1600480360361069c9190810190614a04565b612502565b6040516106ae9190615296565b60405180910390f35b6106bf612683565b6040516106cc9190615521565b60405180910390f35b6106ef60048036036106ea919081019061451f565b612689565b6040516106fd92919061535e565b60405180910390f35b610720600480360361071b9190810190614a04565b6127dd565b60405161072d9190615296565b60405180910390f35b610750600480360361074b9190810190614a04565b61295e565b60405161075d9190615296565b60405180910390f35b610780600480360361077b919081019061451f565b612adf565b60405161078f93929190615395565b60405180910390f35b6107b260048036036107ad9190810190614702565b612cd1565b005b6107ce60048036036107c99190810190614548565b612d89565b6040516107db9190615521565b60405180910390f35b6107fe60048036036107f9919081019061451f565b612e95565b60405161080b9190615296565b60405180910390f35b61082e6004803603610829919081019061492d565b612f78565b005b61084a60048036036108459190810190614a04565b613235565b005b6108666004803603610861919081019061459c565b61359b565b005b610882600480360361087d919081019061451f565b6136ca565b60405161088f9190615296565b60405180910390f35b6108a0613762565b6040516108ad9190615215565b60405180910390f35b6108d060048036036108cb919081019061485c565b61388c565b6040516108de9291906152b8565b60405180910390f35b6108ef613a3a565b6040516108fc91906151fa565b60405180910390f35b61091f600480360361091a919081019061451f565b613a42565b60405161092c9190615259565b60405180910390f35b61094f600480360361094a9190810190614a40565b613b59565b005b61096b6004803603610966919081019061485c565b613e31565b6040516109789190615296565b60405180910390f35b61099b60048036036109969190810190614885565b613f3a565b005b600080831180156109b057506005548311155b6109ef576040517f08c379a00000000000000000000000000000000000000000000000000000000081526004016109e690615401565b60405180910390fd5b60006004600085815260200190815260200160002060020180549050905060008090505b81811015610a87578380519060200120600460008781526020019081526020016000206002018281548110610a4457fe5b9060005260206000209060050201600001604051610a6291906151cc565b60405180910390201415610a7a578092505050610a8d565b8080600101915050610a13565b50809150505b92915050565b60008060003373ffffffffffffffffffffffffffffffffffffffff1673ffffffffffffffffffffffffffffffffffffffff1681526020019081526020016000206000018054600181600116156101000203166002900490501180610b445750600260009054906101000a900473ffffffffffffffffffffffffffffffffffffffff1673ffffffffffffffffffffffffffffffffffffffff163373ffffffffffffffffffffffffffffffffffffffff16145b610b83576040517f08c379a0000000000000000000000000000000000000000000000000000000008152600401610b7a90615501565b60405180910390fd5b600081118015610b9557506005548111155b8015610bc85750600115156004600083815260200190815260200160002060010160009054906101000a900460ff161515145b610c07576040517f08c379a0000000000000000000000000000000000000000000000000000000008152600401610bfe90615441565b60405180910390fd5b60006004600083815260200190815260200160002060010160006101000a81548160ff02191690831515021790555050565b6000600260009054906101000a900473ffffffffffffffffffffffffffffffffffffffff16905090565b610c6c83611546565b610cab576040517f08c379a0000000000000000000000000000000000000000000000000000000008152600401610ca2906154a1565b60405180910390fd5b6000600360008573ffffffffffffffffffffffffffffffffffffffff1673ffffffffffffffffffffffffffffffffffffffff1681526020019081526020016000209050600083511115610d125782816000019080519060200190610d1092919061422a565b505b600082511115610d365781816001019080519060200190610d3492919061422a565b505b50505050565b60008060003373ffffffffffffffffffffffffffffffffffffffff1673ffffffffffffffffffffffffffffffffffffffff1681526020019081526020016000206000018054600181600116156101000203166002900490501180610ded5750600260009054906101000a900473ffffffffffffffffffffffffffffffffffffffff1673ffffffffffffffffffffffffffffffffffffffff163373ffffffffffffffffffffffffffffffffffffffff16145b610e2c576040517f08c379a0000000000000000000000000000000000000000000000000000000008152600401610e2390615501565b60405180910390fd5b600085118015610e3e57506005548511155b610e7d576040517f08c379a0000000000000000000000000000000000000000000000000000000008152600401610e7490615401565b60405180910390fd5b6004600086815260200190815260200160002060010160009054906101000a900460ff16610ee0576040517f08c379a0000000000000000000000000000000000000000000000000000000008152600401610ed7906154c1565b60405180910390fd5b600460008681526020019081526020016000206002016040518060a001604052808681526020018581526020018481526020018381526020016000815250908060018154018082558091505090600182039060005260206000209060050201600090919290919091506000820151816000019080519060200190610f659291906142aa565b506020820151816001019080519060200190610f829291906142aa565b506040820151816002019080519060200190610f9f9291906142aa565b506060820151816003019080519060200190610fbc9291906142aa565b50608082015181600401555050507fe83b2a43e7e82d975c8a0a6d2f045153c869e111136a34d1889ab7b598e396a38585604051610ffb9291906155aa565b60405180910390a15050505050565b6000806000808473ffffffffffffffffffffffffffffffffffffffff1673ffffffffffffffffffffffffffffffffffffffff168152602001908152602001600020600001805460018160011615610100020316600290049050119050919050565b6001602052816000526040600020818154811061108457fe5b906000526020600020906002020160009150915050806000015490806001018054600181600116156101000203166002900480601f0160208091040260200160405190810160405280929190818152602001828054600181600116156101000203166002900480156111375780601f1061110c57610100808354040283529160200191611137565b820191906000526020600020905b81548152906001019060200180831161111a57829003601f168201915b5050505050905082565b6060600160008373ffffffffffffffffffffffffffffffffffffffff1673ffffffffffffffffffffffffffffffffffffffff168152602001908152602001600020805480602002602001604051908101604052809291908181526020016000905b82821015611280578382906000526020600020906002020160405180604001604052908160008201548152602001600182018054600181600116156101000203166002900480601f0160208091040260200160405190810160405280929190818152602001828054600181600116156101000203166002900480156112685780601f1061123d57610100808354040283529160200191611268565b820191906000526020600020905b81548152906001019060200180831161124b57829003601f168201915b505050505081525050815260200190600101906111a2565b505050509050919050565b6000808211801561129e57506005548211155b6112dd576040517f08c379a00000000000000000000000000000000000000000000000000000000081526004016112d490615401565b60405180910390fd5b6004600083815260200190815260200160002060010160009054906101000a900460ff169050919050565b60606000808373ffffffffffffffffffffffffffffffffffffffff1673ffffffffffffffffffffffffffffffffffffffff1681526020019081526020016000206001018054600181600116156101000203166002900480601f0160208091040260200160405190810160405280929190818152602001828054600181600116156101000203166002900480156113df5780601f106113b4576101008083540402835291602001916113df565b820191906000526020600020905b8154815290600101906020018083116113c257829003601f168201915b50505050509050919050565b600080831180156113fe57506005548311155b61143d576040517f08c379a000000000000000000000000000000000000000000000000000000000815260040161143490615401565b60405180910390fd5b60046000848152602001908152602001600020600201805490508210611498576040517f08c379a000000000000000000000000000000000000000000000000000000000815260040161148f90615461565b60405180910390fd5b6004600084815260200190815260200160002060020182815481106114b957fe5b906000526020600020906005020160040154905092915050565b600080821180156114e657506005548211155b611525576040517f08c379a000000000000000000000000000000000000000000000000000000000815260040161151c90615401565b60405180910390fd5b60046000838152602001908152602001600020600201805490509050919050565b600080600360008473ffffffffffffffffffffffffffffffffffffffff1673ffffffffffffffffffffffffffffffffffffffff168152602001908152602001600020600001805460018160011615610100020316600290049050119050919050565b60606000600360008473ffffffffffffffffffffffffffffffffffffffff1673ffffffffffffffffffffffffffffffffffffffff16815260200190815260200160002090506000816001018054600181600116156101000203166002900490501115611639578060010160405160200161162291906151e3565b60405160208183030381529060405291505061163b565b505b919050565b606060008211801561165457506005548211155b611693576040517f08c379a000000000000000000000000000000000000000000000000000000000815260040161168a90615401565b60405180910390fd5b600460008381526020019081526020016000206000018054600181600116156101000203166002900480601f01602080910402602001604051908101604052809291908181526020018280546001816001161561010002031660029004801561173d5780601f106117125761010080835404028352916020019161173d565b820191906000526020600020905b81548152906001019060200180831161172057829003601f168201915b50505050509050919050565b60606000600160008473ffffffffffffffffffffffffffffffffffffffff1673ffffffffffffffffffffffffffffffffffffffff1681526020019081526020016000208054905090506060816040519080825280602002602001820160405280156117c857816020015b60608152602001906001900390816117b35790505b50905060008090505b828110156118f157600160008673ffffffffffffffffffffffffffffffffffffffff1673ffffffffffffffffffffffffffffffffffffffff168152602001908152602001600020818154811061182357fe5b90600052602060002090600202016001018054600181600116156101000203166002900480601f0160208091040260200160405190810160405280929190818152602001828054600181600116156101000203166002900480156118c85780601f1061189d576101008083540402835291602001916118c8565b820191906000526020600020905b8154815290600101906020018083116118ab57829003601f168201915b50505050508282815181106118d957fe5b602002602001018190525080806001019150506117d1565b508092505050919050565b6004602052806000526040600020600091509050806000018054600181600116156101000203166002900480601f0160208091040260200160405190810160405280929190818152602001828054600181600116156101000203166002900480156119a85780601f1061197d576101008083540402835291602001916119a8565b820191906000526020600020905b81548152906001019060200180831161198b57829003601f168201915b5050505050908060010160009054906101000a900460ff1690806003018054600181600116156101000203166002900480601f016020809104026020016040519081016040528092919081815260200182805460018160011615610100020316600290048015611a595780601f10611a2e57610100808354040283529160200191611a59565b820191906000526020600020905b815481529060010190602001808311611a3c57829003601f168201915b505050505090806004018054600181600116156101000203166002900480601f016020809104026020016040519081016040528092919081815260200182805460018160011615610100020316600290048015611af75780601f10611acc57610100808354040283529160200191611af7565b820191906000526020600020905b815481529060010190602001808311611ada57829003601f168201915b505050505090806005018054600181600116156101000203166002900480601f016020809104026020016040519081016040528092919081815260200182805460018160011615610100020316600290048015611b955780601f10611b6a57610100808354040283529160200191611b95565b820191906000526020600020905b815481529060010190602001808311611b7857829003601f168201915b5050505050905085565b60008060003373ffffffffffffffffffffffffffffffffffffffff1673ffffffffffffffffffffffffffffffffffffffff1681526020019081526020016000206000018054600181600116156101000203166002900490501180611c505750600260009054906101000a900473ffffffffffffffffffffffffffffffffffffffff1673ffffffffffffffffffffffffffffffffffffffff163373ffffffffffffffffffffffffffffffffffffffff16145b611c8f576040517f08c379a0000000000000000000000000000000000000000000000000000000008152600401611c8690615501565b60405180910390fd5b6005600081548092919060010191905055506000600460006005548152602001908152602001600020905084816000019080519060200190611cd292919061422a565b5060018160010160006101000a81548160ff02191690831515021790555083816003019080519060200190611d0892919061422a565b5082816004019080519060200190611d2192919061422a565b5081816005019080519060200190611d3a92919061422a565b50611d48336005548761417c565b7f52be7c4e77b4de76b7607d621492061fe13b58597e72dfb5e51ab8f6187ed14160055486604051611d7b9291906155aa565b60405180910390a15050505050565b60606000808373ffffffffffffffffffffffffffffffffffffffff1673ffffffffffffffffffffffffffffffffffffffff1681526020019081526020016000206002018054600181600116156101000203166002900480601f016020809104026020016040519081016040528092919081815260200182805460018160011615610100020316600290048015611e615780601f10611e3657610100808354040283529160200191611e61565b820191906000526020600020905b815481529060010190602001808311611e4457829003601f168201915b50505050509050919050565b6060600083118015611e8157506005548311155b611ec0576040517f08c379a0000000000000000000000000000000000000000000000000000000008152600401611eb790615401565b60405180910390fd5b60046000848152602001908152602001600020600201805490508210611f1b576040517f08c379a0000000000000000000000000000000000000000000000000000000008152600401611f1290615461565b60405180910390fd5b600460008481526020019081526020016000206002018281548110611f3c57fe5b90600052602060002090600502016001018054600181600116156101000203166002900480601f016020809104026020016040519081016040528092919081815260200182805460018160011615610100020316600290048015611fe15780601f10611fb657610100808354040283529160200191611fe1565b820191906000526020600020905b815481529060010190602001808311611fc457829003601f168201915b5050505050905092915050565b606060008211801561200257506005548211155b612041576040517f08c379a000000000000000000000000000000000000000000000000000000000815260040161203890615401565b60405180910390fd5b60006004600084815260200190815260200160002060020180549050905060608160405190808252806020026020018201604052801561209557816020015b60608152602001906001900390816120805790505b50905060008090505b82811015612195576004600086815260200190815260200160002060020181815481106120c757fe5b90600052602060002090600502016000018054600181600116156101000203166002900480601f01602080910402602001604051908101604052809291908181526020018280546001816001161561010002031660029004801561216c5780601f106121415761010080835404028352916020019161216c565b820191906000526020600020905b81548152906001019060200180831161214f57829003601f168201915b505050505082828151811061217d57fe5b6020026020010181905250808060010191505061209e565b508092505050919050565b60606000821180156121b457506005548211155b6121f3576040517f08c379a00000000000000000000000000000000000000000000000000000000081526004016121ea90615401565b60405180910390fd5b600460008381526020019081526020016000206005018054600181600116156101000203166002900480601f01602080910402602001604051908101604052809291908181526020018280546001816001161561010002031660029004801561229d5780601f106122725761010080835404028352916020019161229d565b820191906000526020600020905b81548152906001019060200180831161228057829003601f168201915b50505050509050919050565b6122b28461100a565b6122f1576040517f08c379a00000000000000000000000000000000000000000000000000000000081526004016122e8906153e1565b60405180910390fd5b826000808673ffffffffffffffffffffffffffffffffffffffff1673ffffffffffffffffffffffffffffffffffffffff168152602001908152602001600020600001908051906020019061234692919061422a565b50816000808673ffffffffffffffffffffffffffffffffffffffff1673ffffffffffffffffffffffffffffffffffffffff168152602001908152602001600020600101908051906020019061239c92919061422a565b50806000808673ffffffffffffffffffffffffffffffffffffffff1673ffffffffffffffffffffffffffffffffffffffff16815260200190815260200160002060020190805190602001906123f292919061422a565b5050505050565b606060008211801561240d57506005548211155b61244c576040517f08c379a000000000000000000000000000000000000000000000000000000000815260040161244390615401565b60405180910390fd5b600460008381526020019081526020016000206003018054600181600116156101000203166002900480601f0160208091040260200160405190810160405280929190818152602001828054600181600116156101000203166002900480156124f65780601f106124cb576101008083540402835291602001916124f6565b820191906000526020600020905b8154815290600101906020018083116124d957829003601f168201915b50505050509050919050565b606060008311801561251657506005548311155b612555576040517f08c379a000000000000000000000000000000000000000000000000000000000815260040161254c90615401565b60405180910390fd5b600460008481526020019081526020016000206002018054905082106125b0576040517f08c379a00000000000000000000000000000000000000000000000000000000081526004016125a790615461565b60405180910390fd5b6004600084815260200190815260200160002060020182815481106125d157fe5b90600052602060002090600502016002018054600181600116156101000203166002900480601f0160208091040260200160405190810160405280929190818152602001828054600181600116156101000203166002900480156126765780601f1061264b57610100808354040283529160200191612676565b820191906000526020600020905b81548152906001019060200180831161265957829003601f168201915b5050505050905092915050565b60055481565b6003602052806000526040600020600091509050806000018054600181600116156101000203166002900480601f0160208091040260200160405190810160405280929190818152602001828054600181600116156101000203166002900480156127355780601f1061270a57610100808354040283529160200191612735565b820191906000526020600020905b81548152906001019060200180831161271857829003601f168201915b505050505090806001018054600181600116156101000203166002900480601f0160208091040260200160405190810160405280929190818152602001828054600181600116156101000203166002900480156127d35780601f106127a8576101008083540402835291602001916127d3565b820191906000526020600020905b8154815290600101906020018083116127b657829003601f168201915b5050505050905082565b60606000831180156127f157506005548311155b612830576040517f08c379a000000000000000000000000000000000000000000000000000000000815260040161282790615401565b60405180910390fd5b6004600084815260200190815260200160002060020180549050821061288b576040517f08c379a000000000000000000000000000000000000000000000000000000000815260040161288290615461565b60405180910390fd5b6004600084815260200190815260200160002060020182815481106128ac57fe5b90600052602060002090600502016003018054600181600116156101000203166002900480601f0160208091040260200160405190810160405280929190818152602001828054600181600116156101000203166002900480156129515780601f1061292657610100808354040283529160200191612951565b820191906000526020600020905b81548152906001019060200180831161293457829003601f168201915b5050505050905092915050565b606060008311801561297257506005548311155b6129b1576040517f08c379a00000000000000000000000000000000000000000000000000000000081526004016129a890615401565b60405180910390fd5b60046000848152602001908152602001600020600201805490508210612a0c576040517f08c379a0000000000000000000000000000000000000000000000000000000008152600401612a0390615461565b60405180910390fd5b600460008481526020019081526020016000206002018281548110612a2d57fe5b90600052602060002090600502016000018054600181600116156101000203166002900480601f016020809104026020016040519081016040528092919081815260200182805460018160011615610100020316600290048015612ad25780601f10612aa757610100808354040283529160200191612ad2565b820191906000526020600020905b815481529060010190602001808311612ab557829003601f168201915b5050505050905092915050565b6000602052806000526040600020600091509050806000018054600181600116156101000203166002900480601f016020809104026020016040519081016040528092919081815260200182805460018160011615610100020316600290048015612b8b5780601f10612b6057610100808354040283529160200191612b8b565b820191906000526020600020905b815481529060010190602001808311612b6e57829003601f168201915b505050505090806001018054600181600116156101000203166002900480601f016020809104026020016040519081016040528092919081815260200182805460018160011615610100020316600290048015612c295780601f10612bfe57610100808354040283529160200191612c29565b820191906000526020600020905b815481529060010190602001808311612c0c57829003601f168201915b505050505090806002018054600181600116156101000203166002900480601f016020809104026020016040519081016040528092919081815260200182805460018160011615610100020316600290048015612cc75780601f10612c9c57610100808354040283529160200191612cc7565b820191906000526020600020905b815481529060010190602001808311612caa57829003601f168201915b5050505050905083565b6040518060600160405280848152602001838152602001828152506000803373ffffffffffffffffffffffffffffffffffffffff1673ffffffffffffffffffffffffffffffffffffffff1681526020019081526020016000206000820151816000019080519060200190612d469291906142aa565b506020820151816001019080519060200190612d639291906142aa565b506040820151816002019080519060200190612d809291906142aa565b50905050505050565b600080600160008573ffffffffffffffffffffffffffffffffffffffff1673ffffffffffffffffffffffffffffffffffffffff168152602001908152602001600020905060008090505b8180549050811015612e53578380519060200120828281548110612df357fe5b9060005260206000209060020201600101604051612e1191906151cc565b60405180910390201415612e4657818181548110612e2b57fe5b90600052602060002090600202016000015492505050612e8f565b8080600101915050612dd3565b506040517f08c379a0000000000000000000000000000000000000000000000000000000008152600401612e8690615481565b60405180910390fd5b92915050565b60606000808373ffffffffffffffffffffffffffffffffffffffff1673ffffffffffffffffffffffffffffffffffffffff1681526020019081526020016000206000018054600181600116156101000203166002900480601f016020809104026020016040519081016040528092919081815260200182805460018160011615610100020316600290048015612f6c5780601f10612f4157610100808354040283529160200191612f6c565b820191906000526020600020905b815481529060010190602001808311612f4f57829003601f168201915b50505050509050919050565b60008060003373ffffffffffffffffffffffffffffffffffffffff1673ffffffffffffffffffffffffffffffffffffffff16815260200190815260200160002060000180546001816001161561010002031660029004905011806130295750600260009054906101000a900473ffffffffffffffffffffffffffffffffffffffff1673ffffffffffffffffffffffffffffffffffffffff163373ffffffffffffffffffffffffffffffffffffffff16145b613068576040517f08c379a000000000000000000000000000000000000000000000000000000000815260040161305f90615501565b60405180910390fd5b60008511801561307a57506005548511155b6130b9576040517f08c379a00000000000000000000000000000000000000000000000000000000081526004016130b090615401565b60405180910390fd5b6000600460008781526020019081526020016000209050848160000190805190602001906130e892919061422a565b508381600301908051906020019061310192919061422a565b508281600401908051906020019061311a92919061422a565b508181600501908051906020019061313392919061422a565b506000600160003373ffffffffffffffffffffffffffffffffffffffff1673ffffffffffffffffffffffffffffffffffffffff168152602001908152602001600020905060008090505b81805490508110156131f2578782828154811061319657fe5b90600052602060002090600202016000015414156131e557868282815481106131bb57fe5b906000526020600020906002020160010190805190602001906131df92919061422a565b506131f2565b808060010191505061317d565b507f52be7c4e77b4de76b7607d621492061fe13b58597e72dfb5e51ab8f6187ed14187876040516132249291906155aa565b60405180910390a150505050505050565b60008060003373ffffffffffffffffffffffffffffffffffffffff1673ffffffffffffffffffffffffffffffffffffffff16815260200190815260200160002060000180546001816001161561010002031660029004905011806132e65750600260009054906101000a900473ffffffffffffffffffffffffffffffffffffffff1673ffffffffffffffffffffffffffffffffffffffff163373ffffffffffffffffffffffffffffffffffffffff16145b613325576040517f08c379a000000000000000000000000000000000000000000000000000000000815260040161331c90615501565b60405180910390fd5b60008211801561333757506005548211155b613376576040517f08c379a000000000000000000000000000000000000000000000000000000000815260040161336d90615401565b60405180910390fd5b600460008381526020019081526020016000206002018054905081106133d1576040517f08c379a00000000000000000000000000000000000000000000000000000000081526004016133c890615461565b60405180910390fd5b60008190505b60016004600085815260200190815260200160002060020180549050038110156135165760046000848152602001908152602001600020600201600182018154811061341f57fe5b906000526020600020906005020160046000858152602001908152602001600020600201828154811061344e57fe5b90600052602060002090600502016000820181600001908054600181600116156101000203166002900461348392919061432a565b50600182018160010190805460018160011615610100020316600290046134ab92919061432a565b50600282018160020190805460018160011615610100020316600290046134d392919061432a565b50600382018160030190805460018160011615610100020316600290046134fb92919061432a565b506004820154816004015590505080806001019150506133d7565b506004600083815260200190815260200160002060020180548061353657fe5b60019003818190600052602060002090600502016000808201600061355b91906143b1565b60018201600061356b91906143b1565b60028201600061357b91906143b1565b60038201600061358b91906143b1565b6004820160009055505090555050565b6000600360008573ffffffffffffffffffffffffffffffffffffffff1673ffffffffffffffffffffffffffffffffffffffff16815260200190815260200160002060000180546001816001161561010002031660029004905014613634576040517f08c379a000000000000000000000000000000000000000000000000000000000815260040161362b90615421565b60405180910390fd5b604051806040016040528083815260200182815250600360008573ffffffffffffffffffffffffffffffffffffffff1673ffffffffffffffffffffffffffffffffffffffff16815260200190815260200160002060008201518160000190805190602001906136a49291906142aa565b5060208201518160010190805190602001906136c19291906142aa565b50905050505050565b60606000600360008473ffffffffffffffffffffffffffffffffffffffff1673ffffffffffffffffffffffffffffffffffffffff1681526020019081526020016000209050600081600001805460018160011615610100020316600290049050111561375b578060000160405160200161374491906151e3565b60405160208183030381529060405291505061375d565b505b919050565b60608060055460405190808252806020026020018201604052801561379b57816020015b60608152602001906001900390816137865790505b50905060008090505b60055481101561388457600460006001830181526020019081526020016000206000018054600181600116156101000203166002900480601f01602080910402602001604051908101604052809291908181526020018280546001816001161561010002031660029004801561385b5780601f106138305761010080835404028352916020019161385b565b820191906000526020600020905b81548152906001019060200180831161383e57829003601f168201915b505050505082828151811061386c57fe5b602002602001018190525080806001019150506137a4565b508091505090565b6060806000831180156138a157506005548311155b6138e0576040517f08c379a00000000000000000000000000000000000000000000000000000000081526004016138d790615401565b60405180910390fd5b60006004600085815260200190815260200160002090506060816002018054905060405190808252806020026020018201604052801561392f5781602001602082028038833980820191505090505b50905060008090505b826002018054905081101561398d5782600201818154811061395657fe5b90600052602060002090600502016004015482828151811061397457fe5b6020026020010181815250508080600101915050613938565b508160000181818054600181600116156101000203166002900480601f016020809104026020016040519081016040528092919081815260200182805460018160011615610100020316600290048015613a285780601f106139fd57610100808354040283529160200191613a28565b820191906000526020600020905b815481529060010190602001808311613a0b57829003601f168201915b50505050509150935093505050915091565b600033905090565b60606000600160008473ffffffffffffffffffffffffffffffffffffffff1673ffffffffffffffffffffffffffffffffffffffff168152602001908152602001600020805490509050606081604051908082528060200260200182016040528015613abc5781602001602082028038833980820191505090505b50905060008090505b82811015613b4e57600160008673ffffffffffffffffffffffffffffffffffffffff1673ffffffffffffffffffffffffffffffffffffffff1681526020019081526020016000208181548110613b1757fe5b906000526020600020906002020160000154828281518110613b3557fe5b6020026020010181815250508080600101915050613ac5565b508092505050919050565b60008060003373ffffffffffffffffffffffffffffffffffffffff1673ffffffffffffffffffffffffffffffffffffffff1681526020019081526020016000206000018054600181600116156101000203166002900490501180613c0a5750600260009054906101000a900473ffffffffffffffffffffffffffffffffffffffff1673ffffffffffffffffffffffffffffffffffffffff163373ffffffffffffffffffffffffffffffffffffffff16145b613c49576040517f08c379a0000000000000000000000000000000000000000000000000000000008152600401613c4090615501565b60405180910390fd5b600086118015613c5b57506005548611155b613c9a576040517f08c379a0000000000000000000000000000000000000000000000000000000008152600401613c9190615401565b60405180910390fd5b60046000878152602001908152602001600020600201805490508510613cf5576040517f08c379a0000000000000000000000000000000000000000000000000000000008152600401613cec90615461565b60405180910390fd5b6000600460008881526020019081526020016000206002018681548110613d1857fe5b90600052602060002090600502019050848051906020012081600001604051613d4191906151cc565b604051809103902014613d685784816000019080519060200190613d6692919061422a565b505b838051906020012081600101604051613d8191906151cc565b604051809103902014613da85783816001019080519060200190613da692919061422a565b505b828051906020012081600201604051613dc191906151cc565b604051809103902014613de85782816002019080519060200190613de692919061422a565b505b818051906020012081600301604051613e0191906151cc565b604051809103902014613e285781816003019080519060200190613e2692919061422a565b505b50505050505050565b6060600082118015613e4557506005548211155b613e84576040517f08c379a0000000000000000000000000000000000000000000000000000000008152600401613e7b90615401565b60405180910390fd5b600460008381526020019081526020016000206004018054600181600116156101000203166002900480601f016020809104026020016040519081016040528092919081815260200182805460018160011615610100020316600290048015613f2e5780601f10613f0357610100808354040283529160200191613f2e565b820191906000526020600020905b815481529060010190602001808311613f1157829003601f168201915b50505050509050919050565b600082118015613f4c57506005548211155b613f8b576040517f08c379a0000000000000000000000000000000000000000000000000000000008152600401613f8290615401565b60405180910390fd5b60006004600084815260200190815260200160002090508060010160009054906101000a900460ff16613ff3576040517f08c379a0000000000000000000000000000000000000000000000000000000008152600401613fea906154c1565b60405180910390fd5b8060060160003373ffffffffffffffffffffffffffffffffffffffff1673ffffffffffffffffffffffffffffffffffffffff16815260200190815260200160002060009054906101000a900460ff1615614082576040517f08c379a0000000000000000000000000000000000000000000000000000000008152600401614079906154e1565b60405180910390fd5b60008090505b82518110156140e157816002018382815181106140a157fe5b6020026020010151815481106140b357fe5b9060005260206000209060050201600401600081548092919060010191905055508080600101915050614088565b5060018160060160003373ffffffffffffffffffffffffffffffffffffffff1673ffffffffffffffffffffffffffffffffffffffff16815260200190815260200160002060006101000a81548160ff0219169083151502179055507f080e2b87a3c8996025fe2aa92236ac4f958879a65c31df1b67991f80294fde8e83833360405161416f9392919061553c565b60405180910390a1505050565b600160008473ffffffffffffffffffffffffffffffffffffffff1673ffffffffffffffffffffffffffffffffffffffff168152602001908152602001600020604051806040016040528084815260200183815250908060018154018082558091505090600182039060005260206000209060020201600090919290919091506000820151816000015560208201518160010190805190602001906142219291906142aa565b50505050505050565b828054600181600116156101000203166002900490600052602060002090601f016020900481019282601f1061426b57805160ff1916838001178555614299565b82800160010185558215614299579182015b8281111561429857825182559160200191906001019061427d565b5b5090506142a691906143f9565b5090565b828054600181600116156101000203166002900490600052602060002090601f016020900481019282601f106142eb57805160ff1916838001178555614319565b82800160010185558215614319579182015b828111156143185782518255916020019190600101906142fd565b5b50905061432691906143f9565b5090565b828054600181600116156101000203166002900490600052602060002090601f016020900481019282601f1061436357805485556143a0565b828001600101855582156143a057600052602060002091601f016020900482015b8281111561439f578254825591600101919060010190614384565b5b5090506143ad91906143f9565b5090565b50805460018160011615610100020316600290046000825580601f106143d757506143f6565b601f0160209004906000526020600020908101906143f591906143f9565b5b50565b61441b91905b808211156144175760008160009055506001016143ff565b5090565b90565b60008135905061442d8161584f565b92915050565b600082601f83011261444457600080fd5b813561445761445282615607565b6155da565b9150818183526020840193506020810190508385602084028201111561447c57600080fd5b60005b838110156144ac5781614492888261450a565b84526020840193506020830192505060018101905061447f565b5050505092915050565b600082601f8301126144c757600080fd5b81356144da6144d58261562f565b6155da565b915080825260208301602083018583830111156144f657600080fd5b6145018382846157fc565b50505092915050565b60008135905061451981615866565b92915050565b60006020828403121561453157600080fd5b600061453f8482850161441e565b91505092915050565b6000806040838503121561455b57600080fd5b60006145698582860161441e565b925050602083013567ffffffffffffffff81111561458657600080fd5b614592858286016144b6565b9150509250929050565b6000806000606084860312156145b157600080fd5b60006145bf8682870161441e565b935050602084013567ffffffffffffffff8111156145dc57600080fd5b6145e8868287016144b6565b925050604084013567ffffffffffffffff81111561460557600080fd5b614611868287016144b6565b9150509250925092565b6000806000806080858703121561463157600080fd5b600061463f8782880161441e565b945050602085013567ffffffffffffffff81111561465c57600080fd5b614668878288016144b6565b935050604085013567ffffffffffffffff81111561468557600080fd5b614691878288016144b6565b925050606085013567ffffffffffffffff8111156146ae57600080fd5b6146ba878288016144b6565b91505092959194509250565b600080604083850312156146d957600080fd5b60006146e78582860161441e565b92505060206146f88582860161450a565b9150509250929050565b60008060006060848603121561471757600080fd5b600084013567ffffffffffffffff81111561473157600080fd5b61473d868287016144b6565b935050602084013567ffffffffffffffff81111561475a57600080fd5b614766868287016144b6565b925050604084013567ffffffffffffffff81111561478357600080fd5b61478f868287016144b6565b9150509250925092565b600080600080608085870312156147af57600080fd5b600085013567ffffffffffffffff8111156147c957600080fd5b6147d5878288016144b6565b945050602085013567ffffffffffffffff8111156147f257600080fd5b6147fe878288016144b6565b935050604085013567ffffffffffffffff81111561481b57600080fd5b614827878288016144b6565b925050606085013567ffffffffffffffff81111561484457600080fd5b614850878288016144b6565b91505092959194509250565b60006020828403121561486e57600080fd5b600061487c8482850161450a565b91505092915050565b6000806040838503121561489857600080fd5b60006148a68582860161450a565b925050602083013567ffffffffffffffff8111156148c357600080fd5b6148cf85828601614433565b9150509250929050565b600080604083850312156148ec57600080fd5b60006148fa8582860161450a565b925050602083013567ffffffffffffffff81111561491757600080fd5b614923858286016144b6565b9150509250929050565b600080600080600060a0868803121561494557600080fd5b60006149538882890161450a565b955050602086013567ffffffffffffffff81111561497057600080fd5b61497c888289016144b6565b945050604086013567ffffffffffffffff81111561499957600080fd5b6149a5888289016144b6565b935050606086013567ffffffffffffffff8111156149c257600080fd5b6149ce888289016144b6565b925050608086013567ffffffffffffffff8111156149eb57600080fd5b6149f7888289016144b6565b9150509295509295909350565b60008060408385031215614a1757600080fd5b6000614a258582860161450a565b9250506020614a368582860161450a565b9150509250929050565b60008060008060008060c08789031215614a5957600080fd5b6000614a6789828a0161450a565b9650506020614a7889828a0161450a565b955050604087013567ffffffffffffffff811115614a9557600080fd5b614aa189828a016144b6565b945050606087013567ffffffffffffffff811115614abe57600080fd5b614aca89828a016144b6565b935050608087013567ffffffffffffffff811115614ae757600080fd5b614af389828a016144b6565b92505060a087013567ffffffffffffffff811115614b1057600080fd5b614b1c89828a016144b6565b9150509295509295509295565b6000614b358383614da5565b905092915050565b6000614b498383615171565b905092915050565b6000614b5d83836151ae565b60208301905092915050565b614b72816157c6565b82525050565b614b818161577e565b82525050565b6000614b92826156b5565b614b9c8185615713565b935083602082028501614bae8561565b565b8060005b85811015614bea5784840389528151614bcb8582614b29565b9450614bd6836156ec565b925060208a01995050600181019050614bb2565b50829750879550505050505092915050565b6000614c07826156c0565b614c118185615724565b935083602082028501614c238561566b565b8060005b85811015614c5f5784840389528151614c408582614b3d565b9450614c4b836156f9565b925060208a01995050600181019050614c27565b50829750879550505050505092915050565b6000614c7c826156cb565b614c868185615735565b9350614c918361567b565b8060005b83811015614cc2578151614ca98882614b51565b9750614cb483615706565b925050600181019050614c95565b5085935050505092915050565b614cd881615790565b82525050565b600081546001811660008114614cfb5760018114614d2057614d64565b607f6002830416614d0c8187615746565b955060ff1983168652808601935050614d64565b60028204614d2e8187615746565b9550614d398561568b565b60005b82811015614d5b57815481890152600182019150602081019050614d3c565b82880195505050505b505092915050565b6000614d77826156e1565b614d818185615762565b9350614d9181856020860161580b565b614d9a8161583e565b840191505092915050565b6000614db0826156d6565b614dba8185615751565b9350614dca81856020860161580b565b614dd38161583e565b840191505092915050565b6000614de9826156d6565b614df38185615762565b9350614e0381856020860161580b565b614e0c8161583e565b840191505092915050565b600081546001811660008114614e345760018114614e5957614e9d565b607f6002830416614e458187615773565b955060ff1983168652808601935050614e9d565b60028204614e678187615773565b9550614e72856156a0565b60005b82811015614e9457815481890152600182019150602081019050614e75565b82880195505050505b505092915050565b6000614eb2601283615762565b91507f4f726720646f6573206e6f7420657869737400000000000000000000000000006000830152602082019050919050565b6000614ef2601783615762565b91507f456c656374696f6e20646f6573206e6f742065786973740000000000000000006000830152602082019050919050565b6000614f32601383615762565b91507f5573657220616c726561647920657869737473000000000000000000000000006000830152602082019050919050565b6000614f72602883615762565b91507f456c656374696f6e20646f6573206e6f74206578697374206f72206973206e6f60008301527f74206163746976650000000000000000000000000000000000000000000000006020830152604082019050919050565b6000614fd8601883615762565b91507f43616e64696461746520646f6573206e6f7420657869737400000000000000006000830152602082019050919050565b6000615018601283615762565b91507f456c656374696f6e206e6f7420666f756e6400000000000000000000000000006000830152602082019050919050565b6000615058601383615762565b91507f5573657220646f6573206e6f74206578697374000000000000000000000000006000830152602082019050919050565b6000615098601683615762565b91507f456c656374696f6e206973206e6f7420616374697665000000000000000000006000830152602082019050919050565b60006150d8601683615762565b91507f596f75206861766520616c726561647920766f746564000000000000000000006000830152602082019050919050565b6000615118602a83615762565b91507f4f6e6c7920746865206f7267616e697a65722063616e20706572666f726d207460008301527f68697320616374696f6e000000000000000000000000000000000000000000006020830152604082019050919050565b600060408301600083015161518960008601826151ae565b50602083015184820360208601526151a18282614da5565b9150508091505092915050565b6151b7816157bc565b82525050565b6151c6816157bc565b82525050565b60006151d88284614cde565b915081905092915050565b60006151ef8284614e17565b915081905092915050565b600060208201905061520f6000830184614b78565b92915050565b6000602082019050818103600083015261522f8184614b87565b905092915050565b600060208201905081810360008301526152518184614bfc565b905092915050565b600060208201905081810360008301526152738184614c71565b905092915050565b60006020820190506152906000830184614ccf565b92915050565b600060208201905081810360008301526152b08184614d6c565b905092915050565b600060408201905081810360008301526152d28185614d6c565b905081810360208301526152e68184614c71565b90509392505050565b600060a08201905081810360008301526153098188614dde565b90506153186020830187614ccf565b818103604083015261532a8186614dde565b9050818103606083015261533e8185614dde565b905081810360808301526153528184614dde565b90509695505050505050565b600060408201905081810360008301526153788185614dde565b9050818103602083015261538c8184614dde565b90509392505050565b600060608201905081810360008301526153af8186614dde565b905081810360208301526153c38185614dde565b905081810360408301526153d78184614dde565b9050949350505050565b600060208201905081810360008301526153fa81614ea5565b9050919050565b6000602082019050818103600083015261541a81614ee5565b9050919050565b6000602082019050818103600083015261543a81614f25565b9050919050565b6000602082019050818103600083015261545a81614f65565b9050919050565b6000602082019050818103600083015261547a81614fcb565b9050919050565b6000602082019050818103600083015261549a8161500b565b9050919050565b600060208201905081810360008301526154ba8161504b565b9050919050565b600060208201905081810360008301526154da8161508b565b9050919050565b600060208201905081810360008301526154fa816150cb565b9050919050565b6000602082019050818103600083015261551a8161510b565b9050919050565b600060208201905061553660008301846151bd565b92915050565b600060608201905061555160008301866151bd565b81810360208301526155638185614c71565b90506155726040830184614b69565b949350505050565b600060408201905061558f60008301856151bd565b81810360208301526155a18184614dde565b90509392505050565b60006040820190506155bf60008301856151bd565b81810360208301526155d18184614d6c565b90509392505050565b6000604051905081810181811067ffffffffffffffff821117156155fd57600080fd5b8060405250919050565b600067ffffffffffffffff82111561561e57600080fd5b602082029050602081019050919050565b600067ffffffffffffffff82111561564657600080fd5b601f19601f8301169050602081019050919050565b6000819050602082019050919050565b6000819050602082019050919050565b6000819050602082019050919050565b60008190508160005260206000209050919050565b60008190508160005260206000209050919050565b600081519050919050565b600081519050919050565b600081519050919050565b600081519050919050565b600081519050919050565b6000602082019050919050565b6000602082019050919050565b6000602082019050919050565b600082825260208201905092915050565b600082825260208201905092915050565b600082825260208201905092915050565b600081905092915050565b600082825260208201905092915050565b600082825260208201905092915050565b600081905092915050565b60006157898261579c565b9050919050565b60008115159050919050565b600073ffffffffffffffffffffffffffffffffffffffff82169050919050565b6000819050919050565b60006157d1826157d8565b9050919050565b60006157e3826157ea565b9050919050565b60006157f58261579c565b9050919050565b82818337600083830152505050565b60005b8381101561582957808201518184015260208101905061580e565b83811115615838576000848401525b50505050565b6000601f19601f8301169050919050565b6158588161577e565b811461586357600080fd5b50565b61586f816157bc565b811461587a57600080fd5b5056fea365627a7a72315820e233c763000767d02ecb5512442a59e05645af2bbc06da257e1d37139e5cede46c6578706572696d656e74616cf564736f6c63430005100040",
  "source": "// SPDX-License-Identifier: MIT\r\npragma solidity >=0.4.21 <=0.8.20;\r\npragma experimental ABIEncoderV2;\r\n\r\n\r\ncontract DecentralizedVoting {\r\n    //address[] public org;\r\n\r\n    mapping(address => UserOrg) public org;\r\n\r\n    struct UserOrg {\r\n        string orgName;\r\n        string userName;\r\n        string email;\r\n    }\r\n\r\n    mapping (address => CreatedElections[]) public ownedElections;\r\n\r\n    struct CreatedElections {\r\n        uint256 electionId;\r\n        string electionName;\r\n    }\r\n\r\n\r\n    //mapping(address => uint[]) createdElectionID;\r\n\r\n    address deployer;\r\n\r\n    struct User {\r\n        string userName;\r\n        string email;\r\n    }\r\n\r\n    mapping(address => User) public users;\r\n\r\n    struct Candidate {\r\n        string name;\r\n        string position;\r\n        string platform;\r\n        string cdn;\r\n        uint256 voteCount;\r\n    }\r\n\r\n    \r\n\r\n    struct Election {\r\n        string name;\r\n        bool active;\r\n        Candidate[] candidates;\r\n        string startDate;\r\n        string endDate;\r\n        string domainFilter;\r\n        mapping(address => bool) hasVoted;\r\n    }\r\n\r\n    mapping(uint256 => Election) public elections;\r\n    uint256 public electionCount;\r\n\r\n    event ElectionCreated(uint256 electionId, string name);\r\n    event CandidateAdded(uint256 electionId, string name);\r\n    event Voted(uint256 electionId, uint256[] candidateIndex, address voter);\r\n\r\n    modifier onlyOrg() {\r\n        \r\n        require(bytes(org[msg.sender].orgName).length > 0 || msg.sender == deployer, \"Only the organizer can perform this action\");\r\n        _;\r\n    }\r\n\r\n    constructor() public {\r\n        deployer = msg.sender;\r\n    }\r\n\r\n     // Create a new election (only owner)\r\n    function createElection(string memory _name, string memory _startDate, string memory _endDate, string memory _domainFilter) public onlyOrg {\r\n        electionCount++;\r\n        Election storage newElection = elections[electionCount];\r\n        newElection.name = _name;\r\n        newElection.active = true;\r\n        newElection.startDate = _startDate;\r\n        newElection.endDate = _endDate;\r\n        newElection.domainFilter = _domainFilter;\r\n        addToOwnedElections(msg.sender, electionCount, _name);\r\n        emit ElectionCreated(electionCount, _name);\r\n    }\r\n\r\n\r\n\r\n    \r\n    // Update election details\r\n    function updateElectionDetails(uint256 _electionId, string memory _newName, string memory _startDate, string memory _endDate, string memory _newDomainFilter) public onlyOrg {\r\n        require(_electionId > 0 && _electionId <= electionCount, \"Election does not exist\");\r\n        Election storage election = elections[_electionId];\r\n        \r\n        election.name = _newName;\r\n        election.startDate = _startDate;\r\n        election.endDate = _endDate;\r\n        election.domainFilter = _newDomainFilter;\r\n\r\n        // Update the name in the owned elections\r\n        CreatedElections[] storage electionsList = ownedElections[msg.sender];\r\n        for (uint256 i = 0; i < electionsList.length; i++) {\r\n            if (electionsList[i].electionId == _electionId) {\r\n                electionsList[i].electionName = _newName;\r\n                break;\r\n            }\r\n        }\r\n\r\n        // Emit an event for the update\r\n        emit ElectionCreated(_electionId, _newName);\r\n    }\r\n\r\n\r\n\r\n\r\n    function addToOwnedElections(address organizer, uint256 _electionId, string memory _electionName) internal {\r\n        ownedElections[organizer].push(CreatedElections({\r\n        electionId: _electionId,\r\n        electionName: _electionName\r\n    }));\r\n    }\r\n\r\n    function getOwnedElections(address organizer) public view returns (CreatedElections[] memory) {\r\n        return ownedElections[organizer];\r\n    }\r\n\r\n\r\n\r\n    function getOwnedElectionIds(address organizer) public view returns (uint256[] memory) {\r\n    uint256 count = ownedElections[organizer].length;\r\n    uint256[] memory ids = new uint256[](count);\r\n\r\n    for (uint256 i = 0; i < count; i++) {\r\n        ids[i] = ownedElections[organizer][i].electionId;\r\n    }\r\n\r\n    return ids;\r\n    }\r\n\r\n    function getOwnedElectionNames(address organizer) public view returns (string[] memory) {\r\n        uint256 count = ownedElections[organizer].length;\r\n        string[] memory names = new string[](count);\r\n\r\n        for (uint256 i = 0; i < count; i++) {\r\n            names[i] = ownedElections[organizer][i].electionName;\r\n        }\r\n\r\n        return names;\r\n    }\r\n\r\n    function getElectionIdByName(address organizer, string memory _name) public view returns (uint256) {\r\n    CreatedElections[] storage electionsList = ownedElections[organizer];\r\n    for (uint256 i = 0; i < electionsList.length; i++) {\r\n        if (keccak256(bytes(electionsList[i].electionName)) == keccak256(bytes(_name))) {\r\n            return electionsList[i].electionId;\r\n        }\r\n    }\r\n    revert(\"Election not found\");\r\n    }    \r\n\r\n    // Get election results\r\n    function getElectionResults(uint256 _electionId) public view returns (string memory, uint256[] memory) {\r\n        require(_electionId > 0 && _electionId <= electionCount, \"Election does not exist\");\r\n        Election storage election = elections[_electionId];\r\n\r\n        uint256[] memory votes = new uint256[](election.candidates.length);\r\n        for (uint256 i = 0; i < election.candidates.length; i++) {\r\n            votes[i] = election.candidates[i].voteCount;\r\n        }\r\n\r\n        return (election.name, votes);\r\n    }\r\n\r\n    \r\n    \r\n    // Get election name\r\n    function getElectionName(uint256 _electionId) public view returns (string memory) {\r\n        require(_electionId > 0 && _electionId <= electionCount, \"Election does not exist\");\r\n        return elections[_electionId].name;\r\n    }\r\n\r\n    // Close an election (only owner)\r\n    function closeElection(uint256 _electionId) public onlyOrg {\r\n        require(_electionId > 0 && _electionId <= electionCount && elections[_electionId].active == true, \"Election does not exist or is not active\");\r\n        elections[_electionId].active = false;\r\n    }\r\n\r\n    \r\n    // Get list of all election names\r\n    function getElectionNames() public view returns (string[] memory) {\r\n        string[] memory electionNames = new string[](electionCount);\r\n\r\n        for (uint256 i = 0; i < electionCount; i++) {\r\n            electionNames[i] = elections[i + 1].name;\r\n        }\r\n\r\n        return electionNames;\r\n    }\r\n\r\n    \r\n    // Get election start date\r\n    function getElectionStartDate(uint256 _electionId) public view returns (string memory) {\r\n        require(_electionId > 0 && _electionId <= electionCount, \"Election does not exist\");\r\n        return elections[_electionId].startDate;\r\n    }\r\n\r\n    \r\n    // Get election end date\r\n    function getElectionEndDate(uint256 _electionId) public view returns (string memory) {\r\n        require(_electionId > 0 && _electionId <= electionCount, \"Election does not exist\");\r\n        return elections[_electionId].endDate;\r\n    }\r\n\r\n\r\n    \r\n    // Get election domain filter\r\n    function getElectionDomainFilter(uint256 _electionId) public view returns (string memory) {\r\n        require(_electionId > 0 && _electionId <= electionCount, \"Election does not exist\");\r\n        return elections[_electionId].domainFilter;\r\n    }\r\n\r\n    \r\n\r\n    // Get election status\r\n    function getElectionStatus(uint256 _electionId) public view returns (bool) {\r\n        require(_electionId > 0 && _electionId <= electionCount, \"Election does not exist\");\r\n        return elections[_electionId].active;\r\n    }\r\n\r\n    //end Election\r\n\r\n\r\n    // Add a candidate to an election (only owner)\r\n    function addCandidate(uint256 _electionId, string memory _candidateName, string memory _candidatePosition, string memory _platform, string memory _cdn) public onlyOrg {\r\n        require(_electionId > 0 && _electionId <= electionCount, \"Election does not exist\");\r\n        require(elections[_electionId].active, \"Election is not active\");\r\n\r\n        elections[_electionId].candidates.push(Candidate({ name: _candidateName, voteCount: 0 , position: _candidatePosition , platform: _platform, cdn: _cdn}));\r\n        emit CandidateAdded(_electionId, _candidateName);\r\n    }\r\n\r\n    \r\n    // Update candidate information\r\n    function updateCandidateInfo(uint256 _electionId, uint256 _candidateIndex, string memory _newName, string memory _newPosition, string memory _newPlatform, string memory _newcdn) public onlyOrg {\r\n        require(_electionId > 0 && _electionId <= electionCount, \"Election does not exist\");\r\n        require(_candidateIndex < elections[_electionId].candidates.length, \"Candidate does not exist\");\r\n        \r\n        Candidate storage candidate = elections[_electionId].candidates[_candidateIndex];\r\n        \r\n        if (keccak256(bytes(candidate.name)) != keccak256(bytes(_newName))) {\r\n            candidate.name = _newName;\r\n        }\r\n        \r\n        if (keccak256(bytes(candidate.position)) != keccak256(bytes(_newPosition))) {\r\n            candidate.position = _newPosition;\r\n        }\r\n        \r\n        if (keccak256(bytes(candidate.platform)) != keccak256(bytes(_newPlatform))) {\r\n            candidate.platform = _newPlatform;\r\n        }\r\n\r\n        if (keccak256(bytes(candidate.cdn)) != keccak256(bytes(_newcdn))) {\r\n            candidate.cdn = _newcdn;\r\n        }\r\n        \r\n        // TODO: update the event\r\n    }\r\n\r\n    // Delete a candidate from an election (only owner)\r\n    function deleteCandidate(uint256 _electionId, uint256 _candidateIndex) public onlyOrg {\r\n        require(_electionId > 0 && _electionId <= electionCount, \"Election does not exist\");\r\n        require(_candidateIndex < elections[_electionId].candidates.length, \"Candidate does not exist\");\r\n\r\n        // Remove the candidate by shifting elements to the left\r\n        for (uint256 i = _candidateIndex; i < elections[_electionId].candidates.length - 1; i++) {\r\n            elections[_electionId].candidates[i] = elections[_electionId].candidates[i + 1];\r\n        }\r\n        \r\n        // Remove the last element\r\n        elections[_electionId].candidates.pop();\r\n    }\r\n\r\n    \r\n\r\n    // Get the number of candidates in an election\r\n    function getCandidatesCount(uint256 _electionId) public view returns (uint256) {\r\n        require(_electionId > 0 && _electionId <= electionCount, \"Election does not exist\");\r\n        return elections[_electionId].candidates.length;\r\n    }\r\n\r\n\r\n    \r\n    // Get candidate name\r\n    function getCandidateName(uint256 _electionId, uint256 _candidateIndex) public view returns (string memory) {\r\n        require(_electionId > 0 && _electionId <= electionCount, \"Election does not exist\");\r\n        require(_candidateIndex < elections[_electionId].candidates.length, \"Candidate does not exist\");\r\n        return elections[_electionId].candidates[_candidateIndex].name;\r\n    }\r\n\r\n    \r\n    // Get candidate position\r\n    function getCandidatePosition(uint256 _electionId, uint256 _candidateIndex) public view returns (string memory) {\r\n        require(_electionId > 0 && _electionId <= electionCount, \"Election does not exist\");\r\n        require(_candidateIndex < elections[_electionId].candidates.length, \"Candidate does not exist\");\r\n        return elections[_electionId].candidates[_candidateIndex].position;\r\n    }\r\n\r\n\r\n    //get candidate platform\r\n    function getCandidatePlatform(uint256 _electionId, uint256 _candidateIndex) public view returns (string memory) {\r\n        require(_electionId > 0 && _electionId <= electionCount, \"Election does not exist\");\r\n        require(_candidateIndex < elections[_electionId].candidates.length, \"Candidate does not exist\");\r\n        return elections[_electionId].candidates[_candidateIndex].platform;\r\n    }\r\n\r\n    function getCandidateCdn(uint256 _electionId, uint256 _candidateIndex) public view returns (string memory) {\r\n        require(_electionId > 0 && _electionId <= electionCount, \"Election does not exist\");\r\n        require(_candidateIndex < elections[_electionId].candidates.length, \"Candidate does not exist\");\r\n        return elections[_electionId].candidates[_candidateIndex].cdn;\r\n    }\r\n\r\n\r\n    //get candidate names\r\n    function getCandidateNames(uint256 _electionId) public view returns (string[] memory) {\r\n        require(_electionId > 0 && _electionId <= electionCount, \"Election does not exist\");\r\n\r\n        uint256 candidateCount = elections[_electionId].candidates.length;\r\n        string[] memory candidateNames = new string[](candidateCount);\r\n\r\n        for (uint256 i = 0; i < candidateCount; i++) {\r\n            candidateNames[i] = elections[_electionId].candidates[i].name;\r\n        }\r\n\r\n        return candidateNames;\r\n    }\r\n\r\n    \r\n    //get candidate ID by name\r\n    function getCandidateIDbyName(uint256 _electionId, string memory _candidateName) public view returns (uint256) {\r\n        require(_electionId > 0 && _electionId <= electionCount, \"Election does not exist\");\r\n\r\n        uint256 candidateCount = elections[_electionId].candidates.length;\r\n        for (uint256 i = 0; i < candidateCount; i++) {\r\n            if (keccak256(bytes(elections[_electionId].candidates[i].name)) == keccak256(bytes(_candidateName))) {\r\n                return i;\r\n            }\r\n        }\r\n        return candidateCount;\r\n    }\r\n\r\n\r\n    \r\n    //get candidate votecount\r\n    function getCandidateVoteCount(uint256 _electionId, uint256 _candidateIndex) public view returns (uint256) {\r\n        require(_electionId > 0 && _electionId <= electionCount, \"Election does not exist\");\r\n        require(_candidateIndex < elections[_electionId].candidates.length, \"Candidate does not exist\");\r\n        return elections[_electionId].candidates[_candidateIndex].voteCount;\r\n    }\r\n    //end candidate\r\n\r\n\r\n    //ORG    \r\n    function addOrg(string memory orgName, string memory name, string memory email) public {\r\n        org[msg.sender] = UserOrg(orgName, name, email);\r\n    }    \r\n\r\n    \r\n    function isOrg(address orgAddress) public view returns (bool){\r\n        return bytes(org[orgAddress].orgName).length > 0;\r\n    }\r\n\r\n    \r\n    function getOrgName(address orgAddress) public view returns (string memory){\r\n        return org[orgAddress].orgName;\r\n    }\r\n\r\n    \r\n    function getOrgUserName(address orgAddress) public view returns (string memory){\r\n        return org[orgAddress].userName;\r\n    }\r\n\r\n    function getOrgEmail(address orgAddress) public view returns (string memory) {\r\n        return org[orgAddress].email;\r\n    }\r\n\r\n    \r\n    function updateOrgDetails(address orgAddress, string memory newOrgName, string memory newUserName, string memory newEmail) public {\r\n        require(isOrg(orgAddress), \"Org does not exist\");\r\n        org[orgAddress].orgName = newOrgName;\r\n        org[orgAddress].userName = newUserName;\r\n        org[orgAddress].email = newEmail;\r\n    }\r\n    \r\n    \r\n\r\n    //End ORG\r\n\r\n     function getUserAddress() public view returns (address) {\r\n        return msg.sender;\r\n    }\r\n\r\n    //Voter\r\n    function addUser(address userAddress, string memory userName, string memory email) public {\r\n        require(bytes(users[userAddress].userName).length == 0, \"User already exists\");\r\n        users[userAddress] = User(userName, email);\r\n        \r\n    }\r\n\r\n    function isUser(address userAddress) public view returns (bool){\r\n        return bytes(users[userAddress].userName).length > 0;\r\n    }\r\n\r\n   \r\n\r\n    function getUserName(address userAddress) public view returns (string memory){\r\n        User storage user = users[userAddress];\r\n        if(bytes(user.userName).length > 0)\r\n            return string(abi.encodePacked(user.userName));\r\n    }\r\n\r\n    function getEmail(address userAddress) public view returns (string memory){\r\n        User storage user = users[userAddress];\r\n        if(bytes(user.email).length > 0)\r\n            return string(abi.encodePacked(user.email));\r\n    }\r\n\r\n    function updateUser(address userAddress, string memory newUserName, string memory newEmail) public {\r\n        require(isUser(userAddress), \"User does not exist\");\r\n        User storage user = users[userAddress];\r\n        if(bytes(newUserName).length > 0)\r\n            user.userName = newUserName;\r\n        if(bytes(newEmail).length > 0)\r\n            user.email = newEmail;\r\n    }\r\n    \r\n\r\n    //end voter\r\n\r\n\r\n    function getOwnerAddress() public view returns (address) {\r\n        return deployer;\r\n    }\r\n\r\n    \r\n    // Vote for multiple candidates in an election\r\n    function Vote(uint256 _electionId, uint256[] memory _candidateIndexes) public {\r\n        require(_electionId > 0 && _electionId <= electionCount, \"Election does not exist\");\r\n        Election storage election = elections[_electionId];\r\n\r\n        require(election.active, \"Election is not active\");\r\n        require(!election.hasVoted[msg.sender], \"You have already voted\");\r\n\r\n        for (uint256 i = 0; i < _candidateIndexes.length; i++) {\r\n            election.candidates[_candidateIndexes[i]].voteCount++;\r\n        }\r\n\r\n        election.hasVoted[msg.sender] = true;\r\n\r\n        emit Voted(_electionId, _candidateIndexes, msg.sender);\r\n    }\r\n\r\n    \r\n\r\n\r\n\r\n}\r\n",
  "sourcePath": "C:\\Users\\dizon\\OneDrive\\Desktop\\Gordon College\\AppDev\\BlockVote\\contract\\contracts\\Voting.sol",
  "compiler": {
    "name": "solc",
    "version": "0.5.16+commit.9c3226ce.Emscripten.clang"
  },
  "schemaVersion": "3.4.16",
  "updatedAt": "2025-05-08T20:47:22.125Z",
  "networkType": "ethereum",
  "devdoc": {
    "methods": {}
  },
  "userdoc": {
    "methods": {}
  }
}