{
  "contractName": "DecentralizedVoting",
  "abi": [
    {
      "inputs": [],
      "payable": false,
      "stateMutability": "nonpayable",
      "type": "constructor"
    },
    {
      "anonymous": false,
      "inputs": [
        {
          "indexed": false,
          "internalType": "uint256",
          "name": "electionId",
          "type": "uint256"
        },
        {
          "indexed": false,
          "internalType": "string",
          "name": "name",
          "type": "string"
        }
      ],
      "name": "CandidateAdded",
      "type": "event"
    },
    {
      "anonymous": false,
      "inputs": [
        {
          "indexed": false,
          "internalType": "uint256",
          "name": "electionId",
          "type": "uint256"
        },
        {
          "indexed": false,
          "internalType": "string",
          "name": "name",
          "type": "string"
        }
      ],
      "name": "ElectionCreated",
      "type": "event"
    },
    {
      "anonymous": false,
      "inputs": [
        {
          "indexed": false,
          "internalType": "uint256",
          "name": "electionId",
          "type": "uint256"
        },
        {
          "indexed": false,
          "internalType": "uint256[]",
          "name": "candidateIndex",
          "type": "uint256[]"
        },
        {
          "indexed": false,
          "internalType": "address",
          "name": "voter",
          "type": "address"
        }
      ],
      "name": "Voted",
      "type": "event"
    },
    {
      "constant": true,
      "inputs": [],
      "name": "electionCount",
      "outputs": [
        {
          "internalType": "uint256",
          "name": "",
          "type": "uint256"
        }
      ],
      "payable": false,
      "stateMutability": "view",
      "type": "function"
    },
    {
      "constant": true,
      "inputs": [
        {
          "internalType": "uint256",
          "name": "",
          "type": "uint256"
        }
      ],
      "name": "elections",
      "outputs": [
        {
          "internalType": "string",
          "name": "name",
          "type": "string"
        },
        {
          "internalType": "bool",
          "name": "active",
          "type": "bool"
        },
        {
          "internalType": "string",
          "name": "startDate",
          "type": "string"
        },
        {
          "internalType": "string",
          "name": "endDate",
          "type": "string"
        },
        {
          "internalType": "string",
          "name": "domainFilter",
          "type": "string"
        }
      ],
      "payable": false,
      "stateMutability": "view",
      "type": "function"
    },
    {
      "constant": true,
      "inputs": [
        {
          "internalType": "address",
          "name": "",
          "type": "address"
        }
      ],
      "name": "org",
      "outputs": [
        {
          "internalType": "string",
          "name": "orgName",
          "type": "string"
        },
        {
          "internalType": "string",
          "name": "userName",
          "type": "string"
        },
        {
          "internalType": "string",
          "name": "email",
          "type": "string"
        }
      ],
      "payable": false,
      "stateMutability": "view",
      "type": "function"
    },
    {
      "constant": true,
      "inputs": [
        {
          "internalType": "address",
          "name": "",
          "type": "address"
        },
        {
          "internalType": "uint256",
          "name": "",
          "type": "uint256"
        }
      ],
      "name": "ownedElections",
      "outputs": [
        {
          "internalType": "uint256",
          "name": "electionId",
          "type": "uint256"
        },
        {
          "internalType": "string",
          "name": "electionName",
          "type": "string"
        }
      ],
      "payable": false,
      "stateMutability": "view",
      "type": "function"
    },
    {
      "constant": true,
      "inputs": [
        {
          "internalType": "address",
          "name": "",
          "type": "address"
        }
      ],
      "name": "users",
      "outputs": [
        {
          "internalType": "string",
          "name": "userName",
          "type": "string"
        },
        {
          "internalType": "string",
          "name": "email",
          "type": "string"
        }
      ],
      "payable": false,
      "stateMutability": "view",
      "type": "function"
    },
    {
      "constant": false,
      "inputs": [
        {
          "internalType": "string",
          "name": "_name",
          "type": "string"
        },
        {
          "internalType": "string",
          "name": "_startDate",
          "type": "string"
        },
        {
          "internalType": "string",
          "name": "_endDate",
          "type": "string"
        },
        {
          "internalType": "string",
          "name": "_domainFilter",
          "type": "string"
        }
      ],
      "name": "createElection",
      "outputs": [],
      "payable": false,
      "stateMutability": "nonpayable",
      "type": "function"
    },
    {
      "constant": false,
      "inputs": [
        {
          "internalType": "uint256",
          "name": "_electionId",
          "type": "uint256"
        },
        {
          "internalType": "string",
          "name": "_newName",
          "type": "string"
        },
        {
          "internalType": "string",
          "name": "_startDate",
          "type": "string"
        },
        {
          "internalType": "string",
          "name": "_endDate",
          "type": "string"
        },
        {
          "internalType": "string",
          "name": "_newDomainFilter",
          "type": "string"
        }
      ],
      "name": "updateElectionDetails",
      "outputs": [],
      "payable": false,
      "stateMutability": "nonpayable",
      "type": "function"
    },
    {
      "constant": true,
      "inputs": [
        {
          "internalType": "address",
          "name": "organizer",
          "type": "address"
        }
      ],
      "name": "getOwnedElections",
      "outputs": [
        {
          "components": [
            {
              "internalType": "uint256",
              "name": "electionId",
              "type": "uint256"
            },
            {
              "internalType": "string",
              "name": "electionName",
              "type": "string"
            }
          ],
          "internalType": "struct DecentralizedVoting.CreatedElections[]",
          "name": "",
          "type": "tuple[]"
        }
      ],
      "payable": false,
      "stateMutability": "view",
      "type": "function"
    },
    {
      "constant": true,
      "inputs": [
        {
          "internalType": "address",
          "name": "organizer",
          "type": "address"
        }
      ],
      "name": "getOwnedElectionIds",
      "outputs": [
        {
          "internalType": "uint256[]",
          "name": "",
          "type": "uint256[]"
        }
      ],
      "payable": false,
      "stateMutability": "view",
      "type": "function"
    },
    {
      "constant": true,
      "inputs": [
        {
          "internalType": "address",
          "name": "organizer",
          "type": "address"
        }
      ],
      "name": "getOwnedElectionNames",
      "outputs": [
        {
          "internalType": "string[]",
          "name": "",
          "type": "string[]"
        }
      ],
      "payable": false,
      "stateMutability": "view",
      "type": "function"
    },
    {
      "constant": true,
      "inputs": [
        {
          "internalType": "address",
          "name": "organizer",
          "type": "address"
        },
        {
          "internalType": "string",
          "name": "_name",
          "type": "string"
        }
      ],
      "name": "getElectionIdByName",
      "outputs": [
        {
          "internalType": "uint256",
          "name": "",
          "type": "uint256"
        }
      ],
      "payable": false,
      "stateMutability": "view",
      "type": "function"
    },
    {
      "constant": true,
      "inputs": [
        {
          "internalType": "uint256",
          "name": "_electionId",
          "type": "uint256"
        }
      ],
      "name": "getElectionResults",
      "outputs": [
        {
          "internalType": "string",
          "name": "",
          "type": "string"
        },
        {
          "internalType": "uint256[]",
          "name": "",
          "type": "uint256[]"
        }
      ],
      "payable": false,
      "stateMutability": "view",
      "type": "function"
    },
    {
      "constant": true,
      "inputs": [
        {
          "internalType": "uint256",
          "name": "_electionId",
          "type": "uint256"
        }
      ],
      "name": "getElectionName",
      "outputs": [
        {
          "internalType": "string",
          "name": "",
          "type": "string"
        }
      ],
      "payable": false,
      "stateMutability": "view",
      "type": "function"
    },
    {
      "constant": false,
      "inputs": [
        {
          "internalType": "uint256",
          "name": "_electionId",
          "type": "uint256"
        }
      ],
      "name": "closeElection",
      "outputs": [],
      "payable": false,
      "stateMutability": "nonpayable",
      "type": "function"
    },
    {
      "constant": true,
      "inputs": [],
      "name": "getElectionNames",
      "outputs": [
        {
          "internalType": "string[]",
          "name": "",
          "type": "string[]"
        }
      ],
      "payable": false,
      "stateMutability": "view",
      "type": "function"
    },
    {
      "constant": true,
      "inputs": [
        {
          "internalType": "uint256",
          "name": "_electionId",
          "type": "uint256"
        }
      ],
      "name": "getElectionStartDate",
      "outputs": [
        {
          "internalType": "string",
          "name": "",
          "type": "string"
        }
      ],
      "payable": false,
      "stateMutability": "view",
      "type": "function"
    },
    {
      "constant": true,
      "inputs": [
        {
          "internalType": "uint256",
          "name": "_electionId",
          "type": "uint256"
        }
      ],
      "name": "getElectionEndDate",
      "outputs": [
        {
          "internalType": "string",
          "name": "",
          "type": "string"
        }
      ],
      "payable": false,
      "stateMutability": "view",
      "type": "function"
    },
    {
      "constant": true,
      "inputs": [
        {
          "internalType": "uint256",
          "name": "_electionId",
          "type": "uint256"
        }
      ],
      "name": "getElectionDomainFilter",
      "outputs": [
        {
          "internalType": "string",
          "name": "",
          "type": "string"
        }
      ],
      "payable": false,
      "stateMutability": "view",
      "type": "function"
    },
    {
      "constant": true,
      "inputs": [
        {
          "internalType": "uint256",
          "name": "_electionId",
          "type": "uint256"
        }
      ],
      "name": "getElectionStatus",
      "outputs": [
        {
          "internalType": "bool",
          "name": "",
          "type": "bool"
        }
      ],
      "payable": false,
      "stateMutability": "view",
      "type": "function"
    },
    {
      "constant": false,
      "inputs": [
        {
          "internalType": "uint256",
          "name": "_electionId",
          "type": "uint256"
        },
        {
          "internalType": "string",
          "name": "_candidateName",
          "type": "string"
        },
        {
          "internalType": "string",
          "name": "_candidatePosition",
          "type": "string"
        },
        {
          "internalType": "string",
          "name": "_platform",
          "type": "string"
        }
      ],
      "name": "addCandidate",
      "outputs": [],
      "payable": false,
      "stateMutability": "nonpayable",
      "type": "function"
    },
    {
      "constant": false,
      "inputs": [
        {
          "internalType": "uint256",
          "name": "_electionId",
          "type": "uint256"
        },
        {
          "internalType": "uint256",
          "name": "_candidateIndex",
          "type": "uint256"
        },
        {
          "internalType": "string",
          "name": "_newName",
          "type": "string"
        },
        {
          "internalType": "string",
          "name": "_newPosition",
          "type": "string"
        },
        {
          "internalType": "string",
          "name": "_newPlatform",
          "type": "string"
        }
      ],
      "name": "updateCandidateInfo",
      "outputs": [],
      "payable": false,
      "stateMutability": "nonpayable",
      "type": "function"
    },
    {
      "constant": false,
      "inputs": [
        {
          "internalType": "uint256",
          "name": "_electionId",
          "type": "uint256"
        },
        {
          "internalType": "uint256",
          "name": "_candidateIndex",
          "type": "uint256"
        }
      ],
      "name": "deleteCandidate",
      "outputs": [],
      "payable": false,
      "stateMutability": "nonpayable",
      "type": "function"
    },
    {
      "constant": true,
      "inputs": [
        {
          "internalType": "uint256",
          "name": "_electionId",
          "type": "uint256"
        }
      ],
      "name": "getCandidatesCount",
      "outputs": [
        {
          "internalType": "uint256",
          "name": "",
          "type": "uint256"
        }
      ],
      "payable": false,
      "stateMutability": "view",
      "type": "function"
    },
    {
      "constant": true,
      "inputs": [
        {
          "internalType": "uint256",
          "name": "_electionId",
          "type": "uint256"
        },
        {
          "internalType": "uint256",
          "name": "_candidateIndex",
          "type": "uint256"
        }
      ],
      "name": "getCandidateName",
      "outputs": [
        {
          "internalType": "string",
          "name": "",
          "type": "string"
        }
      ],
      "payable": false,
      "stateMutability": "view",
      "type": "function"
    },
    {
      "constant": true,
      "inputs": [
        {
          "internalType": "uint256",
          "name": "_electionId",
          "type": "uint256"
        },
        {
          "internalType": "uint256",
          "name": "_candidateIndex",
          "type": "uint256"
        }
      ],
      "name": "getCandidatePosition",
      "outputs": [
        {
          "internalType": "string",
          "name": "",
          "type": "string"
        }
      ],
      "payable": false,
      "stateMutability": "view",
      "type": "function"
    },
    {
      "constant": true,
      "inputs": [
        {
          "internalType": "uint256",
          "name": "_electionId",
          "type": "uint256"
        },
        {
          "internalType": "uint256",
          "name": "_candidateIndex",
          "type": "uint256"
        }
      ],
      "name": "getCandidatePlatform",
      "outputs": [
        {
          "internalType": "string",
          "name": "",
          "type": "string"
        }
      ],
      "payable": false,
      "stateMutability": "view",
      "type": "function"
    },
    {
      "constant": true,
      "inputs": [
        {
          "internalType": "uint256",
          "name": "_electionId",
          "type": "uint256"
        }
      ],
      "name": "getCandidateNames",
      "outputs": [
        {
          "internalType": "string[]",
          "name": "",
          "type": "string[]"
        }
      ],
      "payable": false,
      "stateMutability": "view",
      "type": "function"
    },
    {
      "constant": false,
      "inputs": [
        {
          "internalType": "string",
          "name": "orgName",
          "type": "string"
        },
        {
          "internalType": "string",
          "name": "name",
          "type": "string"
        },
        {
          "internalType": "string",
          "name": "email",
          "type": "string"
        }
      ],
      "name": "addOrg",
      "outputs": [],
      "payable": false,
      "stateMutability": "nonpayable",
      "type": "function"
    },
    {
      "constant": true,
      "inputs": [
        {
          "internalType": "address",
          "name": "orgAddress",
          "type": "address"
        }
      ],
      "name": "isOrg",
      "outputs": [
        {
          "internalType": "bool",
          "name": "",
          "type": "bool"
        }
      ],
      "payable": false,
      "stateMutability": "view",
      "type": "function"
    },
    {
      "constant": true,
      "inputs": [
        {
          "internalType": "address",
          "name": "orgAddress",
          "type": "address"
        }
      ],
      "name": "getOrgName",
      "outputs": [
        {
          "internalType": "string",
          "name": "",
          "type": "string"
        }
      ],
      "payable": false,
      "stateMutability": "view",
      "type": "function"
    },
    {
      "constant": true,
      "inputs": [
        {
          "internalType": "address",
          "name": "orgAddress",
          "type": "address"
        }
      ],
      "name": "getOrgUserName",
      "outputs": [
        {
          "internalType": "string",
          "name": "",
          "type": "string"
        }
      ],
      "payable": false,
      "stateMutability": "view",
      "type": "function"
    },
    {
      "constant": true,
      "inputs": [
        {
          "internalType": "address",
          "name": "orgAddress",
          "type": "address"
        }
      ],
      "name": "getOrgEmail",
      "outputs": [
        {
          "internalType": "string",
          "name": "",
          "type": "string"
        }
      ],
      "payable": false,
      "stateMutability": "view",
      "type": "function"
    },
    {
      "constant": false,
      "inputs": [
        {
          "internalType": "address",
          "name": "orgAddress",
          "type": "address"
        },
        {
          "internalType": "string",
          "name": "newOrgName",
          "type": "string"
        },
        {
          "internalType": "string",
          "name": "newUserName",
          "type": "string"
        },
        {
          "internalType": "string",
          "name": "newEmail",
          "type": "string"
        }
      ],
      "name": "updateOrgDetails",
      "outputs": [],
      "payable": false,
      "stateMutability": "nonpayable",
      "type": "function"
    },
    {
      "constant": true,
      "inputs": [],
      "name": "getUserAddress",
      "outputs": [
        {
          "internalType": "address",
          "name": "",
          "type": "address"
        }
      ],
      "payable": false,
      "stateMutability": "view",
      "type": "function"
    },
    {
      "constant": false,
      "inputs": [
        {
          "internalType": "address",
          "name": "userAddress",
          "type": "address"
        },
        {
          "internalType": "string",
          "name": "userName",
          "type": "string"
        },
        {
          "internalType": "string",
          "name": "email",
          "type": "string"
        }
      ],
      "name": "addUser",
      "outputs": [],
      "payable": false,
      "stateMutability": "nonpayable",
      "type": "function"
    },
    {
      "constant": true,
      "inputs": [
        {
          "internalType": "address",
          "name": "userAddress",
          "type": "address"
        }
      ],
      "name": "isUser",
      "outputs": [
        {
          "internalType": "bool",
          "name": "",
          "type": "bool"
        }
      ],
      "payable": false,
      "stateMutability": "view",
      "type": "function"
    },
    {
      "constant": true,
      "inputs": [
        {
          "internalType": "address",
          "name": "userAddress",
          "type": "address"
        }
      ],
      "name": "getUserName",
      "outputs": [
        {
          "internalType": "string",
          "name": "",
          "type": "string"
        }
      ],
      "payable": false,
      "stateMutability": "view",
      "type": "function"
    },
    {
      "constant": true,
      "inputs": [
        {
          "internalType": "address",
          "name": "userAddress",
          "type": "address"
        }
      ],
      "name": "getEmail",
      "outputs": [
        {
          "internalType": "string",
          "name": "",
          "type": "string"
        }
      ],
      "payable": false,
      "stateMutability": "view",
      "type": "function"
    },
    {
      "constant": false,
      "inputs": [
        {
          "internalType": "address",
          "name": "userAddress",
          "type": "address"
        },
        {
          "internalType": "string",
          "name": "newUserName",
          "type": "string"
        },
        {
          "internalType": "string",
          "name": "newEmail",
          "type": "string"
        }
      ],
      "name": "updateUser",
      "outputs": [],
      "payable": false,
      "stateMutability": "nonpayable",
      "type": "function"
    },
    {
      "constant": true,
      "inputs": [],
      "name": "getOwnerAddress",
      "outputs": [
        {
          "internalType": "address",
          "name": "",
          "type": "address"
        }
      ],
      "payable": false,
      "stateMutability": "view",
      "type": "function"
    },
    {
      "constant": false,
      "inputs": [
        {
          "internalType": "uint256",
          "name": "_electionId",
          "type": "uint256"
        },
        {
          "internalType": "uint256[]",
          "name": "_candidateIndexes",
          "type": "uint256[]"
        }
      ],
      "name": "Vote",
      "outputs": [],
      "payable": false,
      "stateMutability": "nonpayable",
      "type": "function"
    }
  ],
  "bytecode": "0x608060405234801561001057600080fd5b5033600260006101000a81548173ffffffffffffffffffffffffffffffffffffffff021916908373ffffffffffffffffffffffffffffffffffffffff160217905550615352806100616000396000f3fe608060405234801561001057600080fd5b50600436106102535760003560e01c80638ac7775b11610146578063ce4a2743116100c3578063e220cde511610087578063e220cde514610804578063e8ededa614610822578063ebc3eee814610853578063ee96e3be14610871578063fa3dd69c146108a1578063fad178fe146108d157610253565b8063ce4a274314610764578063cea6a72c14610780578063cf4a60601461079c578063d7554a68146107b8578063d84f55ee146107d457610253565b8063b024419e1161010a578063b024419e14610686578063b476cbce146106b6578063bbc0c1a2146106e8578063bec9e91114610704578063c89782a21461073457610253565b80638ac7775b146105bb5780638ed9df77146105d757806393a9aa8114610607578063997d283014610637578063a87430ba1461065557610253565b80634fa7353c116101d45780636c628127116101985780636c628127146104df5780637718d1371461050f5780637a372c021461052b5780637eb507d71461055b578063840e73f81461058b57610253565b80634fa7353c146103ff57806352675be31461042f5780635bef3e401461045f5780635e6fef011461048f5780636c24296e146104c357610253565b80631e5862b51161021b5780631e5862b51461030f57806324785b9e1461033f5780632ed374091461036f5780633ee95f001461039f5780634209fff1146103cf57610253565b806309e33d07146102585780630c4f65bd1461027457806310e8b22d1461029257806319f4dea8146102ae5780631d8af509146102de575b600080fd5b610272600480360361026d9190810190614321565b6108ed565b005b61027c610a93565b6040516102899190614cac565b60405180910390f35b6102ac60048036036102a79190810190614061565b610abd565b005b6102c860048036036102c39190810190613fe4565b610b96565b6040516102d59190614d2d565b60405180910390f35b6102f860048036036102f3919081019061418b565b610bf7565b60405161030692919061500c565b60405180910390f35b61032960048036036103249190810190613fe4565b610ccd565b6040516103369190614ce9565b60405180910390f35b61035960048036036103549190810190614321565b610e17565b6040516103669190614d2d565b60405180910390f35b61038960048036036103849190810190613fe4565b610e94565b6040516103969190614d48565b60405180910390f35b6103b960048036036103b49190810190614321565b610f77565b6040516103c69190614fb3565b60405180910390f35b6103e960048036036103e49190810190613fe4565b610fea565b6040516103f69190614d2d565b60405180910390f35b61041960048036036104149190810190613fe4565b61104c565b6040516104269190614d48565b60405180910390f35b61044960048036036104449190810190614321565b6110e4565b6040516104569190614d48565b60405180910390f35b61047960048036036104749190810190613fe4565b6111ed565b6040516104869190614cc7565b60405180910390f35b6104a960048036036104a49190810190614321565b6113a0565b6040516104ba959493929190614da1565b60405180910390f35b6104dd60048036036104d8919081019061425e565b611643565b005b6104f960048036036104f49190810190613fe4565b61182e565b6040516105069190614d48565b60405180910390f35b6105296004803603610524919081019061455c565b611911565b005b61054560048036036105409190810190614520565b611ba8565b6040516105529190614d48565b60405180910390f35b61057560048036036105709190810190614321565b611d29565b6040516105829190614cc7565b60405180910390f35b6105a560048036036105a09190810190614321565b611edb565b6040516105b29190614d48565b60405180910390f35b6105d560048036036105d091908101906140e0565b611fe4565b005b6105f160048036036105ec9190810190614321565b612134565b6040516105fe9190614d48565b60405180910390f35b610621600480360361061c9190810190614520565b61223d565b60405161062e9190614d48565b60405180910390f35b61063f6123be565b60405161064c9190614fb3565b60405180910390f35b61066f600480360361066a9190810190613fe4565b6123c4565b60405161067d929190614e10565b60405180910390f35b6106a0600480360361069b9190810190614520565b612518565b6040516106ad9190614d48565b60405180910390f35b6106d060048036036106cb9190810190613fe4565b612699565b6040516106df93929190614e47565b60405180910390f35b61070260048036036106fd91908101906141c7565b61288b565b005b61071e6004803603610719919081019061400d565b612943565b60405161072b9190614fb3565b60405180910390f35b61074e60048036036107499190810190613fe4565b612a4f565b60405161075b9190614d48565b60405180910390f35b61077e6004803603610779919081019061439e565b612b32565b005b61079a60048036036107959190810190614449565b612ddc565b005b6107b660048036036107b19190810190614520565b613099565b005b6107d260048036036107cd9190810190614061565b6133c7565b005b6107ee60048036036107e99190810190613fe4565b6134f6565b6040516107fb9190614d48565b60405180910390f35b61080c61358e565b6040516108199190614cc7565b60405180910390f35b61083c60048036036108379190810190614321565b6136b8565b60405161084a929190614d6a565b60405180910390f35b61085b613866565b6040516108689190614cac565b60405180910390f35b61088b60048036036108869190810190613fe4565b61386e565b6040516108989190614d0b565b60405180910390f35b6108bb60048036036108b69190810190614321565b613985565b6040516108c89190614d48565b60405180910390f35b6108eb60048036036108e6919081019061434a565b613a8e565b005b60008060003373ffffffffffffffffffffffffffffffffffffffff1673ffffffffffffffffffffffffffffffffffffffff168152602001908152602001600020600001805460018160011615610100020316600290049050118061099e5750600260009054906101000a900473ffffffffffffffffffffffffffffffffffffffff1673ffffffffffffffffffffffffffffffffffffffff163373ffffffffffffffffffffffffffffffffffffffff16145b6109dd576040517f08c379a00000000000000000000000000000000000000000000000000000000081526004016109d490614f93565b60405180910390fd5b6000811180156109ef57506005548111155b8015610a225750600115156004600083815260200190815260200160002060010160009054906101000a900460ff161515145b610a61576040517f08c379a0000000000000000000000000000000000000000000000000000000008152600401610a5890614ef3565b60405180910390fd5b60006004600083815260200190815260200160002060010160006101000a81548160ff02191690831515021790555050565b6000600260009054906101000a900473ffffffffffffffffffffffffffffffffffffffff16905090565b610ac683610fea565b610b05576040517f08c379a0000000000000000000000000000000000000000000000000000000008152600401610afc90614f53565b60405180910390fd5b6000600360008573ffffffffffffffffffffffffffffffffffffffff1673ffffffffffffffffffffffffffffffffffffffff1681526020019081526020016000209050600083511115610b6c5782816000019080519060200190610b6a929190613cef565b505b600082511115610b905781816001019080519060200190610b8e929190613cef565b505b50505050565b6000806000808473ffffffffffffffffffffffffffffffffffffffff1673ffffffffffffffffffffffffffffffffffffffff168152602001908152602001600020600001805460018160011615610100020316600290049050119050919050565b60016020528160005260406000208181548110610c1057fe5b906000526020600020906002020160009150915050806000015490806001018054600181600116156101000203166002900480601f016020809104026020016040519081016040528092919081815260200182805460018160011615610100020316600290048015610cc35780601f10610c9857610100808354040283529160200191610cc3565b820191906000526020600020905b815481529060010190602001808311610ca657829003601f168201915b5050505050905082565b6060600160008373ffffffffffffffffffffffffffffffffffffffff1673ffffffffffffffffffffffffffffffffffffffff168152602001908152602001600020805480602002602001604051908101604052809291908181526020016000905b82821015610e0c578382906000526020600020906002020160405180604001604052908160008201548152602001600182018054600181600116156101000203166002900480601f016020809104026020016040519081016040528092919081815260200182805460018160011615610100020316600290048015610df45780601f10610dc957610100808354040283529160200191610df4565b820191906000526020600020905b815481529060010190602001808311610dd757829003601f168201915b50505050508152505081526020019060010190610d2e565b505050509050919050565b60008082118015610e2a57506005548211155b610e69576040517f08c379a0000000000000000000000000000000000000000000000000000000008152600401610e6090614eb3565b60405180910390fd5b6004600083815260200190815260200160002060010160009054906101000a900460ff169050919050565b60606000808373ffffffffffffffffffffffffffffffffffffffff1673ffffffffffffffffffffffffffffffffffffffff1681526020019081526020016000206001018054600181600116156101000203166002900480601f016020809104026020016040519081016040528092919081815260200182805460018160011615610100020316600290048015610f6b5780601f10610f4057610100808354040283529160200191610f6b565b820191906000526020600020905b815481529060010190602001808311610f4e57829003601f168201915b50505050509050919050565b60008082118015610f8a57506005548211155b610fc9576040517f08c379a0000000000000000000000000000000000000000000000000000000008152600401610fc090614eb3565b60405180910390fd5b60046000838152602001908152602001600020600201805490509050919050565b600080600360008473ffffffffffffffffffffffffffffffffffffffff1673ffffffffffffffffffffffffffffffffffffffff168152602001908152602001600020600001805460018160011615610100020316600290049050119050919050565b60606000600360008473ffffffffffffffffffffffffffffffffffffffff1673ffffffffffffffffffffffffffffffffffffffff168152602001908152602001600020905060008160010180546001816001161561010002031660029004905011156110dd57806001016040516020016110c69190614c95565b6040516020818303038152906040529150506110df565b505b919050565b60606000821180156110f857506005548211155b611137576040517f08c379a000000000000000000000000000000000000000000000000000000000815260040161112e90614eb3565b60405180910390fd5b600460008381526020019081526020016000206000018054600181600116156101000203166002900480601f0160208091040260200160405190810160405280929190818152602001828054600181600116156101000203166002900480156111e15780601f106111b6576101008083540402835291602001916111e1565b820191906000526020600020905b8154815290600101906020018083116111c457829003601f168201915b50505050509050919050565b60606000600160008473ffffffffffffffffffffffffffffffffffffffff1673ffffffffffffffffffffffffffffffffffffffff16815260200190815260200160002080549050905060608160405190808252806020026020018201604052801561126c57816020015b60608152602001906001900390816112575790505b50905060008090505b8281101561139557600160008673ffffffffffffffffffffffffffffffffffffffff1673ffffffffffffffffffffffffffffffffffffffff16815260200190815260200160002081815481106112c757fe5b90600052602060002090600202016001018054600181600116156101000203166002900480601f01602080910402602001604051908101604052809291908181526020018280546001816001161561010002031660029004801561136c5780601f106113415761010080835404028352916020019161136c565b820191906000526020600020905b81548152906001019060200180831161134f57829003601f168201915b505050505082828151811061137d57fe5b60200260200101819052508080600101915050611275565b508092505050919050565b6004602052806000526040600020600091509050806000018054600181600116156101000203166002900480601f01602080910402602001604051908101604052809291908181526020018280546001816001161561010002031660029004801561144c5780601f106114215761010080835404028352916020019161144c565b820191906000526020600020905b81548152906001019060200180831161142f57829003601f168201915b5050505050908060010160009054906101000a900460ff1690806003018054600181600116156101000203166002900480601f0160208091040260200160405190810160405280929190818152602001828054600181600116156101000203166002900480156114fd5780601f106114d2576101008083540402835291602001916114fd565b820191906000526020600020905b8154815290600101906020018083116114e057829003601f168201915b505050505090806004018054600181600116156101000203166002900480601f01602080910402602001604051908101604052809291908181526020018280546001816001161561010002031660029004801561159b5780601f106115705761010080835404028352916020019161159b565b820191906000526020600020905b81548152906001019060200180831161157e57829003601f168201915b505050505090806005018054600181600116156101000203166002900480601f0160208091040260200160405190810160405280929190818152602001828054600181600116156101000203166002900480156116395780601f1061160e57610100808354040283529160200191611639565b820191906000526020600020905b81548152906001019060200180831161161c57829003601f168201915b5050505050905085565b60008060003373ffffffffffffffffffffffffffffffffffffffff1673ffffffffffffffffffffffffffffffffffffffff16815260200190815260200160002060000180546001816001161561010002031660029004905011806116f45750600260009054906101000a900473ffffffffffffffffffffffffffffffffffffffff1673ffffffffffffffffffffffffffffffffffffffff163373ffffffffffffffffffffffffffffffffffffffff16145b611733576040517f08c379a000000000000000000000000000000000000000000000000000000000815260040161172a90614f93565b60405180910390fd5b6005600081548092919060010191905055506000600460006005548152602001908152602001600020905084816000019080519060200190611776929190613cef565b5060018160010160006101000a81548160ff021916908315150217905550838160030190805190602001906117ac929190613cef565b50828160040190805190602001906117c5929190613cef565b50818160050190805190602001906117de929190613cef565b506117ec3360055487613c41565b7f52be7c4e77b4de76b7607d621492061fe13b58597e72dfb5e51ab8f6187ed1416005548660405161181f92919061503c565b60405180910390a15050505050565b60606000808373ffffffffffffffffffffffffffffffffffffffff1673ffffffffffffffffffffffffffffffffffffffff1681526020019081526020016000206002018054600181600116156101000203166002900480601f0160208091040260200160405190810160405280929190818152602001828054600181600116156101000203166002900480156119055780601f106118da57610100808354040283529160200191611905565b820191906000526020600020905b8154815290600101906020018083116118e857829003601f168201915b50505050509050919050565b60008060003373ffffffffffffffffffffffffffffffffffffffff1673ffffffffffffffffffffffffffffffffffffffff16815260200190815260200160002060000180546001816001161561010002031660029004905011806119c25750600260009054906101000a900473ffffffffffffffffffffffffffffffffffffffff1673ffffffffffffffffffffffffffffffffffffffff163373ffffffffffffffffffffffffffffffffffffffff16145b611a01576040517f08c379a00000000000000000000000000000000000000000000000000000000081526004016119f890614f93565b60405180910390fd5b600085118015611a1357506005548511155b611a52576040517f08c379a0000000000000000000000000000000000000000000000000000000008152600401611a4990614eb3565b60405180910390fd5b60046000868152602001908152602001600020600201805490508410611aad576040517f08c379a0000000000000000000000000000000000000000000000000000000008152600401611aa490614f13565b60405180910390fd5b6000600460008781526020019081526020016000206002018581548110611ad057fe5b90600052602060002090600402019050838051906020012081600001604051611af99190614c7e565b604051809103902014611b205783816000019080519060200190611b1e929190613cef565b505b828051906020012081600101604051611b399190614c7e565b604051809103902014611b605782816001019080519060200190611b5e929190613cef565b505b818051906020012081600201604051611b799190614c7e565b604051809103902014611ba05781816002019080519060200190611b9e929190613cef565b505b505050505050565b6060600083118015611bbc57506005548311155b611bfb576040517f08c379a0000000000000000000000000000000000000000000000000000000008152600401611bf290614eb3565b60405180910390fd5b60046000848152602001908152602001600020600201805490508210611c56576040517f08c379a0000000000000000000000000000000000000000000000000000000008152600401611c4d90614f13565b60405180910390fd5b600460008481526020019081526020016000206002018281548110611c7757fe5b90600052602060002090600402016001018054600181600116156101000203166002900480601f016020809104026020016040519081016040528092919081815260200182805460018160011615610100020316600290048015611d1c5780601f10611cf157610100808354040283529160200191611d1c565b820191906000526020600020905b815481529060010190602001808311611cff57829003601f168201915b5050505050905092915050565b6060600082118015611d3d57506005548211155b611d7c576040517f08c379a0000000000000000000000000000000000000000000000000000000008152600401611d7390614eb3565b60405180910390fd5b600060046000848152602001908152602001600020600201805490509050606081604051908082528060200260200182016040528015611dd057816020015b6060815260200190600190039081611dbb5790505b50905060008090505b82811015611ed057600460008681526020019081526020016000206002018181548110611e0257fe5b90600052602060002090600402016000018054600181600116156101000203166002900480601f016020809104026020016040519081016040528092919081815260200182805460018160011615610100020316600290048015611ea75780601f10611e7c57610100808354040283529160200191611ea7565b820191906000526020600020905b815481529060010190602001808311611e8a57829003601f168201915b5050505050828281518110611eb857fe5b60200260200101819052508080600101915050611dd9565b508092505050919050565b6060600082118015611eef57506005548211155b611f2e576040517f08c379a0000000000000000000000000000000000000000000000000000000008152600401611f2590614eb3565b60405180910390fd5b600460008381526020019081526020016000206005018054600181600116156101000203166002900480601f016020809104026020016040519081016040528092919081815260200182805460018160011615610100020316600290048015611fd85780601f10611fad57610100808354040283529160200191611fd8565b820191906000526020600020905b815481529060010190602001808311611fbb57829003601f168201915b50505050509050919050565b611fed84610b96565b61202c576040517f08c379a000000000000000000000000000000000000000000000000000000000815260040161202390614e93565b60405180910390fd5b826000808673ffffffffffffffffffffffffffffffffffffffff1673ffffffffffffffffffffffffffffffffffffffff1681526020019081526020016000206000019080519060200190612081929190613cef565b50816000808673ffffffffffffffffffffffffffffffffffffffff1673ffffffffffffffffffffffffffffffffffffffff16815260200190815260200160002060010190805190602001906120d7929190613cef565b50806000808673ffffffffffffffffffffffffffffffffffffffff1673ffffffffffffffffffffffffffffffffffffffff168152602001908152602001600020600201908051906020019061212d929190613cef565b5050505050565b606060008211801561214857506005548211155b612187576040517f08c379a000000000000000000000000000000000000000000000000000000000815260040161217e90614eb3565b60405180910390fd5b600460008381526020019081526020016000206003018054600181600116156101000203166002900480601f0160208091040260200160405190810160405280929190818152602001828054600181600116156101000203166002900480156122315780601f1061220657610100808354040283529160200191612231565b820191906000526020600020905b81548152906001019060200180831161221457829003601f168201915b50505050509050919050565b606060008311801561225157506005548311155b612290576040517f08c379a000000000000000000000000000000000000000000000000000000000815260040161228790614eb3565b60405180910390fd5b600460008481526020019081526020016000206002018054905082106122eb576040517f08c379a00000000000000000000000000000000000000000000000000000000081526004016122e290614f13565b60405180910390fd5b60046000848152602001908152602001600020600201828154811061230c57fe5b90600052602060002090600402016002018054600181600116156101000203166002900480601f0160208091040260200160405190810160405280929190818152602001828054600181600116156101000203166002900480156123b15780601f10612386576101008083540402835291602001916123b1565b820191906000526020600020905b81548152906001019060200180831161239457829003601f168201915b5050505050905092915050565b60055481565b6003602052806000526040600020600091509050806000018054600181600116156101000203166002900480601f0160208091040260200160405190810160405280929190818152602001828054600181600116156101000203166002900480156124705780601f1061244557610100808354040283529160200191612470565b820191906000526020600020905b81548152906001019060200180831161245357829003601f168201915b505050505090806001018054600181600116156101000203166002900480601f01602080910402602001604051908101604052809291908181526020018280546001816001161561010002031660029004801561250e5780601f106124e35761010080835404028352916020019161250e565b820191906000526020600020905b8154815290600101906020018083116124f157829003601f168201915b5050505050905082565b606060008311801561252c57506005548311155b61256b576040517f08c379a000000000000000000000000000000000000000000000000000000000815260040161256290614eb3565b60405180910390fd5b600460008481526020019081526020016000206002018054905082106125c6576040517f08c379a00000000000000000000000000000000000000000000000000000000081526004016125bd90614f13565b60405180910390fd5b6004600084815260200190815260200160002060020182815481106125e757fe5b90600052602060002090600402016000018054600181600116156101000203166002900480601f01602080910402602001604051908101604052809291908181526020018280546001816001161561010002031660029004801561268c5780601f106126615761010080835404028352916020019161268c565b820191906000526020600020905b81548152906001019060200180831161266f57829003601f168201915b5050505050905092915050565b6000602052806000526040600020600091509050806000018054600181600116156101000203166002900480601f0160208091040260200160405190810160405280929190818152602001828054600181600116156101000203166002900480156127455780601f1061271a57610100808354040283529160200191612745565b820191906000526020600020905b81548152906001019060200180831161272857829003601f168201915b505050505090806001018054600181600116156101000203166002900480601f0160208091040260200160405190810160405280929190818152602001828054600181600116156101000203166002900480156127e35780601f106127b8576101008083540402835291602001916127e3565b820191906000526020600020905b8154815290600101906020018083116127c657829003601f168201915b505050505090806002018054600181600116156101000203166002900480601f0160208091040260200160405190810160405280929190818152602001828054600181600116156101000203166002900480156128815780601f1061285657610100808354040283529160200191612881565b820191906000526020600020905b81548152906001019060200180831161286457829003601f168201915b5050505050905083565b6040518060600160405280848152602001838152602001828152506000803373ffffffffffffffffffffffffffffffffffffffff1673ffffffffffffffffffffffffffffffffffffffff1681526020019081526020016000206000820151816000019080519060200190612900929190613d6f565b50602082015181600101908051906020019061291d929190613d6f565b50604082015181600201908051906020019061293a929190613d6f565b50905050505050565b600080600160008573ffffffffffffffffffffffffffffffffffffffff1673ffffffffffffffffffffffffffffffffffffffff168152602001908152602001600020905060008090505b8180549050811015612a0d5783805190602001208282815481106129ad57fe5b90600052602060002090600202016001016040516129cb9190614c7e565b60405180910390201415612a00578181815481106129e557fe5b90600052602060002090600202016000015492505050612a49565b808060010191505061298d565b506040517f08c379a0000000000000000000000000000000000000000000000000000000008152600401612a4090614f33565b60405180910390fd5b92915050565b60606000808373ffffffffffffffffffffffffffffffffffffffff1673ffffffffffffffffffffffffffffffffffffffff1681526020019081526020016000206000018054600181600116156101000203166002900480601f016020809104026020016040519081016040528092919081815260200182805460018160011615610100020316600290048015612b265780601f10612afb57610100808354040283529160200191612b26565b820191906000526020600020905b815481529060010190602001808311612b0957829003601f168201915b50505050509050919050565b60008060003373ffffffffffffffffffffffffffffffffffffffff1673ffffffffffffffffffffffffffffffffffffffff1681526020019081526020016000206000018054600181600116156101000203166002900490501180612be35750600260009054906101000a900473ffffffffffffffffffffffffffffffffffffffff1673ffffffffffffffffffffffffffffffffffffffff163373ffffffffffffffffffffffffffffffffffffffff16145b612c22576040517f08c379a0000000000000000000000000000000000000000000000000000000008152600401612c1990614f93565b60405180910390fd5b600084118015612c3457506005548411155b612c73576040517f08c379a0000000000000000000000000000000000000000000000000000000008152600401612c6a90614eb3565b60405180910390fd5b6004600085815260200190815260200160002060010160009054906101000a900460ff16612cd6576040517f08c379a0000000000000000000000000000000000000000000000000000000008152600401612ccd90614f73565b60405180910390fd5b6004600085815260200190815260200160002060020160405180608001604052808581526020018481526020018381526020016000815250908060018154018082558091505090600182039060005260206000209060040201600090919290919091506000820151816000019080519060200190612d55929190613d6f565b506020820151816001019080519060200190612d72929190613d6f565b506040820151816002019080519060200190612d8f929190613d6f565b50606082015181600301555050507fe83b2a43e7e82d975c8a0a6d2f045153c869e111136a34d1889ab7b598e396a38484604051612dce92919061503c565b60405180910390a150505050565b60008060003373ffffffffffffffffffffffffffffffffffffffff1673ffffffffffffffffffffffffffffffffffffffff1681526020019081526020016000206000018054600181600116156101000203166002900490501180612e8d5750600260009054906101000a900473ffffffffffffffffffffffffffffffffffffffff1673ffffffffffffffffffffffffffffffffffffffff163373ffffffffffffffffffffffffffffffffffffffff16145b612ecc576040517f08c379a0000000000000000000000000000000000000000000000000000000008152600401612ec390614f93565b60405180910390fd5b600085118015612ede57506005548511155b612f1d576040517f08c379a0000000000000000000000000000000000000000000000000000000008152600401612f1490614eb3565b60405180910390fd5b600060046000878152602001908152602001600020905084816000019080519060200190612f4c929190613cef565b5083816003019080519060200190612f65929190613cef565b5082816004019080519060200190612f7e929190613cef565b5081816005019080519060200190612f97929190613cef565b506000600160003373ffffffffffffffffffffffffffffffffffffffff1673ffffffffffffffffffffffffffffffffffffffff168152602001908152602001600020905060008090505b81805490508110156130565787828281548110612ffa57fe5b9060005260206000209060020201600001541415613049578682828154811061301f57fe5b90600052602060002090600202016001019080519060200190613043929190613cef565b50613056565b8080600101915050612fe1565b507f52be7c4e77b4de76b7607d621492061fe13b58597e72dfb5e51ab8f6187ed141878760405161308892919061503c565b60405180910390a150505050505050565b60008060003373ffffffffffffffffffffffffffffffffffffffff1673ffffffffffffffffffffffffffffffffffffffff168152602001908152602001600020600001805460018160011615610100020316600290049050118061314a5750600260009054906101000a900473ffffffffffffffffffffffffffffffffffffffff1673ffffffffffffffffffffffffffffffffffffffff163373ffffffffffffffffffffffffffffffffffffffff16145b613189576040517f08c379a000000000000000000000000000000000000000000000000000000000815260040161318090614f93565b60405180910390fd5b60008211801561319b57506005548211155b6131da576040517f08c379a00000000000000000000000000000000000000000000000000000000081526004016131d190614eb3565b60405180910390fd5b60046000838152602001908152602001600020600201805490508110613235576040517f08c379a000000000000000000000000000000000000000000000000000000000815260040161322c90614f13565b60405180910390fd5b60008190505b60016004600085815260200190815260200160002060020180549050038110156133525760046000848152602001908152602001600020600201600182018154811061328357fe5b90600052602060002090600402016004600085815260200190815260200160002060020182815481106132b257fe5b9060005260206000209060040201600082018160000190805460018160011615610100020316600290046132e7929190613def565b506001820181600101908054600181600116156101000203166002900461330f929190613def565b5060028201816002019080546001816001161561010002031660029004613337929190613def565b5060038201548160030155905050808060010191505061323b565b506004600083815260200190815260200160002060020180548061337257fe5b6001900381819060005260206000209060040201600080820160006133979190613e76565b6001820160006133a79190613e76565b6002820160006133b79190613e76565b6003820160009055505090555050565b6000600360008573ffffffffffffffffffffffffffffffffffffffff1673ffffffffffffffffffffffffffffffffffffffff16815260200190815260200160002060000180546001816001161561010002031660029004905014613460576040517f08c379a000000000000000000000000000000000000000000000000000000000815260040161345790614ed3565b60405180910390fd5b604051806040016040528083815260200182815250600360008573ffffffffffffffffffffffffffffffffffffffff1673ffffffffffffffffffffffffffffffffffffffff16815260200190815260200160002060008201518160000190805190602001906134d0929190613d6f565b5060208201518160010190805190602001906134ed929190613d6f565b50905050505050565b60606000600360008473ffffffffffffffffffffffffffffffffffffffff1673ffffffffffffffffffffffffffffffffffffffff1681526020019081526020016000209050600081600001805460018160011615610100020316600290049050111561358757806000016040516020016135709190614c95565b604051602081830303815290604052915050613589565b505b919050565b6060806005546040519080825280602002602001820160405280156135c757816020015b60608152602001906001900390816135b25790505b50905060008090505b6005548110156136b057600460006001830181526020019081526020016000206000018054600181600116156101000203166002900480601f0160208091040260200160405190810160405280929190818152602001828054600181600116156101000203166002900480156136875780601f1061365c57610100808354040283529160200191613687565b820191906000526020600020905b81548152906001019060200180831161366a57829003601f168201915b505050505082828151811061369857fe5b602002602001018190525080806001019150506135d0565b508091505090565b6060806000831180156136cd57506005548311155b61370c576040517f08c379a000000000000000000000000000000000000000000000000000000000815260040161370390614eb3565b60405180910390fd5b60006004600085815260200190815260200160002090506060816002018054905060405190808252806020026020018201604052801561375b5781602001602082028038833980820191505090505b50905060008090505b82600201805490508110156137b95782600201818154811061378257fe5b9060005260206000209060040201600301548282815181106137a057fe5b6020026020010181815250508080600101915050613764565b508160000181818054600181600116156101000203166002900480601f0160208091040260200160405190810160405280929190818152602001828054600181600116156101000203166002900480156138545780601f1061382957610100808354040283529160200191613854565b820191906000526020600020905b81548152906001019060200180831161383757829003601f168201915b50505050509150935093505050915091565b600033905090565b60606000600160008473ffffffffffffffffffffffffffffffffffffffff1673ffffffffffffffffffffffffffffffffffffffff1681526020019081526020016000208054905090506060816040519080825280602002602001820160405280156138e85781602001602082028038833980820191505090505b50905060008090505b8281101561397a57600160008673ffffffffffffffffffffffffffffffffffffffff1673ffffffffffffffffffffffffffffffffffffffff168152602001908152602001600020818154811061394357fe5b90600052602060002090600202016000015482828151811061396157fe5b60200260200101818152505080806001019150506138f1565b508092505050919050565b606060008211801561399957506005548211155b6139d8576040517f08c379a00000000000000000000000000000000000000000000000000000000081526004016139cf90614eb3565b60405180910390fd5b600460008381526020019081526020016000206004018054600181600116156101000203166002900480601f016020809104026020016040519081016040528092919081815260200182805460018160011615610100020316600290048015613a825780601f10613a5757610100808354040283529160200191613a82565b820191906000526020600020905b815481529060010190602001808311613a6557829003601f168201915b50505050509050919050565b600082118015613aa057506005548211155b613adf576040517f08c379a0000000000000000000000000000000000000000000000000000000008152600401613ad690614eb3565b60405180910390fd5b60006004600084815260200190815260200160002090508060010160009054906101000a900460ff16613b47576040517f08c379a0000000000000000000000000000000000000000000000000000000008152600401613b3e90614f73565b60405180910390fd5b60008090505b8251811015613ba65781600201838281518110613b6657fe5b602002602001015181548110613b7857fe5b9060005260206000209060040201600301600081548092919060010191905055508080600101915050613b4d565b5060018160060160003373ffffffffffffffffffffffffffffffffffffffff1673ffffffffffffffffffffffffffffffffffffffff16815260200190815260200160002060006101000a81548160ff0219169083151502179055507f080e2b87a3c8996025fe2aa92236ac4f958879a65c31df1b67991f80294fde8e838333604051613c3493929190614fce565b60405180910390a1505050565b600160008473ffffffffffffffffffffffffffffffffffffffff1673ffffffffffffffffffffffffffffffffffffffff16815260200190815260200160002060405180604001604052808481526020018381525090806001815401808255809150509060018203906000526020600020906002020160009091929091909150600082015181600001556020820151816001019080519060200190613ce6929190613d6f565b50505050505050565b828054600181600116156101000203166002900490600052602060002090601f016020900481019282601f10613d3057805160ff1916838001178555613d5e565b82800160010185558215613d5e579182015b82811115613d5d578251825591602001919060010190613d42565b5b509050613d6b9190613ebe565b5090565b828054600181600116156101000203166002900490600052602060002090601f016020900481019282601f10613db057805160ff1916838001178555613dde565b82800160010185558215613dde579182015b82811115613ddd578251825591602001919060010190613dc2565b5b509050613deb9190613ebe565b5090565b828054600181600116156101000203166002900490600052602060002090601f016020900481019282601f10613e285780548555613e65565b82800160010185558215613e6557600052602060002091601f016020900482015b82811115613e64578254825591600101919060010190613e49565b5b509050613e729190613ebe565b5090565b50805460018160011615610100020316600290046000825580601f10613e9c5750613ebb565b601f016020900490600052602060002090810190613eba9190613ebe565b5b50565b613ee091905b80821115613edc576000816000905550600101613ec4565b5090565b90565b600081359050613ef2816152e1565b92915050565b600082601f830112613f0957600080fd5b8135613f1c613f1782615099565b61506c565b91508181835260208401935060208101905083856020840282011115613f4157600080fd5b60005b83811015613f715781613f578882613fcf565b845260208401935060208301925050600181019050613f44565b5050505092915050565b600082601f830112613f8c57600080fd5b8135613f9f613f9a826150c1565b61506c565b91508082526020830160208301858383011115613fbb57600080fd5b613fc683828461528e565b50505092915050565b600081359050613fde816152f8565b92915050565b600060208284031215613ff657600080fd5b600061400484828501613ee3565b91505092915050565b6000806040838503121561402057600080fd5b600061402e85828601613ee3565b925050602083013567ffffffffffffffff81111561404b57600080fd5b61405785828601613f7b565b9150509250929050565b60008060006060848603121561407657600080fd5b600061408486828701613ee3565b935050602084013567ffffffffffffffff8111156140a157600080fd5b6140ad86828701613f7b565b925050604084013567ffffffffffffffff8111156140ca57600080fd5b6140d686828701613f7b565b9150509250925092565b600080600080608085870312156140f657600080fd5b600061410487828801613ee3565b945050602085013567ffffffffffffffff81111561412157600080fd5b61412d87828801613f7b565b935050604085013567ffffffffffffffff81111561414a57600080fd5b61415687828801613f7b565b925050606085013567ffffffffffffffff81111561417357600080fd5b61417f87828801613f7b565b91505092959194509250565b6000806040838503121561419e57600080fd5b60006141ac85828601613ee3565b92505060206141bd85828601613fcf565b9150509250929050565b6000806000606084860312156141dc57600080fd5b600084013567ffffffffffffffff8111156141f657600080fd5b61420286828701613f7b565b935050602084013567ffffffffffffffff81111561421f57600080fd5b61422b86828701613f7b565b925050604084013567ffffffffffffffff81111561424857600080fd5b61425486828701613f7b565b9150509250925092565b6000806000806080858703121561427457600080fd5b600085013567ffffffffffffffff81111561428e57600080fd5b61429a87828801613f7b565b945050602085013567ffffffffffffffff8111156142b757600080fd5b6142c387828801613f7b565b935050604085013567ffffffffffffffff8111156142e057600080fd5b6142ec87828801613f7b565b925050606085013567ffffffffffffffff81111561430957600080fd5b61431587828801613f7b565b91505092959194509250565b60006020828403121561433357600080fd5b600061434184828501613fcf565b91505092915050565b6000806040838503121561435d57600080fd5b600061436b85828601613fcf565b925050602083013567ffffffffffffffff81111561438857600080fd5b61439485828601613ef8565b9150509250929050565b600080600080608085870312156143b457600080fd5b60006143c287828801613fcf565b945050602085013567ffffffffffffffff8111156143df57600080fd5b6143eb87828801613f7b565b935050604085013567ffffffffffffffff81111561440857600080fd5b61441487828801613f7b565b925050606085013567ffffffffffffffff81111561443157600080fd5b61443d87828801613f7b565b91505092959194509250565b600080600080600060a0868803121561446157600080fd5b600061446f88828901613fcf565b955050602086013567ffffffffffffffff81111561448c57600080fd5b61449888828901613f7b565b945050604086013567ffffffffffffffff8111156144b557600080fd5b6144c188828901613f7b565b935050606086013567ffffffffffffffff8111156144de57600080fd5b6144ea88828901613f7b565b925050608086013567ffffffffffffffff81111561450757600080fd5b61451388828901613f7b565b9150509295509295909350565b6000806040838503121561453357600080fd5b600061454185828601613fcf565b925050602061455285828601613fcf565b9150509250929050565b600080600080600060a0868803121561457457600080fd5b600061458288828901613fcf565b955050602061459388828901613fcf565b945050604086013567ffffffffffffffff8111156145b057600080fd5b6145bc88828901613f7b565b935050606086013567ffffffffffffffff8111156145d957600080fd5b6145e588828901613f7b565b925050608086013567ffffffffffffffff81111561460257600080fd5b61460e88828901613f7b565b9150509295509295909350565b60006146278383614897565b905092915050565b600061463b8383614c23565b905092915050565b600061464f8383614c60565b60208301905092915050565b61466481615258565b82525050565b61467381615210565b82525050565b600061468482615147565b61468e81856151a5565b9350836020820285016146a0856150ed565b8060005b858110156146dc57848403895281516146bd858261461b565b94506146c88361517e565b925060208a019950506001810190506146a4565b50829750879550505050505092915050565b60006146f982615152565b61470381856151b6565b935083602082028501614715856150fd565b8060005b858110156147515784840389528151614732858261462f565b945061473d8361518b565b925060208a01995050600181019050614719565b50829750879550505050505092915050565b600061476e8261515d565b61477881856151c7565b93506147838361510d565b8060005b838110156147b457815161479b8882614643565b97506147a683615198565b925050600181019050614787565b5085935050505092915050565b6147ca81615222565b82525050565b6000815460018116600081146147ed576001811461481257614856565b607f60028304166147fe81876151d8565b955060ff1983168652808601935050614856565b6002820461482081876151d8565b955061482b8561511d565b60005b8281101561484d5781548189015260018201915060208101905061482e565b82880195505050505b505092915050565b600061486982615173565b61487381856151f4565b935061488381856020860161529d565b61488c816152d0565b840191505092915050565b60006148a282615168565b6148ac81856151e3565b93506148bc81856020860161529d565b6148c5816152d0565b840191505092915050565b60006148db82615168565b6148e581856151f4565b93506148f581856020860161529d565b6148fe816152d0565b840191505092915050565b600081546001811660008114614926576001811461494b5761498f565b607f60028304166149378187615205565b955060ff198316865280860193505061498f565b600282046149598187615205565b955061496485615132565b60005b8281101561498657815481890152600182019150602081019050614967565b82880195505050505b505092915050565b60006149a46012836151f4565b91507f4f726720646f6573206e6f7420657869737400000000000000000000000000006000830152602082019050919050565b60006149e46017836151f4565b91507f456c656374696f6e20646f6573206e6f742065786973740000000000000000006000830152602082019050919050565b6000614a246013836151f4565b91507f5573657220616c726561647920657869737473000000000000000000000000006000830152602082019050919050565b6000614a646028836151f4565b91507f456c656374696f6e20646f6573206e6f74206578697374206f72206973206e6f60008301527f74206163746976650000000000000000000000000000000000000000000000006020830152604082019050919050565b6000614aca6018836151f4565b91507f43616e64696461746520646f6573206e6f7420657869737400000000000000006000830152602082019050919050565b6000614b0a6012836151f4565b91507f456c656374696f6e206e6f7420666f756e6400000000000000000000000000006000830152602082019050919050565b6000614b4a6013836151f4565b91507f5573657220646f6573206e6f74206578697374000000000000000000000000006000830152602082019050919050565b6000614b8a6016836151f4565b91507f456c656374696f6e206973206e6f7420616374697665000000000000000000006000830152602082019050919050565b6000614bca602a836151f4565b91507f4f6e6c7920746865206f7267616e697a65722063616e20706572666f726d207460008301527f68697320616374696f6e000000000000000000000000000000000000000000006020830152604082019050919050565b6000604083016000830151614c3b6000860182614c60565b5060208301518482036020860152614c538282614897565b9150508091505092915050565b614c698161524e565b82525050565b614c788161524e565b82525050565b6000614c8a82846147d0565b915081905092915050565b6000614ca18284614909565b915081905092915050565b6000602082019050614cc1600083018461466a565b92915050565b60006020820190508181036000830152614ce18184614679565b905092915050565b60006020820190508181036000830152614d0381846146ee565b905092915050565b60006020820190508181036000830152614d258184614763565b905092915050565b6000602082019050614d4260008301846147c1565b92915050565b60006020820190508181036000830152614d62818461485e565b905092915050565b60006040820190508181036000830152614d84818561485e565b90508181036020830152614d988184614763565b90509392505050565b600060a0820190508181036000830152614dbb81886148d0565b9050614dca60208301876147c1565b8181036040830152614ddc81866148d0565b90508181036060830152614df081856148d0565b90508181036080830152614e0481846148d0565b90509695505050505050565b60006040820190508181036000830152614e2a81856148d0565b90508181036020830152614e3e81846148d0565b90509392505050565b60006060820190508181036000830152614e6181866148d0565b90508181036020830152614e7581856148d0565b90508181036040830152614e8981846148d0565b9050949350505050565b60006020820190508181036000830152614eac81614997565b9050919050565b60006020820190508181036000830152614ecc816149d7565b9050919050565b60006020820190508181036000830152614eec81614a17565b9050919050565b60006020820190508181036000830152614f0c81614a57565b9050919050565b60006020820190508181036000830152614f2c81614abd565b9050919050565b60006020820190508181036000830152614f4c81614afd565b9050919050565b60006020820190508181036000830152614f6c81614b3d565b9050919050565b60006020820190508181036000830152614f8c81614b7d565b9050919050565b60006020820190508181036000830152614fac81614bbd565b9050919050565b6000602082019050614fc86000830184614c6f565b92915050565b6000606082019050614fe36000830186614c6f565b8181036020830152614ff58185614763565b9050615004604083018461465b565b949350505050565b60006040820190506150216000830185614c6f565b818103602083015261503381846148d0565b90509392505050565b60006040820190506150516000830185614c6f565b8181036020830152615063818461485e565b90509392505050565b6000604051905081810181811067ffffffffffffffff8211171561508f57600080fd5b8060405250919050565b600067ffffffffffffffff8211156150b057600080fd5b602082029050602081019050919050565b600067ffffffffffffffff8211156150d857600080fd5b601f19601f8301169050602081019050919050565b6000819050602082019050919050565b6000819050602082019050919050565b6000819050602082019050919050565b60008190508160005260206000209050919050565b60008190508160005260206000209050919050565b600081519050919050565b600081519050919050565b600081519050919050565b600081519050919050565b600081519050919050565b6000602082019050919050565b6000602082019050919050565b6000602082019050919050565b600082825260208201905092915050565b600082825260208201905092915050565b600082825260208201905092915050565b600081905092915050565b600082825260208201905092915050565b600082825260208201905092915050565b600081905092915050565b600061521b8261522e565b9050919050565b60008115159050919050565b600073ffffffffffffffffffffffffffffffffffffffff82169050919050565b6000819050919050565b60006152638261526a565b9050919050565b60006152758261527c565b9050919050565b60006152878261522e565b9050919050565b82818337600083830152505050565b60005b838110156152bb5780820151818401526020810190506152a0565b838111156152ca576000848401525b50505050565b6000601f19601f8301169050919050565b6152ea81615210565b81146152f557600080fd5b50565b6153018161524e565b811461530c57600080fd5b5056fea365627a7a72315820bc5aee645aa8a37a534bde14622491056aef17136e5f9cb885f2c90710f3d2296c6578706572696d656e74616cf564736f6c63430005100040",
  "source": "// SPDX-License-Identifier: MIT\r\npragma solidity >=0.4.21 <=0.8.20;\r\npragma experimental ABIEncoderV2;\r\n\r\n\r\ncontract DecentralizedVoting {\r\n    //address[] public org;\r\n\r\n    mapping(address => UserOrg) public org;\r\n\r\n    struct UserOrg {\r\n        string orgName;\r\n        string userName;\r\n        string email;\r\n    }\r\n\r\n    mapping (address => CreatedElections[]) public ownedElections;\r\n\r\n    struct CreatedElections {\r\n        uint256 electionId;\r\n        string electionName;\r\n    }\r\n\r\n\r\n    //mapping(address => uint[]) createdElectionID;\r\n\r\n    address deployer;\r\n\r\n    struct User {\r\n        string userName;\r\n        string email;\r\n    }\r\n\r\n    mapping(address => User) public users;\r\n\r\n    struct Candidate {\r\n        string name;\r\n        string position;\r\n        string platform;\r\n        uint256 voteCount;\r\n    }\r\n\r\n    struct Election {\r\n        string name;\r\n        bool active;\r\n        Candidate[] candidates;\r\n        string startDate;\r\n        string endDate;\r\n        string domainFilter;\r\n        mapping(address => bool) hasVoted;\r\n    }\r\n\r\n    mapping(uint256 => Election) public elections;\r\n    uint256 public electionCount;\r\n\r\n    event ElectionCreated(uint256 electionId, string name);\r\n    event CandidateAdded(uint256 electionId, string name);\r\n    event Voted(uint256 electionId, uint256[] candidateIndex, address voter);\r\n\r\n    modifier onlyOrg() {\r\n        \r\n        require(bytes(org[msg.sender].orgName).length > 0 || msg.sender == deployer, \"Only the organizer can perform this action\");\r\n        _;\r\n    }\r\n\r\n    constructor() public {\r\n        deployer = msg.sender;\r\n    }\r\n\r\n     // Create a new election (only owner)\r\n    function createElection(string memory _name, string memory _startDate, string memory _endDate, string memory _domainFilter) public onlyOrg {\r\n        electionCount++;\r\n        Election storage newElection = elections[electionCount];\r\n        newElection.name = _name;\r\n        newElection.active = true;\r\n        newElection.startDate = _startDate;\r\n        newElection.endDate = _endDate;\r\n        newElection.domainFilter = _domainFilter;\r\n        addToOwnedElections(msg.sender, electionCount, _name);\r\n        emit ElectionCreated(electionCount, _name);\r\n    }\r\n\r\n\r\n\r\n    \r\n    // Update election details\r\n    function updateElectionDetails(uint256 _electionId, string memory _newName, string memory _startDate, string memory _endDate, string memory _newDomainFilter) public onlyOrg {\r\n        require(_electionId > 0 && _electionId <= electionCount, \"Election does not exist\");\r\n        Election storage election = elections[_electionId];\r\n        \r\n        election.name = _newName;\r\n        election.startDate = _startDate;\r\n        election.endDate = _endDate;\r\n        election.domainFilter = _newDomainFilter;\r\n\r\n        // Update the name in the owned elections\r\n        CreatedElections[] storage electionsList = ownedElections[msg.sender];\r\n        for (uint256 i = 0; i < electionsList.length; i++) {\r\n            if (electionsList[i].electionId == _electionId) {\r\n                electionsList[i].electionName = _newName;\r\n                break;\r\n            }\r\n        }\r\n\r\n        // Emit an event for the update\r\n        emit ElectionCreated(_electionId, _newName);\r\n    }\r\n\r\n\r\n\r\n\r\n    function addToOwnedElections(address organizer, uint256 _electionId, string memory _electionName) internal {\r\n        ownedElections[organizer].push(CreatedElections({\r\n        electionId: _electionId,\r\n        electionName: _electionName\r\n    }));\r\n    }\r\n\r\n    function getOwnedElections(address organizer) public view returns (CreatedElections[] memory) {\r\n        return ownedElections[organizer];\r\n    }\r\n\r\n\r\n\r\n    function getOwnedElectionIds(address organizer) public view returns (uint256[] memory) {\r\n    uint256 count = ownedElections[organizer].length;\r\n    uint256[] memory ids = new uint256[](count);\r\n\r\n    for (uint256 i = 0; i < count; i++) {\r\n        ids[i] = ownedElections[organizer][i].electionId;\r\n    }\r\n\r\n    return ids;\r\n    }\r\n\r\n    function getOwnedElectionNames(address organizer) public view returns (string[] memory) {\r\n        uint256 count = ownedElections[organizer].length;\r\n        string[] memory names = new string[](count);\r\n\r\n        for (uint256 i = 0; i < count; i++) {\r\n            names[i] = ownedElections[organizer][i].electionName;\r\n        }\r\n\r\n        return names;\r\n    }\r\n\r\n    function getElectionIdByName(address organizer, string memory _name) public view returns (uint256) {\r\n    CreatedElections[] storage electionsList = ownedElections[organizer];\r\n    for (uint256 i = 0; i < electionsList.length; i++) {\r\n        if (keccak256(bytes(electionsList[i].electionName)) == keccak256(bytes(_name))) {\r\n            return electionsList[i].electionId;\r\n        }\r\n    }\r\n    revert(\"Election not found\");\r\n    }    \r\n\r\n    // Get election results\r\n    function getElectionResults(uint256 _electionId) public view returns (string memory, uint256[] memory) {\r\n        require(_electionId > 0 && _electionId <= electionCount, \"Election does not exist\");\r\n        Election storage election = elections[_electionId];\r\n\r\n        uint256[] memory votes = new uint256[](election.candidates.length);\r\n        for (uint256 i = 0; i < election.candidates.length; i++) {\r\n            votes[i] = election.candidates[i].voteCount;\r\n        }\r\n\r\n        return (election.name, votes);\r\n    }\r\n\r\n    \r\n    \r\n    // Get election name\r\n    function getElectionName(uint256 _electionId) public view returns (string memory) {\r\n        require(_electionId > 0 && _electionId <= electionCount, \"Election does not exist\");\r\n        return elections[_electionId].name;\r\n    }\r\n\r\n    // Close an election (only owner)\r\n    function closeElection(uint256 _electionId) public onlyOrg {\r\n        require(_electionId > 0 && _electionId <= electionCount && elections[_electionId].active == true, \"Election does not exist or is not active\");\r\n        elections[_electionId].active = false;\r\n    }\r\n\r\n    \r\n    // Get list of all election names\r\n    function getElectionNames() public view returns (string[] memory) {\r\n        string[] memory electionNames = new string[](electionCount);\r\n\r\n        for (uint256 i = 0; i < electionCount; i++) {\r\n            electionNames[i] = elections[i + 1].name;\r\n        }\r\n\r\n        return electionNames;\r\n    }\r\n\r\n    \r\n    // Get election start date\r\n    function getElectionStartDate(uint256 _electionId) public view returns (string memory) {\r\n        require(_electionId > 0 && _electionId <= electionCount, \"Election does not exist\");\r\n        return elections[_electionId].startDate;\r\n    }\r\n\r\n    \r\n    // Get election end date\r\n    function getElectionEndDate(uint256 _electionId) public view returns (string memory) {\r\n        require(_electionId > 0 && _electionId <= electionCount, \"Election does not exist\");\r\n        return elections[_electionId].endDate;\r\n    }\r\n\r\n\r\n    \r\n    // Get election domain filter\r\n    function getElectionDomainFilter(uint256 _electionId) public view returns (string memory) {\r\n        require(_electionId > 0 && _electionId <= electionCount, \"Election does not exist\");\r\n        return elections[_electionId].domainFilter;\r\n    }\r\n\r\n    \r\n\r\n    // Get election status\r\n    function getElectionStatus(uint256 _electionId) public view returns (bool) {\r\n        require(_electionId > 0 && _electionId <= electionCount, \"Election does not exist\");\r\n        return elections[_electionId].active;\r\n    }\r\n\r\n    //end Election\r\n\r\n\r\n    // Add a candidate to an election (only owner)\r\n    function addCandidate(uint256 _electionId, string memory _candidateName, string memory _candidatePosition, string memory _platform) public onlyOrg {\r\n        require(_electionId > 0 && _electionId <= electionCount, \"Election does not exist\");\r\n        require(elections[_electionId].active, \"Election is not active\");\r\n\r\n        elections[_electionId].candidates.push(Candidate({ name: _candidateName, voteCount: 0 , position: _candidatePosition , platform: _platform}));\r\n        emit CandidateAdded(_electionId, _candidateName);\r\n    }\r\n\r\n    \r\n    // Update candidate information\r\n    function updateCandidateInfo(uint256 _electionId, uint256 _candidateIndex, string memory _newName, string memory _newPosition, string memory _newPlatform) public onlyOrg {\r\n        require(_electionId > 0 && _electionId <= electionCount, \"Election does not exist\");\r\n        require(_candidateIndex < elections[_electionId].candidates.length, \"Candidate does not exist\");\r\n        \r\n        Candidate storage candidate = elections[_electionId].candidates[_candidateIndex];\r\n        \r\n        if (keccak256(bytes(candidate.name)) != keccak256(bytes(_newName))) {\r\n            candidate.name = _newName;\r\n        }\r\n        \r\n        if (keccak256(bytes(candidate.position)) != keccak256(bytes(_newPosition))) {\r\n            candidate.position = _newPosition;\r\n        }\r\n        \r\n        if (keccak256(bytes(candidate.platform)) != keccak256(bytes(_newPlatform))) {\r\n            candidate.platform = _newPlatform;\r\n        }\r\n        \r\n        // TODO: update the event\r\n    }\r\n\r\n    // Delete a candidate from an election (only owner)\r\n    function deleteCandidate(uint256 _electionId, uint256 _candidateIndex) public onlyOrg {\r\n        require(_electionId > 0 && _electionId <= electionCount, \"Election does not exist\");\r\n        require(_candidateIndex < elections[_electionId].candidates.length, \"Candidate does not exist\");\r\n\r\n        // Remove the candidate by shifting elements to the left\r\n        for (uint256 i = _candidateIndex; i < elections[_electionId].candidates.length - 1; i++) {\r\n            elections[_electionId].candidates[i] = elections[_electionId].candidates[i + 1];\r\n        }\r\n        \r\n        // Remove the last element\r\n        elections[_electionId].candidates.pop();\r\n    }\r\n\r\n    \r\n\r\n    // Get the number of candidates in an election\r\n    function getCandidatesCount(uint256 _electionId) public view returns (uint256) {\r\n        require(_electionId > 0 && _electionId <= electionCount, \"Election does not exist\");\r\n        return elections[_electionId].candidates.length;\r\n    }\r\n\r\n\r\n    \r\n    // Get candidate name\r\n    function getCandidateName(uint256 _electionId, uint256 _candidateIndex) public view returns (string memory) {\r\n        require(_electionId > 0 && _electionId <= electionCount, \"Election does not exist\");\r\n        require(_candidateIndex < elections[_electionId].candidates.length, \"Candidate does not exist\");\r\n        return elections[_electionId].candidates[_candidateIndex].name;\r\n    }\r\n\r\n    \r\n    // Get candidate position\r\n    function getCandidatePosition(uint256 _electionId, uint256 _candidateIndex) public view returns (string memory) {\r\n        require(_electionId > 0 && _electionId <= electionCount, \"Election does not exist\");\r\n        require(_candidateIndex < elections[_electionId].candidates.length, \"Candidate does not exist\");\r\n        return elections[_electionId].candidates[_candidateIndex].position;\r\n    }\r\n\r\n\r\n    //get candidate platform\r\n    function getCandidatePlatform(uint256 _electionId, uint256 _candidateIndex) public view returns (string memory) {\r\n        require(_electionId > 0 && _electionId <= electionCount, \"Election does not exist\");\r\n        require(_candidateIndex < elections[_electionId].candidates.length, \"Candidate does not exist\");\r\n        return elections[_electionId].candidates[_candidateIndex].platform;\r\n    }\r\n\r\n    //get candidate names\r\n    function getCandidateNames(uint256 _electionId) public view returns (string[] memory) {\r\n        require(_electionId > 0 && _electionId <= electionCount, \"Election does not exist\");\r\n\r\n        uint256 candidateCount = elections[_electionId].candidates.length;\r\n        string[] memory candidateNames = new string[](candidateCount);\r\n\r\n        for (uint256 i = 0; i < candidateCount; i++) {\r\n            candidateNames[i] = elections[_electionId].candidates[i].name;\r\n        }\r\n\r\n        return candidateNames;\r\n    }\r\n    //end candidate\r\n\r\n\r\n    //ORG    \r\n    function addOrg(string memory orgName, string memory name, string memory email) public {\r\n        org[msg.sender] = UserOrg(orgName, name, email);\r\n    }    \r\n\r\n    \r\n    function isOrg(address orgAddress) public view returns (bool){\r\n        return bytes(org[orgAddress].orgName).length > 0;\r\n    }\r\n\r\n    \r\n    function getOrgName(address orgAddress) public view returns (string memory){\r\n        return org[orgAddress].orgName;\r\n    }\r\n\r\n    \r\n    function getOrgUserName(address orgAddress) public view returns (string memory){\r\n        return org[orgAddress].userName;\r\n    }\r\n\r\n    function getOrgEmail(address orgAddress) public view returns (string memory) {\r\n        return org[orgAddress].email;\r\n    }\r\n\r\n    \r\n    function updateOrgDetails(address orgAddress, string memory newOrgName, string memory newUserName, string memory newEmail) public {\r\n        require(isOrg(orgAddress), \"Org does not exist\");\r\n        org[orgAddress].orgName = newOrgName;\r\n        org[orgAddress].userName = newUserName;\r\n        org[orgAddress].email = newEmail;\r\n    }\r\n    \r\n    \r\n\r\n    //End ORG\r\n\r\n     function getUserAddress() public view returns (address) {\r\n        return msg.sender;\r\n    }\r\n\r\n    //Voter\r\n    function addUser(address userAddress, string memory userName, string memory email) public {\r\n        require(bytes(users[userAddress].userName).length == 0, \"User already exists\");\r\n        users[userAddress] = User(userName, email);\r\n        \r\n    }\r\n\r\n    function isUser(address userAddress) public view returns (bool){\r\n        return bytes(users[userAddress].userName).length > 0;\r\n    }\r\n\r\n   \r\n\r\n    function getUserName(address userAddress) public view returns (string memory){\r\n        User storage user = users[userAddress];\r\n        if(bytes(user.userName).length > 0)\r\n            return string(abi.encodePacked(user.userName));\r\n    }\r\n\r\n    function getEmail(address userAddress) public view returns (string memory){\r\n        User storage user = users[userAddress];\r\n        if(bytes(user.email).length > 0)\r\n            return string(abi.encodePacked(user.email));\r\n    }\r\n\r\n    function updateUser(address userAddress, string memory newUserName, string memory newEmail) public {\r\n        require(isUser(userAddress), \"User does not exist\");\r\n        User storage user = users[userAddress];\r\n        if(bytes(newUserName).length > 0)\r\n            user.userName = newUserName;\r\n        if(bytes(newEmail).length > 0)\r\n            user.email = newEmail;\r\n    }\r\n    \r\n\r\n    //end voter\r\n\r\n\r\n    function getOwnerAddress() public view returns (address) {\r\n        return deployer;\r\n    }\r\n\r\n    // // Vote for a candidate in an election\r\n    // function vote(uint256 _electionId, uint256 _candidateIndex) public {\r\n    //     require(_electionId > 0 && _electionId <= electionCount, \"Election does not exist\");\r\n    //     Election storage election = elections[_electionId];\r\n\r\n    //     require(election.active, \"Election is not active\");\r\n    //     //require(!election.hasVoted[msg.sender], \"You have already voted\");\r\n\r\n    //     election.candidates[_candidateIndex].voteCount++;\r\n    //     election.hasVoted[msg.sender] = true;\r\n\r\n    //     emit Voted(_electionId, _candidateIndex, msg.sender);\r\n    // }\r\n\r\n    \r\n    // Vote for multiple candidates in an election\r\n    function Vote(uint256 _electionId, uint256[] memory _candidateIndexes) public {\r\n        require(_electionId > 0 && _electionId <= electionCount, \"Election does not exist\");\r\n        Election storage election = elections[_electionId];\r\n\r\n        require(election.active, \"Election is not active\");\r\n        //require(!election.hasVoted[msg.sender], \"You have already voted\");\r\n\r\n        for (uint256 i = 0; i < _candidateIndexes.length; i++) {\r\n            election.candidates[_candidateIndexes[i]].voteCount++;\r\n        }\r\n\r\n        election.hasVoted[msg.sender] = true;\r\n\r\n        emit Voted(_electionId, _candidateIndexes, msg.sender);\r\n    }\r\n\r\n    \r\n\r\n\r\n\r\n}\r\n",
  "sourcePath": "C:\\Users\\dizon\\OneDrive\\Desktop\\Gordon College\\AppDev\\BlockVote\\contract\\contracts\\Voting.sol",
  "compiler": {
    "name": "solc",
    "version": "0.5.16+commit.9c3226ce.Emscripten.clang"
  },
  "schemaVersion": "3.4.16",
  "updatedAt": "2025-04-26T23:00:08.960Z",
  "networkType": "ethereum",
  "devdoc": {
    "methods": {}
  },
  "userdoc": {
    "methods": {}
  }
}