{
  "contractName": "DecentralizedVoting",
  "abi": [
    {
      "inputs": [],
      "payable": false,
      "stateMutability": "nonpayable",
      "type": "constructor"
    },
    {
      "anonymous": false,
      "inputs": [
        {
          "indexed": false,
          "internalType": "uint256",
          "name": "electionId",
          "type": "uint256"
        },
        {
          "indexed": false,
          "internalType": "string",
          "name": "name",
          "type": "string"
        }
      ],
      "name": "CandidateAdded",
      "type": "event"
    },
    {
      "anonymous": false,
      "inputs": [
        {
          "indexed": false,
          "internalType": "uint256",
          "name": "electionId",
          "type": "uint256"
        },
        {
          "indexed": false,
          "internalType": "string",
          "name": "name",
          "type": "string"
        }
      ],
      "name": "ElectionCreated",
      "type": "event"
    },
    {
      "anonymous": false,
      "inputs": [
        {
          "indexed": false,
          "internalType": "uint256",
          "name": "electionId",
          "type": "uint256"
        },
        {
          "indexed": false,
          "internalType": "uint256[]",
          "name": "candidateIndex",
          "type": "uint256[]"
        },
        {
          "indexed": false,
          "internalType": "address",
          "name": "voter",
          "type": "address"
        }
      ],
      "name": "Voted",
      "type": "event"
    },
    {
      "constant": true,
      "inputs": [],
      "name": "electionCount",
      "outputs": [
        {
          "internalType": "uint256",
          "name": "",
          "type": "uint256"
        }
      ],
      "payable": false,
      "stateMutability": "view",
      "type": "function"
    },
    {
      "constant": true,
      "inputs": [
        {
          "internalType": "uint256",
          "name": "",
          "type": "uint256"
        }
      ],
      "name": "elections",
      "outputs": [
        {
          "internalType": "string",
          "name": "name",
          "type": "string"
        },
        {
          "internalType": "bool",
          "name": "active",
          "type": "bool"
        },
        {
          "internalType": "string",
          "name": "startDate",
          "type": "string"
        },
        {
          "internalType": "string",
          "name": "endDate",
          "type": "string"
        },
        {
          "internalType": "string",
          "name": "domainFilter",
          "type": "string"
        }
      ],
      "payable": false,
      "stateMutability": "view",
      "type": "function"
    },
    {
      "constant": true,
      "inputs": [
        {
          "internalType": "address",
          "name": "",
          "type": "address"
        }
      ],
      "name": "org",
      "outputs": [
        {
          "internalType": "string",
          "name": "orgName",
          "type": "string"
        },
        {
          "internalType": "string",
          "name": "userName",
          "type": "string"
        },
        {
          "internalType": "string",
          "name": "email",
          "type": "string"
        }
      ],
      "payable": false,
      "stateMutability": "view",
      "type": "function"
    },
    {
      "constant": true,
      "inputs": [
        {
          "internalType": "address",
          "name": "",
          "type": "address"
        },
        {
          "internalType": "uint256",
          "name": "",
          "type": "uint256"
        }
      ],
      "name": "ownedElections",
      "outputs": [
        {
          "internalType": "uint256",
          "name": "electionId",
          "type": "uint256"
        },
        {
          "internalType": "string",
          "name": "electionName",
          "type": "string"
        }
      ],
      "payable": false,
      "stateMutability": "view",
      "type": "function"
    },
    {
      "constant": true,
      "inputs": [
        {
          "internalType": "address",
          "name": "",
          "type": "address"
        }
      ],
      "name": "users",
      "outputs": [
        {
          "internalType": "string",
          "name": "userName",
          "type": "string"
        },
        {
          "internalType": "string",
          "name": "email",
          "type": "string"
        }
      ],
      "payable": false,
      "stateMutability": "view",
      "type": "function"
    },
    {
      "constant": false,
      "inputs": [
        {
          "internalType": "string",
          "name": "_name",
          "type": "string"
        },
        {
          "internalType": "string",
          "name": "_startDate",
          "type": "string"
        },
        {
          "internalType": "string",
          "name": "_endDate",
          "type": "string"
        },
        {
          "internalType": "string",
          "name": "_domainFilter",
          "type": "string"
        }
      ],
      "name": "createElection",
      "outputs": [],
      "payable": false,
      "stateMutability": "nonpayable",
      "type": "function"
    },
    {
      "constant": false,
      "inputs": [
        {
          "internalType": "uint256",
          "name": "_electionId",
          "type": "uint256"
        },
        {
          "internalType": "string",
          "name": "_newName",
          "type": "string"
        },
        {
          "internalType": "string",
          "name": "_startDate",
          "type": "string"
        },
        {
          "internalType": "string",
          "name": "_endDate",
          "type": "string"
        },
        {
          "internalType": "string",
          "name": "_newDomainFilter",
          "type": "string"
        }
      ],
      "name": "updateElectionDetails",
      "outputs": [],
      "payable": false,
      "stateMutability": "nonpayable",
      "type": "function"
    },
    {
      "constant": true,
      "inputs": [
        {
          "internalType": "address",
          "name": "organizer",
          "type": "address"
        }
      ],
      "name": "getOwnedElections",
      "outputs": [
        {
          "components": [
            {
              "internalType": "uint256",
              "name": "electionId",
              "type": "uint256"
            },
            {
              "internalType": "string",
              "name": "electionName",
              "type": "string"
            }
          ],
          "internalType": "struct DecentralizedVoting.CreatedElections[]",
          "name": "",
          "type": "tuple[]"
        }
      ],
      "payable": false,
      "stateMutability": "view",
      "type": "function"
    },
    {
      "constant": true,
      "inputs": [
        {
          "internalType": "address",
          "name": "organizer",
          "type": "address"
        }
      ],
      "name": "getOwnedElectionIds",
      "outputs": [
        {
          "internalType": "uint256[]",
          "name": "",
          "type": "uint256[]"
        }
      ],
      "payable": false,
      "stateMutability": "view",
      "type": "function"
    },
    {
      "constant": true,
      "inputs": [
        {
          "internalType": "address",
          "name": "organizer",
          "type": "address"
        }
      ],
      "name": "getOwnedElectionNames",
      "outputs": [
        {
          "internalType": "string[]",
          "name": "",
          "type": "string[]"
        }
      ],
      "payable": false,
      "stateMutability": "view",
      "type": "function"
    },
    {
      "constant": true,
      "inputs": [
        {
          "internalType": "address",
          "name": "organizer",
          "type": "address"
        },
        {
          "internalType": "string",
          "name": "_name",
          "type": "string"
        }
      ],
      "name": "getElectionIdByName",
      "outputs": [
        {
          "internalType": "uint256",
          "name": "",
          "type": "uint256"
        }
      ],
      "payable": false,
      "stateMutability": "view",
      "type": "function"
    },
    {
      "constant": true,
      "inputs": [
        {
          "internalType": "uint256",
          "name": "_electionId",
          "type": "uint256"
        }
      ],
      "name": "getElectionResults",
      "outputs": [
        {
          "internalType": "string",
          "name": "",
          "type": "string"
        },
        {
          "internalType": "uint256[]",
          "name": "",
          "type": "uint256[]"
        }
      ],
      "payable": false,
      "stateMutability": "view",
      "type": "function"
    },
    {
      "constant": true,
      "inputs": [
        {
          "internalType": "uint256",
          "name": "_electionId",
          "type": "uint256"
        }
      ],
      "name": "getElectionName",
      "outputs": [
        {
          "internalType": "string",
          "name": "",
          "type": "string"
        }
      ],
      "payable": false,
      "stateMutability": "view",
      "type": "function"
    },
    {
      "constant": false,
      "inputs": [
        {
          "internalType": "uint256",
          "name": "_electionId",
          "type": "uint256"
        }
      ],
      "name": "closeElection",
      "outputs": [],
      "payable": false,
      "stateMutability": "nonpayable",
      "type": "function"
    },
    {
      "constant": true,
      "inputs": [],
      "name": "getElectionNames",
      "outputs": [
        {
          "internalType": "string[]",
          "name": "",
          "type": "string[]"
        }
      ],
      "payable": false,
      "stateMutability": "view",
      "type": "function"
    },
    {
      "constant": true,
      "inputs": [
        {
          "internalType": "uint256",
          "name": "_electionId",
          "type": "uint256"
        }
      ],
      "name": "getElectionStartDate",
      "outputs": [
        {
          "internalType": "string",
          "name": "",
          "type": "string"
        }
      ],
      "payable": false,
      "stateMutability": "view",
      "type": "function"
    },
    {
      "constant": true,
      "inputs": [
        {
          "internalType": "uint256",
          "name": "_electionId",
          "type": "uint256"
        }
      ],
      "name": "getElectionEndDate",
      "outputs": [
        {
          "internalType": "string",
          "name": "",
          "type": "string"
        }
      ],
      "payable": false,
      "stateMutability": "view",
      "type": "function"
    },
    {
      "constant": true,
      "inputs": [
        {
          "internalType": "uint256",
          "name": "_electionId",
          "type": "uint256"
        }
      ],
      "name": "getElectionDomainFilter",
      "outputs": [
        {
          "internalType": "string",
          "name": "",
          "type": "string"
        }
      ],
      "payable": false,
      "stateMutability": "view",
      "type": "function"
    },
    {
      "constant": true,
      "inputs": [
        {
          "internalType": "uint256",
          "name": "_electionId",
          "type": "uint256"
        }
      ],
      "name": "getElectionStatus",
      "outputs": [
        {
          "internalType": "bool",
          "name": "",
          "type": "bool"
        }
      ],
      "payable": false,
      "stateMutability": "view",
      "type": "function"
    },
    {
      "constant": false,
      "inputs": [
        {
          "internalType": "uint256",
          "name": "_electionId",
          "type": "uint256"
        },
        {
          "internalType": "string",
          "name": "_candidateName",
          "type": "string"
        },
        {
          "internalType": "string",
          "name": "_candidatePosition",
          "type": "string"
        },
        {
          "internalType": "string",
          "name": "_platform",
          "type": "string"
        },
        {
          "internalType": "string",
          "name": "_cdn",
          "type": "string"
        }
      ],
      "name": "addCandidate",
      "outputs": [],
      "payable": false,
      "stateMutability": "nonpayable",
      "type": "function"
    },
    {
      "constant": false,
      "inputs": [
        {
          "internalType": "uint256",
          "name": "_electionId",
          "type": "uint256"
        },
        {
          "internalType": "uint256",
          "name": "_candidateIndex",
          "type": "uint256"
        },
        {
          "internalType": "string",
          "name": "_newName",
          "type": "string"
        },
        {
          "internalType": "string",
          "name": "_newPosition",
          "type": "string"
        },
        {
          "internalType": "string",
          "name": "_newPlatform",
          "type": "string"
        },
        {
          "internalType": "string",
          "name": "_newcdn",
          "type": "string"
        }
      ],
      "name": "updateCandidateInfo",
      "outputs": [],
      "payable": false,
      "stateMutability": "nonpayable",
      "type": "function"
    },
    {
      "constant": false,
      "inputs": [
        {
          "internalType": "uint256",
          "name": "_electionId",
          "type": "uint256"
        },
        {
          "internalType": "uint256",
          "name": "_candidateIndex",
          "type": "uint256"
        }
      ],
      "name": "deleteCandidate",
      "outputs": [],
      "payable": false,
      "stateMutability": "nonpayable",
      "type": "function"
    },
    {
      "constant": true,
      "inputs": [
        {
          "internalType": "uint256",
          "name": "_electionId",
          "type": "uint256"
        }
      ],
      "name": "getCandidatesCount",
      "outputs": [
        {
          "internalType": "uint256",
          "name": "",
          "type": "uint256"
        }
      ],
      "payable": false,
      "stateMutability": "view",
      "type": "function"
    },
    {
      "constant": true,
      "inputs": [
        {
          "internalType": "uint256",
          "name": "_electionId",
          "type": "uint256"
        },
        {
          "internalType": "uint256",
          "name": "_candidateIndex",
          "type": "uint256"
        }
      ],
      "name": "getCandidateName",
      "outputs": [
        {
          "internalType": "string",
          "name": "",
          "type": "string"
        }
      ],
      "payable": false,
      "stateMutability": "view",
      "type": "function"
    },
    {
      "constant": true,
      "inputs": [
        {
          "internalType": "uint256",
          "name": "_electionId",
          "type": "uint256"
        },
        {
          "internalType": "uint256",
          "name": "_candidateIndex",
          "type": "uint256"
        }
      ],
      "name": "getCandidatePosition",
      "outputs": [
        {
          "internalType": "string",
          "name": "",
          "type": "string"
        }
      ],
      "payable": false,
      "stateMutability": "view",
      "type": "function"
    },
    {
      "constant": true,
      "inputs": [
        {
          "internalType": "uint256",
          "name": "_electionId",
          "type": "uint256"
        },
        {
          "internalType": "uint256",
          "name": "_candidateIndex",
          "type": "uint256"
        }
      ],
      "name": "getCandidatePlatform",
      "outputs": [
        {
          "internalType": "string",
          "name": "",
          "type": "string"
        }
      ],
      "payable": false,
      "stateMutability": "view",
      "type": "function"
    },
    {
      "constant": true,
      "inputs": [
        {
          "internalType": "uint256",
          "name": "_electionId",
          "type": "uint256"
        },
        {
          "internalType": "uint256",
          "name": "_candidateIndex",
          "type": "uint256"
        }
      ],
      "name": "getCandidateCdn",
      "outputs": [
        {
          "internalType": "string",
          "name": "",
          "type": "string"
        }
      ],
      "payable": false,
      "stateMutability": "view",
      "type": "function"
    },
    {
      "constant": true,
      "inputs": [
        {
          "internalType": "uint256",
          "name": "_electionId",
          "type": "uint256"
        }
      ],
      "name": "getCandidateNames",
      "outputs": [
        {
          "internalType": "string[]",
          "name": "",
          "type": "string[]"
        }
      ],
      "payable": false,
      "stateMutability": "view",
      "type": "function"
    },
    {
      "constant": true,
      "inputs": [
        {
          "internalType": "uint256",
          "name": "_electionId",
          "type": "uint256"
        },
        {
          "internalType": "string",
          "name": "_candidateName",
          "type": "string"
        }
      ],
      "name": "getCandidateIDbyName",
      "outputs": [
        {
          "internalType": "uint256",
          "name": "",
          "type": "uint256"
        }
      ],
      "payable": false,
      "stateMutability": "view",
      "type": "function"
    },
    {
      "constant": true,
      "inputs": [
        {
          "internalType": "uint256",
          "name": "_electionId",
          "type": "uint256"
        },
        {
          "internalType": "uint256",
          "name": "_candidateIndex",
          "type": "uint256"
        }
      ],
      "name": "getCandidateVoteCount",
      "outputs": [
        {
          "internalType": "uint256",
          "name": "",
          "type": "uint256"
        }
      ],
      "payable": false,
      "stateMutability": "view",
      "type": "function"
    },
    {
      "constant": false,
      "inputs": [
        {
          "internalType": "string",
          "name": "orgName",
          "type": "string"
        },
        {
          "internalType": "string",
          "name": "name",
          "type": "string"
        },
        {
          "internalType": "string",
          "name": "email",
          "type": "string"
        }
      ],
      "name": "addOrg",
      "outputs": [],
      "payable": false,
      "stateMutability": "nonpayable",
      "type": "function"
    },
    {
      "constant": true,
      "inputs": [
        {
          "internalType": "address",
          "name": "orgAddress",
          "type": "address"
        }
      ],
      "name": "isOrg",
      "outputs": [
        {
          "internalType": "bool",
          "name": "",
          "type": "bool"
        }
      ],
      "payable": false,
      "stateMutability": "view",
      "type": "function"
    },
    {
      "constant": true,
      "inputs": [
        {
          "internalType": "address",
          "name": "orgAddress",
          "type": "address"
        }
      ],
      "name": "getOrgName",
      "outputs": [
        {
          "internalType": "string",
          "name": "",
          "type": "string"
        }
      ],
      "payable": false,
      "stateMutability": "view",
      "type": "function"
    },
    {
      "constant": true,
      "inputs": [
        {
          "internalType": "address",
          "name": "orgAddress",
          "type": "address"
        }
      ],
      "name": "getOrgUserName",
      "outputs": [
        {
          "internalType": "string",
          "name": "",
          "type": "string"
        }
      ],
      "payable": false,
      "stateMutability": "view",
      "type": "function"
    },
    {
      "constant": true,
      "inputs": [
        {
          "internalType": "address",
          "name": "orgAddress",
          "type": "address"
        }
      ],
      "name": "getOrgEmail",
      "outputs": [
        {
          "internalType": "string",
          "name": "",
          "type": "string"
        }
      ],
      "payable": false,
      "stateMutability": "view",
      "type": "function"
    },
    {
      "constant": false,
      "inputs": [
        {
          "internalType": "address",
          "name": "orgAddress",
          "type": "address"
        },
        {
          "internalType": "string",
          "name": "newOrgName",
          "type": "string"
        },
        {
          "internalType": "string",
          "name": "newUserName",
          "type": "string"
        },
        {
          "internalType": "string",
          "name": "newEmail",
          "type": "string"
        }
      ],
      "name": "updateOrgDetails",
      "outputs": [],
      "payable": false,
      "stateMutability": "nonpayable",
      "type": "function"
    },
    {
      "constant": true,
      "inputs": [],
      "name": "getUserAddress",
      "outputs": [
        {
          "internalType": "address",
          "name": "",
          "type": "address"
        }
      ],
      "payable": false,
      "stateMutability": "view",
      "type": "function"
    },
    {
      "constant": false,
      "inputs": [
        {
          "internalType": "address",
          "name": "userAddress",
          "type": "address"
        },
        {
          "internalType": "string",
          "name": "userName",
          "type": "string"
        },
        {
          "internalType": "string",
          "name": "email",
          "type": "string"
        }
      ],
      "name": "addUser",
      "outputs": [],
      "payable": false,
      "stateMutability": "nonpayable",
      "type": "function"
    },
    {
      "constant": true,
      "inputs": [
        {
          "internalType": "address",
          "name": "userAddress",
          "type": "address"
        }
      ],
      "name": "isUser",
      "outputs": [
        {
          "internalType": "bool",
          "name": "",
          "type": "bool"
        }
      ],
      "payable": false,
      "stateMutability": "view",
      "type": "function"
    },
    {
      "constant": true,
      "inputs": [
        {
          "internalType": "address",
          "name": "userAddress",
          "type": "address"
        }
      ],
      "name": "getUserName",
      "outputs": [
        {
          "internalType": "string",
          "name": "",
          "type": "string"
        }
      ],
      "payable": false,
      "stateMutability": "view",
      "type": "function"
    },
    {
      "constant": true,
      "inputs": [
        {
          "internalType": "address",
          "name": "userAddress",
          "type": "address"
        }
      ],
      "name": "getEmail",
      "outputs": [
        {
          "internalType": "string",
          "name": "",
          "type": "string"
        }
      ],
      "payable": false,
      "stateMutability": "view",
      "type": "function"
    },
    {
      "constant": false,
      "inputs": [
        {
          "internalType": "address",
          "name": "userAddress",
          "type": "address"
        },
        {
          "internalType": "string",
          "name": "newUserName",
          "type": "string"
        },
        {
          "internalType": "string",
          "name": "newEmail",
          "type": "string"
        }
      ],
      "name": "updateUser",
      "outputs": [],
      "payable": false,
      "stateMutability": "nonpayable",
      "type": "function"
    },
    {
      "constant": true,
      "inputs": [],
      "name": "getOwnerAddress",
      "outputs": [
        {
          "internalType": "address",
          "name": "",
          "type": "address"
        }
      ],
      "payable": false,
      "stateMutability": "view",
      "type": "function"
    },
    {
      "constant": false,
      "inputs": [
        {
          "internalType": "uint256",
          "name": "_electionId",
          "type": "uint256"
        },
        {
          "internalType": "uint256[]",
          "name": "_candidateIndexes",
          "type": "uint256[]"
        }
      ],
      "name": "Vote",
      "outputs": [],
      "payable": false,
      "stateMutability": "nonpayable",
      "type": "function"
    },
    {
      "constant": true,
      "inputs": [
        {
          "internalType": "address",
          "name": "userAddress",
          "type": "address"
        }
      ],
      "name": "getRecentlyVotedElectionIDs",
      "outputs": [
        {
          "internalType": "uint256[]",
          "name": "",
          "type": "uint256[]"
        }
      ],
      "payable": false,
      "stateMutability": "view",
      "type": "function"
    }
  ],
  "bytecode": "0x608060405234801561001057600080fd5b5033600260006101000a81548173ffffffffffffffffffffffffffffffffffffffff021916908373ffffffffffffffffffffffffffffffffffffffff160217905550615aa180620000626000396000f3fe608060405234801561001057600080fd5b506004361061027e5760003560e01c8063840e73f81161015c578063c89782a2116100ce578063e8ededa611610087578063e8ededa6146108f1578063ebc3eee814610922578063ee96e3be14610940578063f4dee31a14610970578063fa3dd69c1461098c578063fad178fe146109bc5761027e565b8063c89782a21461081f578063cea6a72c1461084f578063cf4a60601461086b578063d7554a6814610887578063d84f55ee146108a3578063e220cde5146108d35761027e565b8063a87430ba11610120578063a87430ba14610710578063ac6b4f7514610741578063b024419e14610771578063b476cbce146107a1578063bbc0c1a2146107d3578063bec9e911146107ef5761027e565b8063840e73f8146106465780638ac7775b146106765780638ed9df771461069257806393a9aa81146106c2578063997d2830146106f25761027e565b80633ee95f00116101f55780635e6fef01116101b95780635e6fef01146105365780636c24296e1461056a5780636c628127146105865780637a372c02146105b65780637b0497dc146105e65780637eb507d7146106165761027e565b80633ee95f00146104465780634209fff1146104765780634fa7353c146104a657806352675be3146104d65780635bef3e40146105065761027e565b806319f4dea81161024757806319f4dea8146103255780631d8af509146103555780631e5862b51461038657806324785b9e146103b65780632ed37409146103e6578063396aabeb146104165761027e565b8062a3ea7c1461028357806309e33d07146102b35780630c4f65bd146102cf57806310e8b22d146102ed578063119aeab714610309575b600080fd5b61029d60048036036102989190810190614aba565b6109d8565b6040516102aa9190615702565b60405180910390f35b6102cd60048036036102c89190810190614a3d565b610ace565b005b6102d7610c74565b6040516102e491906153db565b60405180910390f35b6103076004803603610302919081019061477d565b610c9e565b005b610323600480360361031e9190810190614b0e565b610d77565b005b61033f600480360361033a9190810190614700565b611045565b60405161034c919061545c565b60405180910390f35b61036f600480360361036a91908101906148a7565b6110a6565b60405161037d92919061575b565b60405180910390f35b6103a0600480360361039b9190810190614700565b61117c565b6040516103ad9190615418565b60405180910390f35b6103d060048036036103cb9190810190614a3d565b6112c6565b6040516103dd919061545c565b60405180910390f35b61040060048036036103fb9190810190614700565b611343565b60405161040d9190615477565b60405180910390f35b610430600480360361042b9190810190614be5565b611426565b60405161043d9190615702565b60405180910390f35b610460600480360361045b9190810190614a3d565b61150e565b60405161046d9190615702565b60405180910390f35b610490600480360361048b9190810190614700565b611581565b60405161049d919061545c565b60405180910390f35b6104c060048036036104bb9190810190614700565b6115e3565b6040516104cd9190615477565b60405180910390f35b6104f060048036036104eb9190810190614a3d565b61167b565b6040516104fd9190615477565b60405180910390f35b610520600480360361051b9190810190614700565b611784565b60405161052d91906153f6565b60405180910390f35b610550600480360361054b9190810190614a3d565b611937565b6040516105619594939291906154d0565b60405180910390f35b610584600480360361057f919081019061497a565b611bda565b005b6105a0600480360361059b9190810190614700565b611dc5565b6040516105ad9190615477565b60405180910390f35b6105d060048036036105cb9190810190614be5565b611ea8565b6040516105dd9190615477565b60405180910390f35b61060060048036036105fb9190810190614700565b612029565b60405161060d919061543a565b60405180910390f35b610630600480360361062b9190810190614a3d565b6120c3565b60405161063d91906153f6565b60405180910390f35b610660600480360361065b9190810190614a3d565b612275565b60405161066d9190615477565b60405180910390f35b610690600480360361068b91908101906147fc565b61237e565b005b6106ac60048036036106a79190810190614a3d565b6124ce565b6040516106b99190615477565b60405180910390f35b6106dc60048036036106d79190810190614be5565b6125d7565b6040516106e99190615477565b60405180910390f35b6106fa612758565b6040516107079190615702565b60405180910390f35b61072a60048036036107259190810190614700565b61275e565b60405161073892919061553f565b60405180910390f35b61075b60048036036107569190810190614be5565b6128b2565b6040516107689190615477565b60405180910390f35b61078b60048036036107869190810190614be5565b612a33565b6040516107989190615477565b60405180910390f35b6107bb60048036036107b69190810190614700565b612bb4565b6040516107ca93929190615576565b60405180910390f35b6107ed60048036036107e891908101906148e3565b612da6565b005b61080960048036036108049190810190614729565b612e5e565b6040516108169190615702565b60405180910390f35b61083960048036036108349190810190614700565b612f6a565b6040516108469190615477565b60405180910390f35b61086960048036036108649190810190614b0e565b61304d565b005b61088560048036036108809190810190614be5565b61330a565b005b6108a1600480360361089c919081019061477d565b613670565b005b6108bd60048036036108b89190810190614700565b6137f2565b6040516108ca9190615477565b60405180910390f35b6108db61388a565b6040516108e891906153f6565b60405180910390f35b61090b60048036036109069190810190614a3d565b6139b4565b604051610919929190615499565b60405180910390f35b61092a613b62565b60405161093791906153db565b60405180910390f35b61095a60048036036109559190810190614700565b613b6a565b604051610967919061543a565b60405180910390f35b61098a60048036036109859190810190614c21565b613c81565b005b6109a660048036036109a19190810190614a3d565b613f59565b6040516109b39190615477565b60405180910390f35b6109d660048036036109d19190810190614a66565b614062565b005b600080831180156109eb57506005548311155b610a2a576040517f08c379a0000000000000000000000000000000000000000000000000000000008152600401610a21906155e2565b60405180910390fd5b60006004600085815260200190815260200160002060020180549050905060008090505b81811015610ac2578380519060200120600460008781526020019081526020016000206002018281548110610a7f57fe5b9060005260206000209060050201600001604051610a9d91906153ad565b60405180910390201415610ab5578092505050610ac8565b8080600101915050610a4e565b50809150505b92915050565b60008060003373ffffffffffffffffffffffffffffffffffffffff1673ffffffffffffffffffffffffffffffffffffffff1681526020019081526020016000206000018054600181600116156101000203166002900490501180610b7f5750600260009054906101000a900473ffffffffffffffffffffffffffffffffffffffff1673ffffffffffffffffffffffffffffffffffffffff163373ffffffffffffffffffffffffffffffffffffffff16145b610bbe576040517f08c379a0000000000000000000000000000000000000000000000000000000008152600401610bb5906156e2565b60405180910390fd5b600081118015610bd057506005548111155b8015610c035750600115156004600083815260200190815260200160002060010160009054906101000a900460ff161515145b610c42576040517f08c379a0000000000000000000000000000000000000000000000000000000008152600401610c3990615622565b60405180910390fd5b60006004600083815260200190815260200160002060010160006101000a81548160ff02191690831515021790555050565b6000600260009054906101000a900473ffffffffffffffffffffffffffffffffffffffff16905090565b610ca783611581565b610ce6576040517f08c379a0000000000000000000000000000000000000000000000000000000008152600401610cdd90615682565b60405180910390fd5b6000600360008573ffffffffffffffffffffffffffffffffffffffff1673ffffffffffffffffffffffffffffffffffffffff1681526020019081526020016000209050600083511115610d4d5782816000019080519060200190610d4b9291906143be565b505b600082511115610d715781816001019080519060200190610d6f9291906143be565b505b50505050565b60008060003373ffffffffffffffffffffffffffffffffffffffff1673ffffffffffffffffffffffffffffffffffffffff1681526020019081526020016000206000018054600181600116156101000203166002900490501180610e285750600260009054906101000a900473ffffffffffffffffffffffffffffffffffffffff1673ffffffffffffffffffffffffffffffffffffffff163373ffffffffffffffffffffffffffffffffffffffff16145b610e67576040517f08c379a0000000000000000000000000000000000000000000000000000000008152600401610e5e906156e2565b60405180910390fd5b600085118015610e7957506005548511155b610eb8576040517f08c379a0000000000000000000000000000000000000000000000000000000008152600401610eaf906155e2565b60405180910390fd5b6004600086815260200190815260200160002060010160009054906101000a900460ff16610f1b576040517f08c379a0000000000000000000000000000000000000000000000000000000008152600401610f12906156a2565b60405180910390fd5b600460008681526020019081526020016000206002016040518060a001604052808681526020018581526020018481526020018381526020016000815250908060018154018082558091505090600182039060005260206000209060050201600090919290919091506000820151816000019080519060200190610fa092919061443e565b506020820151816001019080519060200190610fbd92919061443e565b506040820151816002019080519060200190610fda92919061443e565b506060820151816003019080519060200190610ff792919061443e565b50608082015181600401555050507fe83b2a43e7e82d975c8a0a6d2f045153c869e111136a34d1889ab7b598e396a3858560405161103692919061578b565b60405180910390a15050505050565b6000806000808473ffffffffffffffffffffffffffffffffffffffff1673ffffffffffffffffffffffffffffffffffffffff168152602001908152602001600020600001805460018160011615610100020316600290049050119050919050565b600160205281600052604060002081815481106110bf57fe5b906000526020600020906002020160009150915050806000015490806001018054600181600116156101000203166002900480601f0160208091040260200160405190810160405280929190818152602001828054600181600116156101000203166002900480156111725780601f1061114757610100808354040283529160200191611172565b820191906000526020600020905b81548152906001019060200180831161115557829003601f168201915b5050505050905082565b6060600160008373ffffffffffffffffffffffffffffffffffffffff1673ffffffffffffffffffffffffffffffffffffffff168152602001908152602001600020805480602002602001604051908101604052809291908181526020016000905b828210156112bb578382906000526020600020906002020160405180604001604052908160008201548152602001600182018054600181600116156101000203166002900480601f0160208091040260200160405190810160405280929190818152602001828054600181600116156101000203166002900480156112a35780601f10611278576101008083540402835291602001916112a3565b820191906000526020600020905b81548152906001019060200180831161128657829003601f168201915b505050505081525050815260200190600101906111dd565b505050509050919050565b600080821180156112d957506005548211155b611318576040517f08c379a000000000000000000000000000000000000000000000000000000000815260040161130f906155e2565b60405180910390fd5b6004600083815260200190815260200160002060010160009054906101000a900460ff169050919050565b60606000808373ffffffffffffffffffffffffffffffffffffffff1673ffffffffffffffffffffffffffffffffffffffff1681526020019081526020016000206001018054600181600116156101000203166002900480601f01602080910402602001604051908101604052809291908181526020018280546001816001161561010002031660029004801561141a5780601f106113ef5761010080835404028352916020019161141a565b820191906000526020600020905b8154815290600101906020018083116113fd57829003601f168201915b50505050509050919050565b6000808311801561143957506005548311155b611478576040517f08c379a000000000000000000000000000000000000000000000000000000000815260040161146f906155e2565b60405180910390fd5b600460008481526020019081526020016000206002018054905082106114d3576040517f08c379a00000000000000000000000000000000000000000000000000000000081526004016114ca90615642565b60405180910390fd5b6004600084815260200190815260200160002060020182815481106114f457fe5b906000526020600020906005020160040154905092915050565b6000808211801561152157506005548211155b611560576040517f08c379a0000000000000000000000000000000000000000000000000000000008152600401611557906155e2565b60405180910390fd5b60046000838152602001908152602001600020600201805490509050919050565b600080600360008473ffffffffffffffffffffffffffffffffffffffff1673ffffffffffffffffffffffffffffffffffffffff168152602001908152602001600020600001805460018160011615610100020316600290049050119050919050565b60606000600360008473ffffffffffffffffffffffffffffffffffffffff1673ffffffffffffffffffffffffffffffffffffffff16815260200190815260200160002090506000816001018054600181600116156101000203166002900490501115611674578060010160405160200161165d91906153c4565b604051602081830303815290604052915050611676565b505b919050565b606060008211801561168f57506005548211155b6116ce576040517f08c379a00000000000000000000000000000000000000000000000000000000081526004016116c5906155e2565b60405180910390fd5b600460008381526020019081526020016000206000018054600181600116156101000203166002900480601f0160208091040260200160405190810160405280929190818152602001828054600181600116156101000203166002900480156117785780601f1061174d57610100808354040283529160200191611778565b820191906000526020600020905b81548152906001019060200180831161175b57829003601f168201915b50505050509050919050565b60606000600160008473ffffffffffffffffffffffffffffffffffffffff1673ffffffffffffffffffffffffffffffffffffffff16815260200190815260200160002080549050905060608160405190808252806020026020018201604052801561180357816020015b60608152602001906001900390816117ee5790505b50905060008090505b8281101561192c57600160008673ffffffffffffffffffffffffffffffffffffffff1673ffffffffffffffffffffffffffffffffffffffff168152602001908152602001600020818154811061185e57fe5b90600052602060002090600202016001018054600181600116156101000203166002900480601f0160208091040260200160405190810160405280929190818152602001828054600181600116156101000203166002900480156119035780601f106118d857610100808354040283529160200191611903565b820191906000526020600020905b8154815290600101906020018083116118e657829003601f168201915b505050505082828151811061191457fe5b6020026020010181905250808060010191505061180c565b508092505050919050565b6004602052806000526040600020600091509050806000018054600181600116156101000203166002900480601f0160208091040260200160405190810160405280929190818152602001828054600181600116156101000203166002900480156119e35780601f106119b8576101008083540402835291602001916119e3565b820191906000526020600020905b8154815290600101906020018083116119c657829003601f168201915b5050505050908060010160009054906101000a900460ff1690806003018054600181600116156101000203166002900480601f016020809104026020016040519081016040528092919081815260200182805460018160011615610100020316600290048015611a945780601f10611a6957610100808354040283529160200191611a94565b820191906000526020600020905b815481529060010190602001808311611a7757829003601f168201915b505050505090806004018054600181600116156101000203166002900480601f016020809104026020016040519081016040528092919081815260200182805460018160011615610100020316600290048015611b325780601f10611b0757610100808354040283529160200191611b32565b820191906000526020600020905b815481529060010190602001808311611b1557829003601f168201915b505050505090806005018054600181600116156101000203166002900480601f016020809104026020016040519081016040528092919081815260200182805460018160011615610100020316600290048015611bd05780601f10611ba557610100808354040283529160200191611bd0565b820191906000526020600020905b815481529060010190602001808311611bb357829003601f168201915b5050505050905085565b60008060003373ffffffffffffffffffffffffffffffffffffffff1673ffffffffffffffffffffffffffffffffffffffff1681526020019081526020016000206000018054600181600116156101000203166002900490501180611c8b5750600260009054906101000a900473ffffffffffffffffffffffffffffffffffffffff1673ffffffffffffffffffffffffffffffffffffffff163373ffffffffffffffffffffffffffffffffffffffff16145b611cca576040517f08c379a0000000000000000000000000000000000000000000000000000000008152600401611cc1906156e2565b60405180910390fd5b6005600081548092919060010191905055506000600460006005548152602001908152602001600020905084816000019080519060200190611d0d9291906143be565b5060018160010160006101000a81548160ff02191690831515021790555083816003019080519060200190611d439291906143be565b5082816004019080519060200190611d5c9291906143be565b5081816005019080519060200190611d759291906143be565b50611d833360055487614310565b7f52be7c4e77b4de76b7607d621492061fe13b58597e72dfb5e51ab8f6187ed14160055486604051611db692919061578b565b60405180910390a15050505050565b60606000808373ffffffffffffffffffffffffffffffffffffffff1673ffffffffffffffffffffffffffffffffffffffff1681526020019081526020016000206002018054600181600116156101000203166002900480601f016020809104026020016040519081016040528092919081815260200182805460018160011615610100020316600290048015611e9c5780601f10611e7157610100808354040283529160200191611e9c565b820191906000526020600020905b815481529060010190602001808311611e7f57829003601f168201915b50505050509050919050565b6060600083118015611ebc57506005548311155b611efb576040517f08c379a0000000000000000000000000000000000000000000000000000000008152600401611ef2906155e2565b60405180910390fd5b60046000848152602001908152602001600020600201805490508210611f56576040517f08c379a0000000000000000000000000000000000000000000000000000000008152600401611f4d90615642565b60405180910390fd5b600460008481526020019081526020016000206002018281548110611f7757fe5b90600052602060002090600502016001018054600181600116156101000203166002900480601f01602080910402602001604051908101604052809291908181526020018280546001816001161561010002031660029004801561201c5780601f10611ff15761010080835404028352916020019161201c565b820191906000526020600020905b815481529060010190602001808311611fff57829003601f168201915b5050505050905092915050565b6060600360008373ffffffffffffffffffffffffffffffffffffffff1673ffffffffffffffffffffffffffffffffffffffff1681526020019081526020016000206002018054806020026020016040519081016040528092919081815260200182805480156120b757602002820191906000526020600020905b8154815260200190600101908083116120a3575b50505050509050919050565b60606000821180156120d757506005548211155b612116576040517f08c379a000000000000000000000000000000000000000000000000000000000815260040161210d906155e2565b60405180910390fd5b60006004600084815260200190815260200160002060020180549050905060608160405190808252806020026020018201604052801561216a57816020015b60608152602001906001900390816121555790505b50905060008090505b8281101561226a5760046000868152602001908152602001600020600201818154811061219c57fe5b90600052602060002090600502016000018054600181600116156101000203166002900480601f0160208091040260200160405190810160405280929190818152602001828054600181600116156101000203166002900480156122415780601f1061221657610100808354040283529160200191612241565b820191906000526020600020905b81548152906001019060200180831161222457829003601f168201915b505050505082828151811061225257fe5b60200260200101819052508080600101915050612173565b508092505050919050565b606060008211801561228957506005548211155b6122c8576040517f08c379a00000000000000000000000000000000000000000000000000000000081526004016122bf906155e2565b60405180910390fd5b600460008381526020019081526020016000206005018054600181600116156101000203166002900480601f0160208091040260200160405190810160405280929190818152602001828054600181600116156101000203166002900480156123725780601f1061234757610100808354040283529160200191612372565b820191906000526020600020905b81548152906001019060200180831161235557829003601f168201915b50505050509050919050565b61238784611045565b6123c6576040517f08c379a00000000000000000000000000000000000000000000000000000000081526004016123bd906155c2565b60405180910390fd5b826000808673ffffffffffffffffffffffffffffffffffffffff1673ffffffffffffffffffffffffffffffffffffffff168152602001908152602001600020600001908051906020019061241b9291906143be565b50816000808673ffffffffffffffffffffffffffffffffffffffff1673ffffffffffffffffffffffffffffffffffffffff16815260200190815260200160002060010190805190602001906124719291906143be565b50806000808673ffffffffffffffffffffffffffffffffffffffff1673ffffffffffffffffffffffffffffffffffffffff16815260200190815260200160002060020190805190602001906124c79291906143be565b5050505050565b60606000821180156124e257506005548211155b612521576040517f08c379a0000000000000000000000000000000000000000000000000000000008152600401612518906155e2565b60405180910390fd5b600460008381526020019081526020016000206003018054600181600116156101000203166002900480601f0160208091040260200160405190810160405280929190818152602001828054600181600116156101000203166002900480156125cb5780601f106125a0576101008083540402835291602001916125cb565b820191906000526020600020905b8154815290600101906020018083116125ae57829003601f168201915b50505050509050919050565b60606000831180156125eb57506005548311155b61262a576040517f08c379a0000000000000000000000000000000000000000000000000000000008152600401612621906155e2565b60405180910390fd5b60046000848152602001908152602001600020600201805490508210612685576040517f08c379a000000000000000000000000000000000000000000000000000000000815260040161267c90615642565b60405180910390fd5b6004600084815260200190815260200160002060020182815481106126a657fe5b90600052602060002090600502016002018054600181600116156101000203166002900480601f01602080910402602001604051908101604052809291908181526020018280546001816001161561010002031660029004801561274b5780601f106127205761010080835404028352916020019161274b565b820191906000526020600020905b81548152906001019060200180831161272e57829003601f168201915b5050505050905092915050565b60055481565b6003602052806000526040600020600091509050806000018054600181600116156101000203166002900480601f01602080910402602001604051908101604052809291908181526020018280546001816001161561010002031660029004801561280a5780601f106127df5761010080835404028352916020019161280a565b820191906000526020600020905b8154815290600101906020018083116127ed57829003601f168201915b505050505090806001018054600181600116156101000203166002900480601f0160208091040260200160405190810160405280929190818152602001828054600181600116156101000203166002900480156128a85780601f1061287d576101008083540402835291602001916128a8565b820191906000526020600020905b81548152906001019060200180831161288b57829003601f168201915b5050505050905082565b60606000831180156128c657506005548311155b612905576040517f08c379a00000000000000000000000000000000000000000000000000000000081526004016128fc906155e2565b60405180910390fd5b60046000848152602001908152602001600020600201805490508210612960576040517f08c379a000000000000000000000000000000000000000000000000000000000815260040161295790615642565b60405180910390fd5b60046000848152602001908152602001600020600201828154811061298157fe5b90600052602060002090600502016003018054600181600116156101000203166002900480601f016020809104026020016040519081016040528092919081815260200182805460018160011615610100020316600290048015612a265780601f106129fb57610100808354040283529160200191612a26565b820191906000526020600020905b815481529060010190602001808311612a0957829003601f168201915b5050505050905092915050565b6060600083118015612a4757506005548311155b612a86576040517f08c379a0000000000000000000000000000000000000000000000000000000008152600401612a7d906155e2565b60405180910390fd5b60046000848152602001908152602001600020600201805490508210612ae1576040517f08c379a0000000000000000000000000000000000000000000000000000000008152600401612ad890615642565b60405180910390fd5b600460008481526020019081526020016000206002018281548110612b0257fe5b90600052602060002090600502016000018054600181600116156101000203166002900480601f016020809104026020016040519081016040528092919081815260200182805460018160011615610100020316600290048015612ba75780601f10612b7c57610100808354040283529160200191612ba7565b820191906000526020600020905b815481529060010190602001808311612b8a57829003601f168201915b5050505050905092915050565b6000602052806000526040600020600091509050806000018054600181600116156101000203166002900480601f016020809104026020016040519081016040528092919081815260200182805460018160011615610100020316600290048015612c605780601f10612c3557610100808354040283529160200191612c60565b820191906000526020600020905b815481529060010190602001808311612c4357829003601f168201915b505050505090806001018054600181600116156101000203166002900480601f016020809104026020016040519081016040528092919081815260200182805460018160011615610100020316600290048015612cfe5780601f10612cd357610100808354040283529160200191612cfe565b820191906000526020600020905b815481529060010190602001808311612ce157829003601f168201915b505050505090806002018054600181600116156101000203166002900480601f016020809104026020016040519081016040528092919081815260200182805460018160011615610100020316600290048015612d9c5780601f10612d7157610100808354040283529160200191612d9c565b820191906000526020600020905b815481529060010190602001808311612d7f57829003601f168201915b5050505050905083565b6040518060600160405280848152602001838152602001828152506000803373ffffffffffffffffffffffffffffffffffffffff1673ffffffffffffffffffffffffffffffffffffffff1681526020019081526020016000206000820151816000019080519060200190612e1b92919061443e565b506020820151816001019080519060200190612e3892919061443e565b506040820151816002019080519060200190612e5592919061443e565b50905050505050565b600080600160008573ffffffffffffffffffffffffffffffffffffffff1673ffffffffffffffffffffffffffffffffffffffff168152602001908152602001600020905060008090505b8180549050811015612f28578380519060200120828281548110612ec857fe5b9060005260206000209060020201600101604051612ee691906153ad565b60405180910390201415612f1b57818181548110612f0057fe5b90600052602060002090600202016000015492505050612f64565b8080600101915050612ea8565b506040517f08c379a0000000000000000000000000000000000000000000000000000000008152600401612f5b90615662565b60405180910390fd5b92915050565b60606000808373ffffffffffffffffffffffffffffffffffffffff1673ffffffffffffffffffffffffffffffffffffffff1681526020019081526020016000206000018054600181600116156101000203166002900480601f0160208091040260200160405190810160405280929190818152602001828054600181600116156101000203166002900480156130415780601f1061301657610100808354040283529160200191613041565b820191906000526020600020905b81548152906001019060200180831161302457829003601f168201915b50505050509050919050565b60008060003373ffffffffffffffffffffffffffffffffffffffff1673ffffffffffffffffffffffffffffffffffffffff16815260200190815260200160002060000180546001816001161561010002031660029004905011806130fe5750600260009054906101000a900473ffffffffffffffffffffffffffffffffffffffff1673ffffffffffffffffffffffffffffffffffffffff163373ffffffffffffffffffffffffffffffffffffffff16145b61313d576040517f08c379a0000000000000000000000000000000000000000000000000000000008152600401613134906156e2565b60405180910390fd5b60008511801561314f57506005548511155b61318e576040517f08c379a0000000000000000000000000000000000000000000000000000000008152600401613185906155e2565b60405180910390fd5b6000600460008781526020019081526020016000209050848160000190805190602001906131bd9291906143be565b50838160030190805190602001906131d69291906143be565b50828160040190805190602001906131ef9291906143be565b50818160050190805190602001906132089291906143be565b506000600160003373ffffffffffffffffffffffffffffffffffffffff1673ffffffffffffffffffffffffffffffffffffffff168152602001908152602001600020905060008090505b81805490508110156132c7578782828154811061326b57fe5b90600052602060002090600202016000015414156132ba578682828154811061329057fe5b906000526020600020906002020160010190805190602001906132b49291906143be565b506132c7565b8080600101915050613252565b507f52be7c4e77b4de76b7607d621492061fe13b58597e72dfb5e51ab8f6187ed14187876040516132f992919061578b565b60405180910390a150505050505050565b60008060003373ffffffffffffffffffffffffffffffffffffffff1673ffffffffffffffffffffffffffffffffffffffff16815260200190815260200160002060000180546001816001161561010002031660029004905011806133bb5750600260009054906101000a900473ffffffffffffffffffffffffffffffffffffffff1673ffffffffffffffffffffffffffffffffffffffff163373ffffffffffffffffffffffffffffffffffffffff16145b6133fa576040517f08c379a00000000000000000000000000000000000000000000000000000000081526004016133f1906156e2565b60405180910390fd5b60008211801561340c57506005548211155b61344b576040517f08c379a0000000000000000000000000000000000000000000000000000000008152600401613442906155e2565b60405180910390fd5b600460008381526020019081526020016000206002018054905081106134a6576040517f08c379a000000000000000000000000000000000000000000000000000000000815260040161349d90615642565b60405180910390fd5b60008190505b60016004600085815260200190815260200160002060020180549050038110156135eb576004600084815260200190815260200160002060020160018201815481106134f457fe5b906000526020600020906005020160046000858152602001908152602001600020600201828154811061352357fe5b9060005260206000209060050201600082018160000190805460018160011615610100020316600290046135589291906144be565b50600182018160010190805460018160011615610100020316600290046135809291906144be565b50600282018160020190805460018160011615610100020316600290046135a89291906144be565b50600382018160030190805460018160011615610100020316600290046135d09291906144be565b506004820154816004015590505080806001019150506134ac565b506004600083815260200190815260200160002060020180548061360b57fe5b6001900381819060005260206000209060050201600080820160006136309190614545565b6001820160006136409190614545565b6002820160006136509190614545565b6003820160006136609190614545565b6004820160009055505090555050565b6000600360008573ffffffffffffffffffffffffffffffffffffffff1673ffffffffffffffffffffffffffffffffffffffff16815260200190815260200160002060000180546001816001161561010002031660029004905014613709576040517f08c379a000000000000000000000000000000000000000000000000000000000815260040161370090615602565b60405180910390fd5b604051806060016040528083815260200182815260200160006040519080825280602002602001820160405280156137505781602001602082028038833980820191505090505b50815250600360008573ffffffffffffffffffffffffffffffffffffffff1673ffffffffffffffffffffffffffffffffffffffff16815260200190815260200160002060008201518160000190805190602001906137af92919061443e565b5060208201518160010190805190602001906137cc92919061443e565b5060408201518160020190805190602001906137e992919061458d565b50905050505050565b60606000600360008473ffffffffffffffffffffffffffffffffffffffff1673ffffffffffffffffffffffffffffffffffffffff16815260200190815260200160002090506000816000018054600181600116156101000203166002900490501115613883578060000160405160200161386c91906153c4565b604051602081830303815290604052915050613885565b505b919050565b6060806005546040519080825280602002602001820160405280156138c357816020015b60608152602001906001900390816138ae5790505b50905060008090505b6005548110156139ac57600460006001830181526020019081526020016000206000018054600181600116156101000203166002900480601f0160208091040260200160405190810160405280929190818152602001828054600181600116156101000203166002900480156139835780601f1061395857610100808354040283529160200191613983565b820191906000526020600020905b81548152906001019060200180831161396657829003601f168201915b505050505082828151811061399457fe5b602002602001018190525080806001019150506138cc565b508091505090565b6060806000831180156139c957506005548311155b613a08576040517f08c379a00000000000000000000000000000000000000000000000000000000081526004016139ff906155e2565b60405180910390fd5b600060046000858152602001908152602001600020905060608160020180549050604051908082528060200260200182016040528015613a575781602001602082028038833980820191505090505b50905060008090505b8260020180549050811015613ab557826002018181548110613a7e57fe5b906000526020600020906005020160040154828281518110613a9c57fe5b6020026020010181815250508080600101915050613a60565b508160000181818054600181600116156101000203166002900480601f016020809104026020016040519081016040528092919081815260200182805460018160011615610100020316600290048015613b505780601f10613b2557610100808354040283529160200191613b50565b820191906000526020600020905b815481529060010190602001808311613b3357829003601f168201915b50505050509150935093505050915091565b600033905090565b60606000600160008473ffffffffffffffffffffffffffffffffffffffff1673ffffffffffffffffffffffffffffffffffffffff168152602001908152602001600020805490509050606081604051908082528060200260200182016040528015613be45781602001602082028038833980820191505090505b50905060008090505b82811015613c7657600160008673ffffffffffffffffffffffffffffffffffffffff1673ffffffffffffffffffffffffffffffffffffffff1681526020019081526020016000208181548110613c3f57fe5b906000526020600020906002020160000154828281518110613c5d57fe5b6020026020010181815250508080600101915050613bed565b508092505050919050565b60008060003373ffffffffffffffffffffffffffffffffffffffff1673ffffffffffffffffffffffffffffffffffffffff1681526020019081526020016000206000018054600181600116156101000203166002900490501180613d325750600260009054906101000a900473ffffffffffffffffffffffffffffffffffffffff1673ffffffffffffffffffffffffffffffffffffffff163373ffffffffffffffffffffffffffffffffffffffff16145b613d71576040517f08c379a0000000000000000000000000000000000000000000000000000000008152600401613d68906156e2565b60405180910390fd5b600086118015613d8357506005548611155b613dc2576040517f08c379a0000000000000000000000000000000000000000000000000000000008152600401613db9906155e2565b60405180910390fd5b60046000878152602001908152602001600020600201805490508510613e1d576040517f08c379a0000000000000000000000000000000000000000000000000000000008152600401613e1490615642565b60405180910390fd5b6000600460008881526020019081526020016000206002018681548110613e4057fe5b90600052602060002090600502019050848051906020012081600001604051613e6991906153ad565b604051809103902014613e905784816000019080519060200190613e8e9291906143be565b505b838051906020012081600101604051613ea991906153ad565b604051809103902014613ed05783816001019080519060200190613ece9291906143be565b505b828051906020012081600201604051613ee991906153ad565b604051809103902014613f105782816002019080519060200190613f0e9291906143be565b505b818051906020012081600301604051613f2991906153ad565b604051809103902014613f505781816003019080519060200190613f4e9291906143be565b505b50505050505050565b6060600082118015613f6d57506005548211155b613fac576040517f08c379a0000000000000000000000000000000000000000000000000000000008152600401613fa3906155e2565b60405180910390fd5b600460008381526020019081526020016000206004018054600181600116156101000203166002900480601f0160208091040260200160405190810160405280929190818152602001828054600181600116156101000203166002900480156140565780601f1061402b57610100808354040283529160200191614056565b820191906000526020600020905b81548152906001019060200180831161403957829003601f168201915b50505050509050919050565b60008211801561407457506005548211155b6140b3576040517f08c379a00000000000000000000000000000000000000000000000000000000081526004016140aa906155e2565b60405180910390fd5b60006004600084815260200190815260200160002090508060010160009054906101000a900460ff1661411b576040517f08c379a0000000000000000000000000000000000000000000000000000000008152600401614112906156a2565b60405180910390fd5b8060060160003373ffffffffffffffffffffffffffffffffffffffff1673ffffffffffffffffffffffffffffffffffffffff16815260200190815260200160002060009054906101000a900460ff16156141aa576040517f08c379a00000000000000000000000000000000000000000000000000000000081526004016141a1906156c2565b60405180910390fd5b60008090505b825181101561420957816002018382815181106141c957fe5b6020026020010151815481106141db57fe5b90600052602060002090600502016004016000815480929190600101919050555080806001019150506141b0565b5060018160060160003373ffffffffffffffffffffffffffffffffffffffff1673ffffffffffffffffffffffffffffffffffffffff16815260200190815260200160002060006101000a81548160ff021916908315150217905550600360003373ffffffffffffffffffffffffffffffffffffffff1673ffffffffffffffffffffffffffffffffffffffff1681526020019081526020016000206002018390806001815401808255809150509060018203906000526020600020016000909192909190915055507f080e2b87a3c8996025fe2aa92236ac4f958879a65c31df1b67991f80294fde8e8383336040516143039392919061571d565b60405180910390a1505050565b600160008473ffffffffffffffffffffffffffffffffffffffff1673ffffffffffffffffffffffffffffffffffffffff168152602001908152602001600020604051806040016040528084815260200183815250908060018154018082558091505090600182039060005260206000209060020201600090919290919091506000820151816000015560208201518160010190805190602001906143b592919061443e565b50505050505050565b828054600181600116156101000203166002900490600052602060002090601f016020900481019282601f106143ff57805160ff191683800117855561442d565b8280016001018555821561442d579182015b8281111561442c578251825591602001919060010190614411565b5b50905061443a91906145da565b5090565b828054600181600116156101000203166002900490600052602060002090601f016020900481019282601f1061447f57805160ff19168380011785556144ad565b828001600101855582156144ad579182015b828111156144ac578251825591602001919060010190614491565b5b5090506144ba91906145da565b5090565b828054600181600116156101000203166002900490600052602060002090601f016020900481019282601f106144f75780548555614534565b8280016001018555821561453457600052602060002091601f016020900482015b82811115614533578254825591600101919060010190614518565b5b50905061454191906145da565b5090565b50805460018160011615610100020316600290046000825580601f1061456b575061458a565b601f01602090049060005260206000209081019061458991906145da565b5b50565b8280548282559060005260206000209081019282156145c9579160200282015b828111156145c85782518255916020019190600101906145ad565b5b5090506145d691906145da565b5090565b6145fc91905b808211156145f85760008160009055506001016145e0565b5090565b90565b60008135905061460e81615a30565b92915050565b600082601f83011261462557600080fd5b8135614638614633826157e8565b6157bb565b9150818183526020840193506020810190508385602084028201111561465d57600080fd5b60005b8381101561468d578161467388826146eb565b845260208401935060208301925050600181019050614660565b5050505092915050565b600082601f8301126146a857600080fd5b81356146bb6146b682615810565b6157bb565b915080825260208301602083018583830111156146d757600080fd5b6146e28382846159dd565b50505092915050565b6000813590506146fa81615a47565b92915050565b60006020828403121561471257600080fd5b6000614720848285016145ff565b91505092915050565b6000806040838503121561473c57600080fd5b600061474a858286016145ff565b925050602083013567ffffffffffffffff81111561476757600080fd5b61477385828601614697565b9150509250929050565b60008060006060848603121561479257600080fd5b60006147a0868287016145ff565b935050602084013567ffffffffffffffff8111156147bd57600080fd5b6147c986828701614697565b925050604084013567ffffffffffffffff8111156147e657600080fd5b6147f286828701614697565b9150509250925092565b6000806000806080858703121561481257600080fd5b6000614820878288016145ff565b945050602085013567ffffffffffffffff81111561483d57600080fd5b61484987828801614697565b935050604085013567ffffffffffffffff81111561486657600080fd5b61487287828801614697565b925050606085013567ffffffffffffffff81111561488f57600080fd5b61489b87828801614697565b91505092959194509250565b600080604083850312156148ba57600080fd5b60006148c8858286016145ff565b92505060206148d9858286016146eb565b9150509250929050565b6000806000606084860312156148f857600080fd5b600084013567ffffffffffffffff81111561491257600080fd5b61491e86828701614697565b935050602084013567ffffffffffffffff81111561493b57600080fd5b61494786828701614697565b925050604084013567ffffffffffffffff81111561496457600080fd5b61497086828701614697565b9150509250925092565b6000806000806080858703121561499057600080fd5b600085013567ffffffffffffffff8111156149aa57600080fd5b6149b687828801614697565b945050602085013567ffffffffffffffff8111156149d357600080fd5b6149df87828801614697565b935050604085013567ffffffffffffffff8111156149fc57600080fd5b614a0887828801614697565b925050606085013567ffffffffffffffff811115614a2557600080fd5b614a3187828801614697565b91505092959194509250565b600060208284031215614a4f57600080fd5b6000614a5d848285016146eb565b91505092915050565b60008060408385031215614a7957600080fd5b6000614a87858286016146eb565b925050602083013567ffffffffffffffff811115614aa457600080fd5b614ab085828601614614565b9150509250929050565b60008060408385031215614acd57600080fd5b6000614adb858286016146eb565b925050602083013567ffffffffffffffff811115614af857600080fd5b614b0485828601614697565b9150509250929050565b600080600080600060a08688031215614b2657600080fd5b6000614b34888289016146eb565b955050602086013567ffffffffffffffff811115614b5157600080fd5b614b5d88828901614697565b945050604086013567ffffffffffffffff811115614b7a57600080fd5b614b8688828901614697565b935050606086013567ffffffffffffffff811115614ba357600080fd5b614baf88828901614697565b925050608086013567ffffffffffffffff811115614bcc57600080fd5b614bd888828901614697565b9150509295509295909350565b60008060408385031215614bf857600080fd5b6000614c06858286016146eb565b9250506020614c17858286016146eb565b9150509250929050565b60008060008060008060c08789031215614c3a57600080fd5b6000614c4889828a016146eb565b9650506020614c5989828a016146eb565b955050604087013567ffffffffffffffff811115614c7657600080fd5b614c8289828a01614697565b945050606087013567ffffffffffffffff811115614c9f57600080fd5b614cab89828a01614697565b935050608087013567ffffffffffffffff811115614cc857600080fd5b614cd489828a01614697565b92505060a087013567ffffffffffffffff811115614cf157600080fd5b614cfd89828a01614697565b9150509295509295509295565b6000614d168383614f86565b905092915050565b6000614d2a8383615352565b905092915050565b6000614d3e838361538f565b60208301905092915050565b614d53816159a7565b82525050565b614d628161595f565b82525050565b6000614d7382615896565b614d7d81856158f4565b935083602082028501614d8f8561583c565b8060005b85811015614dcb5784840389528151614dac8582614d0a565b9450614db7836158cd565b925060208a01995050600181019050614d93565b50829750879550505050505092915050565b6000614de8826158a1565b614df28185615905565b935083602082028501614e048561584c565b8060005b85811015614e405784840389528151614e218582614d1e565b9450614e2c836158da565b925060208a01995050600181019050614e08565b50829750879550505050505092915050565b6000614e5d826158ac565b614e678185615916565b9350614e728361585c565b8060005b83811015614ea3578151614e8a8882614d32565b9750614e95836158e7565b925050600181019050614e76565b5085935050505092915050565b614eb981615971565b82525050565b600081546001811660008114614edc5760018114614f0157614f45565b607f6002830416614eed8187615927565b955060ff1983168652808601935050614f45565b60028204614f0f8187615927565b9550614f1a8561586c565b60005b82811015614f3c57815481890152600182019150602081019050614f1d565b82880195505050505b505092915050565b6000614f58826158c2565b614f628185615943565b9350614f728185602086016159ec565b614f7b81615a1f565b840191505092915050565b6000614f91826158b7565b614f9b8185615932565b9350614fab8185602086016159ec565b614fb481615a1f565b840191505092915050565b6000614fca826158b7565b614fd48185615943565b9350614fe48185602086016159ec565b614fed81615a1f565b840191505092915050565b600081546001811660008114615015576001811461503a5761507e565b607f60028304166150268187615954565b955060ff198316865280860193505061507e565b600282046150488187615954565b955061505385615881565b60005b8281101561507557815481890152600182019150602081019050615056565b82880195505050505b505092915050565b6000615093601283615943565b91507f4f726720646f6573206e6f7420657869737400000000000000000000000000006000830152602082019050919050565b60006150d3601783615943565b91507f456c656374696f6e20646f6573206e6f742065786973740000000000000000006000830152602082019050919050565b6000615113601383615943565b91507f5573657220616c726561647920657869737473000000000000000000000000006000830152602082019050919050565b6000615153602883615943565b91507f456c656374696f6e20646f6573206e6f74206578697374206f72206973206e6f60008301527f74206163746976650000000000000000000000000000000000000000000000006020830152604082019050919050565b60006151b9601883615943565b91507f43616e64696461746520646f6573206e6f7420657869737400000000000000006000830152602082019050919050565b60006151f9601283615943565b91507f456c656374696f6e206e6f7420666f756e6400000000000000000000000000006000830152602082019050919050565b6000615239601383615943565b91507f5573657220646f6573206e6f74206578697374000000000000000000000000006000830152602082019050919050565b6000615279601683615943565b91507f456c656374696f6e206973206e6f7420616374697665000000000000000000006000830152602082019050919050565b60006152b9601683615943565b91507f596f75206861766520616c726561647920766f746564000000000000000000006000830152602082019050919050565b60006152f9602a83615943565b91507f4f6e6c7920746865206f7267616e697a65722063616e20706572666f726d207460008301527f68697320616374696f6e000000000000000000000000000000000000000000006020830152604082019050919050565b600060408301600083015161536a600086018261538f565b50602083015184820360208601526153828282614f86565b9150508091505092915050565b6153988161599d565b82525050565b6153a78161599d565b82525050565b60006153b98284614ebf565b915081905092915050565b60006153d08284614ff8565b915081905092915050565b60006020820190506153f06000830184614d59565b92915050565b600060208201905081810360008301526154108184614d68565b905092915050565b600060208201905081810360008301526154328184614ddd565b905092915050565b600060208201905081810360008301526154548184614e52565b905092915050565b60006020820190506154716000830184614eb0565b92915050565b600060208201905081810360008301526154918184614f4d565b905092915050565b600060408201905081810360008301526154b38185614f4d565b905081810360208301526154c78184614e52565b90509392505050565b600060a08201905081810360008301526154ea8188614fbf565b90506154f96020830187614eb0565b818103604083015261550b8186614fbf565b9050818103606083015261551f8185614fbf565b905081810360808301526155338184614fbf565b90509695505050505050565b600060408201905081810360008301526155598185614fbf565b9050818103602083015261556d8184614fbf565b90509392505050565b600060608201905081810360008301526155908186614fbf565b905081810360208301526155a48185614fbf565b905081810360408301526155b88184614fbf565b9050949350505050565b600060208201905081810360008301526155db81615086565b9050919050565b600060208201905081810360008301526155fb816150c6565b9050919050565b6000602082019050818103600083015261561b81615106565b9050919050565b6000602082019050818103600083015261563b81615146565b9050919050565b6000602082019050818103600083015261565b816151ac565b9050919050565b6000602082019050818103600083015261567b816151ec565b9050919050565b6000602082019050818103600083015261569b8161522c565b9050919050565b600060208201905081810360008301526156bb8161526c565b9050919050565b600060208201905081810360008301526156db816152ac565b9050919050565b600060208201905081810360008301526156fb816152ec565b9050919050565b6000602082019050615717600083018461539e565b92915050565b6000606082019050615732600083018661539e565b81810360208301526157448185614e52565b90506157536040830184614d4a565b949350505050565b6000604082019050615770600083018561539e565b81810360208301526157828184614fbf565b90509392505050565b60006040820190506157a0600083018561539e565b81810360208301526157b28184614f4d565b90509392505050565b6000604051905081810181811067ffffffffffffffff821117156157de57600080fd5b8060405250919050565b600067ffffffffffffffff8211156157ff57600080fd5b602082029050602081019050919050565b600067ffffffffffffffff82111561582757600080fd5b601f19601f8301169050602081019050919050565b6000819050602082019050919050565b6000819050602082019050919050565b6000819050602082019050919050565b60008190508160005260206000209050919050565b60008190508160005260206000209050919050565b600081519050919050565b600081519050919050565b600081519050919050565b600081519050919050565b600081519050919050565b6000602082019050919050565b6000602082019050919050565b6000602082019050919050565b600082825260208201905092915050565b600082825260208201905092915050565b600082825260208201905092915050565b600081905092915050565b600082825260208201905092915050565b600082825260208201905092915050565b600081905092915050565b600061596a8261597d565b9050919050565b60008115159050919050565b600073ffffffffffffffffffffffffffffffffffffffff82169050919050565b6000819050919050565b60006159b2826159b9565b9050919050565b60006159c4826159cb565b9050919050565b60006159d68261597d565b9050919050565b82818337600083830152505050565b60005b83811015615a0a5780820151818401526020810190506159ef565b83811115615a19576000848401525b50505050565b6000601f19601f8301169050919050565b615a398161595f565b8114615a4457600080fd5b50565b615a508161599d565b8114615a5b57600080fd5b5056fea365627a7a72315820ad9314e37f6849ea6e535348a638cc1de3fd7143a21dc72f33809e5248821eb46c6578706572696d656e74616cf564736f6c63430005100040",
  "source": "// SPDX-License-Identifier: MIT\r\npragma solidity  >=0.4.21 <=0.8.20;\r\npragma experimental ABIEncoderV2;\r\n\r\n\r\ncontract DecentralizedVoting {\r\n    //address[] public org;\r\n\r\n    mapping(address => UserOrg) public org;\r\n\r\n    struct UserOrg {\r\n        string orgName;\r\n        string userName;\r\n        string email;\r\n    }\r\n\r\n    mapping (address => CreatedElections[]) public ownedElections;\r\n\r\n    struct CreatedElections {\r\n        uint256 electionId;\r\n        string electionName;\r\n    }\r\n\r\n\r\n    //mapping(address => uint[]) createdElectionID;\r\n\r\n    address deployer;\r\n\r\n    struct User {\r\n        string userName;\r\n        string email;\r\n        uint[] recentlyVotedIDs;\r\n    }\r\n\r\n    mapping(address => User) public users;\r\n\r\n    struct Candidate {\r\n        string name;\r\n        string position;\r\n        string platform;\r\n        string cdn;\r\n        uint256 voteCount;\r\n    }\r\n\r\n    \r\n\r\n    struct Election {\r\n        string name;\r\n        bool active;\r\n        Candidate[] candidates;\r\n        string startDate;\r\n        string endDate;\r\n        string domainFilter;\r\n        mapping(address => bool) hasVoted;\r\n    }\r\n\r\n    mapping(uint256 => Election) public elections;\r\n    uint256 public electionCount;\r\n\r\n    event ElectionCreated(uint256 electionId, string name);\r\n    event CandidateAdded(uint256 electionId, string name);\r\n    event Voted(uint256 electionId, uint256[] candidateIndex, address voter);\r\n\r\n    modifier onlyOrg() {\r\n        \r\n        require(bytes(org[msg.sender].orgName).length > 0 || msg.sender == deployer, \"Only the organizer can perform this action\");\r\n        _;\r\n    }\r\n\r\n    constructor() public {\r\n        deployer = msg.sender;\r\n    }\r\n\r\n     // Create a new election (only owner)\r\n    function createElection(string memory _name, string memory _startDate, string memory _endDate, string memory _domainFilter) public onlyOrg {\r\n        electionCount++;\r\n        Election storage newElection = elections[electionCount];\r\n        newElection.name = _name;\r\n        newElection.active = true;\r\n        newElection.startDate = _startDate;\r\n        newElection.endDate = _endDate;\r\n        newElection.domainFilter = _domainFilter;\r\n        addToOwnedElections(msg.sender, electionCount, _name);\r\n        emit ElectionCreated(electionCount, _name);\r\n    }\r\n\r\n\r\n\r\n\r\n    \r\n    // Update election details\r\n    function updateElectionDetails(uint256 _electionId, string memory _newName, string memory _startDate, string memory _endDate, string memory _newDomainFilter) public onlyOrg {\r\n        require(_electionId > 0 && _electionId <= electionCount, \"Election does not exist\");\r\n        Election storage election = elections[_electionId];\r\n        \r\n        election.name = _newName;\r\n        election.startDate = _startDate;\r\n        election.endDate = _endDate;\r\n        election.domainFilter = _newDomainFilter;\r\n\r\n        // Update the name in the owned elections\r\n        CreatedElections[] storage electionsList = ownedElections[msg.sender];\r\n        for (uint256 i = 0; i < electionsList.length; i++) {\r\n            if (electionsList[i].electionId == _electionId) {\r\n                electionsList[i].electionName = _newName;\r\n                break;\r\n            }\r\n        }\r\n\r\n        // Emit an event for the update\r\n        emit ElectionCreated(_electionId, _newName);\r\n    }\r\n\r\n\r\n\r\n\r\n    function addToOwnedElections(address organizer, uint256 _electionId, string memory _electionName) internal {\r\n        ownedElections[organizer].push(CreatedElections({\r\n        electionId: _electionId,\r\n        electionName: _electionName\r\n    }));\r\n    }\r\n\r\n    function getOwnedElections(address organizer) public view returns (CreatedElections[] memory) {\r\n        return ownedElections[organizer];\r\n    }\r\n\r\n\r\n\r\n    function getOwnedElectionIds(address organizer) public view returns (uint256[] memory) {\r\n    uint256 count = ownedElections[organizer].length;\r\n    uint256[] memory ids = new uint256[](count);\r\n\r\n    for (uint256 i = 0; i < count; i++) {\r\n        ids[i] = ownedElections[organizer][i].electionId;\r\n    }\r\n\r\n    return ids;\r\n    }\r\n\r\n    function getOwnedElectionNames(address organizer) public view returns (string[] memory) {\r\n        uint256 count = ownedElections[organizer].length;\r\n        string[] memory names = new string[](count);\r\n\r\n        for (uint256 i = 0; i < count; i++) {\r\n            names[i] = ownedElections[organizer][i].electionName;\r\n        }\r\n\r\n        return names;\r\n    }\r\n\r\n    function getElectionIdByName(address organizer, string memory _name) public view returns (uint256) {\r\n    CreatedElections[] storage electionsList = ownedElections[organizer];\r\n    for (uint256 i = 0; i < electionsList.length; i++) {\r\n        if (keccak256(bytes(electionsList[i].electionName)) == keccak256(bytes(_name))) {\r\n            return electionsList[i].electionId;\r\n        }\r\n    }\r\n    revert(\"Election not found\");\r\n    }    \r\n\r\n    // Get election results\r\n    function getElectionResults(uint256 _electionId) public view returns (string memory, uint256[] memory) {\r\n        require(_electionId > 0 && _electionId <= electionCount, \"Election does not exist\");\r\n        Election storage election = elections[_electionId];\r\n\r\n        uint256[] memory votes = new uint256[](election.candidates.length);\r\n        for (uint256 i = 0; i < election.candidates.length; i++) {\r\n            votes[i] = election.candidates[i].voteCount;\r\n        }\r\n\r\n        return (election.name, votes);\r\n    }\r\n    \r\n    // Get election name\r\n    function getElectionName(uint256 _electionId) public view returns (string memory) {\r\n        require(_electionId > 0 && _electionId <= electionCount, \"Election does not exist\");\r\n        return elections[_electionId].name;\r\n    }\r\n\r\n    // Close an election (only owner)\r\n    function closeElection(uint256 _electionId) public onlyOrg {\r\n        require(_electionId > 0 && _electionId <= electionCount && elections[_electionId].active == true, \"Election does not exist or is not active\");\r\n        elections[_electionId].active = false;\r\n    }\r\n\r\n    \r\n    // Get list of all election names\r\n    function getElectionNames() public view returns (string[] memory) {\r\n        string[] memory electionNames = new string[](electionCount);\r\n\r\n        for (uint256 i = 0; i < electionCount; i++) {\r\n            electionNames[i] = elections[i + 1].name;\r\n        }\r\n\r\n        return electionNames;\r\n    }\r\n\r\n    \r\n    // Get election start date\r\n    function getElectionStartDate(uint256 _electionId) public view returns (string memory) {\r\n        require(_electionId > 0 && _electionId <= electionCount, \"Election does not exist\");\r\n        return elections[_electionId].startDate;\r\n    }\r\n\r\n    \r\n    // Get election end date\r\n    function getElectionEndDate(uint256 _electionId) public view returns (string memory) {\r\n        require(_electionId > 0 && _electionId <= electionCount, \"Election does not exist\");\r\n        return elections[_electionId].endDate;\r\n    }\r\n\r\n\r\n    \r\n    // Get election domain filter\r\n    function getElectionDomainFilter(uint256 _electionId) public view returns (string memory) {\r\n        require(_electionId > 0 && _electionId <= electionCount, \"Election does not exist\");\r\n        return elections[_electionId].domainFilter;\r\n    }\r\n\r\n    \r\n\r\n    // Get election status\r\n    function getElectionStatus(uint256 _electionId) public view returns (bool) {\r\n        require(_electionId > 0 && _electionId <= electionCount, \"Election does not exist\");\r\n        return elections[_electionId].active;\r\n    }\r\n\r\n    //end Election\r\n\r\n\r\n    // Add a candidate to an election (only owner)\r\n    function addCandidate(uint256 _electionId, string memory _candidateName, string memory _candidatePosition, string memory _platform, string memory _cdn) public onlyOrg {\r\n        require(_electionId > 0 && _electionId <= electionCount, \"Election does not exist\");\r\n        require(elections[_electionId].active, \"Election is not active\");\r\n\r\n        elections[_electionId].candidates.push(Candidate({ name: _candidateName, voteCount: 0 , position: _candidatePosition , platform: _platform, cdn: _cdn}));\r\n        emit CandidateAdded(_electionId, _candidateName);\r\n    }\r\n\r\n    \r\n    // Update candidate information\r\n    function updateCandidateInfo(uint256 _electionId, uint256 _candidateIndex, string memory _newName, string memory _newPosition, string memory _newPlatform, string memory _newcdn) public onlyOrg {\r\n        require(_electionId > 0 && _electionId <= electionCount, \"Election does not exist\");\r\n        require(_candidateIndex < elections[_electionId].candidates.length, \"Candidate does not exist\");\r\n        \r\n        Candidate storage candidate = elections[_electionId].candidates[_candidateIndex];\r\n        \r\n        if (keccak256(bytes(candidate.name)) != keccak256(bytes(_newName))) {\r\n            candidate.name = _newName;\r\n        }\r\n        \r\n        if (keccak256(bytes(candidate.position)) != keccak256(bytes(_newPosition))) {\r\n            candidate.position = _newPosition;\r\n        }\r\n        \r\n        if (keccak256(bytes(candidate.platform)) != keccak256(bytes(_newPlatform))) {\r\n            candidate.platform = _newPlatform;\r\n        }\r\n\r\n        if (keccak256(bytes(candidate.cdn)) != keccak256(bytes(_newcdn))) {\r\n            candidate.cdn = _newcdn;\r\n        }\r\n        \r\n        // TODO: update the event\r\n    }\r\n\r\n    // Delete a candidate from an election (only owner)\r\n    function deleteCandidate(uint256 _electionId, uint256 _candidateIndex) public onlyOrg {\r\n        require(_electionId > 0 && _electionId <= electionCount, \"Election does not exist\");\r\n        require(_candidateIndex < elections[_electionId].candidates.length, \"Candidate does not exist\");\r\n\r\n        // Remove the candidate by shifting elements to the left\r\n        for (uint256 i = _candidateIndex; i < elections[_electionId].candidates.length - 1; i++) {\r\n            elections[_electionId].candidates[i] = elections[_electionId].candidates[i + 1];\r\n        }\r\n        \r\n        // Remove the last element\r\n        elections[_electionId].candidates.pop();\r\n    }\r\n\r\n    \r\n\r\n    // Get the number of candidates in an election\r\n    function getCandidatesCount(uint256 _electionId) public view returns (uint256) {\r\n        require(_electionId > 0 && _electionId <= electionCount, \"Election does not exist\");\r\n        return elections[_electionId].candidates.length;\r\n    }\r\n\r\n\r\n    \r\n    // Get candidate name\r\n    function getCandidateName(uint256 _electionId, uint256 _candidateIndex) public view returns (string memory) {\r\n        require(_electionId > 0 && _electionId <= electionCount, \"Election does not exist\");\r\n        require(_candidateIndex < elections[_electionId].candidates.length, \"Candidate does not exist\");\r\n        return elections[_electionId].candidates[_candidateIndex].name;\r\n    }\r\n\r\n    \r\n    // Get candidate position\r\n    function getCandidatePosition(uint256 _electionId, uint256 _candidateIndex) public view returns (string memory) {\r\n        require(_electionId > 0 && _electionId <= electionCount, \"Election does not exist\");\r\n        require(_candidateIndex < elections[_electionId].candidates.length, \"Candidate does not exist\");\r\n        return elections[_electionId].candidates[_candidateIndex].position;\r\n    }\r\n\r\n\r\n    //get candidate platform\r\n    function getCandidatePlatform(uint256 _electionId, uint256 _candidateIndex) public view returns (string memory) {\r\n        require(_electionId > 0 && _electionId <= electionCount, \"Election does not exist\");\r\n        require(_candidateIndex < elections[_electionId].candidates.length, \"Candidate does not exist\");\r\n        return elections[_electionId].candidates[_candidateIndex].platform;\r\n    }\r\n\r\n    function getCandidateCdn(uint256 _electionId, uint256 _candidateIndex) public view returns (string memory) {\r\n        require(_electionId > 0 && _electionId <= electionCount, \"Election does not exist\");\r\n        require(_candidateIndex < elections[_electionId].candidates.length, \"Candidate does not exist\");\r\n        return elections[_electionId].candidates[_candidateIndex].cdn;\r\n    }\r\n\r\n\r\n    //get candidate names\r\n    function getCandidateNames(uint256 _electionId) public view returns (string[] memory) {\r\n        require(_electionId > 0 && _electionId <= electionCount, \"Election does not exist\");\r\n\r\n        uint256 candidateCount = elections[_electionId].candidates.length;\r\n        string[] memory candidateNames = new string[](candidateCount);\r\n\r\n        for (uint256 i = 0; i < candidateCount; i++) {\r\n            candidateNames[i] = elections[_electionId].candidates[i].name;\r\n        }\r\n\r\n        return candidateNames;\r\n    }\r\n\r\n    \r\n    //get candidate ID by name\r\n    function getCandidateIDbyName(uint256 _electionId, string memory _candidateName) public view returns (uint256) {\r\n        require(_electionId > 0 && _electionId <= electionCount, \"Election does not exist\");\r\n\r\n        uint256 candidateCount = elections[_electionId].candidates.length;\r\n        for (uint256 i = 0; i < candidateCount; i++) {\r\n            if (keccak256(bytes(elections[_electionId].candidates[i].name)) == keccak256(bytes(_candidateName))) {\r\n                return i;\r\n            }\r\n        }\r\n        return candidateCount;\r\n    }\r\n\r\n\r\n    \r\n    //get candidate votecount\r\n    function getCandidateVoteCount(uint256 _electionId, uint256 _candidateIndex) public view returns (uint256) {\r\n        require(_electionId > 0 && _electionId <= electionCount, \"Election does not exist\");\r\n        require(_candidateIndex < elections[_electionId].candidates.length, \"Candidate does not exist\");\r\n        return elections[_electionId].candidates[_candidateIndex].voteCount;\r\n    }\r\n    //end candidate\r\n\r\n\r\n    //ORG    \r\n    function addOrg(string memory orgName, string memory name, string memory email) public {\r\n        org[msg.sender] = UserOrg(orgName, name, email);\r\n    }    \r\n\r\n    \r\n    function isOrg(address orgAddress) public view returns (bool){\r\n        return bytes(org[orgAddress].orgName).length > 0;\r\n    }\r\n\r\n    \r\n    function getOrgName(address orgAddress) public view returns (string memory){\r\n        return org[orgAddress].orgName;\r\n    }\r\n\r\n    \r\n    function getOrgUserName(address orgAddress) public view returns (string memory){\r\n        return org[orgAddress].userName;\r\n    }\r\n\r\n    function getOrgEmail(address orgAddress) public view returns (string memory) {\r\n        return org[orgAddress].email;\r\n    }\r\n\r\n    \r\n    function updateOrgDetails(address orgAddress, string memory newOrgName, string memory newUserName, string memory newEmail) public {\r\n        require(isOrg(orgAddress), \"Org does not exist\");\r\n        org[orgAddress].orgName = newOrgName;\r\n        org[orgAddress].userName = newUserName;\r\n        org[orgAddress].email = newEmail;\r\n    }\r\n    \r\n    \r\n\r\n    //End ORG\r\n\r\n     function getUserAddress() public view returns (address) {\r\n        return msg.sender;\r\n    }\r\n\r\n    //Voter\r\n    function addUser(address userAddress, string memory userName, string memory email) public {\r\n        require(bytes(users[userAddress].userName).length == 0, \"User already exists\");\r\n        users[userAddress] = User(userName, email, new uint256[](0));\r\n        \r\n    }\r\n\r\n    function isUser(address userAddress) public view returns (bool){\r\n        return bytes(users[userAddress].userName).length > 0;\r\n    }\r\n\r\n   \r\n\r\n    function getUserName(address userAddress) public view returns (string memory){\r\n        User storage user = users[userAddress];\r\n        if(bytes(user.userName).length > 0)\r\n            return string(abi.encodePacked(user.userName));\r\n    }\r\n\r\n    function getEmail(address userAddress) public view returns (string memory){\r\n        User storage user = users[userAddress];\r\n        if(bytes(user.email).length > 0)\r\n            return string(abi.encodePacked(user.email));\r\n    }\r\n\r\n    function updateUser(address userAddress, string memory newUserName, string memory newEmail) public {\r\n        require(isUser(userAddress), \"User does not exist\");\r\n        User storage user = users[userAddress];\r\n        if(bytes(newUserName).length > 0)\r\n            user.userName = newUserName;\r\n        if(bytes(newEmail).length > 0)\r\n            user.email = newEmail;\r\n    }\r\n\r\n    \r\n\r\n    //end voter\r\n\r\n\r\n    function getOwnerAddress() public view returns (address) {\r\n        return deployer;\r\n    }\r\n\r\n    \r\n    // Vote for multiple candidates in an election\r\n    function Vote(uint256 _electionId, uint256[] memory _candidateIndexes) public {\r\n        require(_electionId > 0 && _electionId <= electionCount, \"Election does not exist\");\r\n        Election storage election = elections[_electionId];\r\n\r\n        require(election.active, \"Election is not active\");\r\n        require(!election.hasVoted[msg.sender], \"You have already voted\");\r\n\r\n        for (uint256 i = 0; i < _candidateIndexes.length; i++) {\r\n            election.candidates[_candidateIndexes[i]].voteCount++;\r\n        }\r\n\r\n        election.hasVoted[msg.sender] = true;\r\n        users[msg.sender].recentlyVotedIDs.push(_electionId);\r\n\r\n        emit Voted(_electionId, _candidateIndexes, msg.sender);\r\n    }\r\n\r\n    \r\n    function getRecentlyVotedElectionIDs(address userAddress) public view returns (uint256[] memory) {\r\n        return users[userAddress].recentlyVotedIDs;\r\n    }\r\n\r\n    \r\n\r\n\r\n\r\n}\r\n",
  "sourcePath": "C:\\Users\\dizon\\OneDrive\\Documents\\GitHub\\BlockChain-Based-Voting-System\\contract\\contracts\\Voting.sol",
  "compiler": {
    "name": "solc",
    "version": "0.5.16+commit.9c3226ce.Emscripten.clang"
  },
  "schemaVersion": "3.4.16",
  "updatedAt": "2025-05-22T03:14:39.809Z",
  "networkType": "ethereum",
  "devdoc": {
    "methods": {}
  },
  "userdoc": {
    "methods": {}
  }
}