{
  "contractName": "DecentralizedVoting",
  "abi": [
    {
      "inputs": [],
      "payable": false,
      "stateMutability": "nonpayable",
      "type": "constructor"
    },
    {
      "anonymous": false,
      "inputs": [
        {
          "indexed": false,
          "internalType": "uint256",
          "name": "electionId",
          "type": "uint256"
        },
        {
          "indexed": false,
          "internalType": "string",
          "name": "name",
          "type": "string"
        }
      ],
      "name": "CandidateAdded",
      "type": "event"
    },
    {
      "anonymous": false,
      "inputs": [
        {
          "indexed": false,
          "internalType": "uint256",
          "name": "electionId",
          "type": "uint256"
        },
        {
          "indexed": false,
          "internalType": "string",
          "name": "name",
          "type": "string"
        }
      ],
      "name": "ElectionCreated",
      "type": "event"
    },
    {
      "anonymous": false,
      "inputs": [
        {
          "indexed": false,
          "internalType": "uint256",
          "name": "electionId",
          "type": "uint256"
        },
        {
          "indexed": false,
          "internalType": "uint256",
          "name": "candidateIndex",
          "type": "uint256"
        },
        {
          "indexed": false,
          "internalType": "address",
          "name": "voter",
          "type": "address"
        }
      ],
      "name": "Voted",
      "type": "event"
    },
    {
      "constant": true,
      "inputs": [],
      "name": "electionCount",
      "outputs": [
        {
          "internalType": "uint256",
          "name": "",
          "type": "uint256"
        }
      ],
      "payable": false,
      "stateMutability": "view",
      "type": "function"
    },
    {
      "constant": true,
      "inputs": [
        {
          "internalType": "uint256",
          "name": "",
          "type": "uint256"
        }
      ],
      "name": "elections",
      "outputs": [
        {
          "internalType": "string",
          "name": "name",
          "type": "string"
        },
        {
          "internalType": "bool",
          "name": "active",
          "type": "bool"
        }
      ],
      "payable": false,
      "stateMutability": "view",
      "type": "function"
    },
    {
      "constant": true,
      "inputs": [
        {
          "internalType": "address",
          "name": "",
          "type": "address"
        }
      ],
      "name": "org",
      "outputs": [
        {
          "internalType": "string",
          "name": "orgName",
          "type": "string"
        },
        {
          "internalType": "string",
          "name": "userName",
          "type": "string"
        },
        {
          "internalType": "string",
          "name": "email",
          "type": "string"
        }
      ],
      "payable": false,
      "stateMutability": "view",
      "type": "function"
    },
    {
      "constant": true,
      "inputs": [
        {
          "internalType": "address",
          "name": "",
          "type": "address"
        }
      ],
      "name": "users",
      "outputs": [
        {
          "internalType": "string",
          "name": "userName",
          "type": "string"
        },
        {
          "internalType": "string",
          "name": "email",
          "type": "string"
        }
      ],
      "payable": false,
      "stateMutability": "view",
      "type": "function"
    },
    {
      "constant": false,
      "inputs": [
        {
          "internalType": "string",
          "name": "orgName",
          "type": "string"
        },
        {
          "internalType": "string",
          "name": "name",
          "type": "string"
        },
        {
          "internalType": "string",
          "name": "email",
          "type": "string"
        }
      ],
      "name": "addOrg",
      "outputs": [],
      "payable": false,
      "stateMutability": "nonpayable",
      "type": "function"
    },
    {
      "constant": true,
      "inputs": [
        {
          "internalType": "address",
          "name": "orgAddress",
          "type": "address"
        }
      ],
      "name": "isOrg",
      "outputs": [
        {
          "internalType": "bool",
          "name": "",
          "type": "bool"
        }
      ],
      "payable": false,
      "stateMutability": "view",
      "type": "function"
    },
    {
      "constant": true,
      "inputs": [
        {
          "internalType": "address",
          "name": "orgAddress",
          "type": "address"
        }
      ],
      "name": "getOrgName",
      "outputs": [
        {
          "internalType": "string",
          "name": "",
          "type": "string"
        }
      ],
      "payable": false,
      "stateMutability": "view",
      "type": "function"
    },
    {
      "constant": true,
      "inputs": [
        {
          "internalType": "address",
          "name": "orgAddress",
          "type": "address"
        }
      ],
      "name": "getOrgUserName",
      "outputs": [
        {
          "internalType": "string",
          "name": "",
          "type": "string"
        }
      ],
      "payable": false,
      "stateMutability": "view",
      "type": "function"
    },
    {
      "constant": true,
      "inputs": [
        {
          "internalType": "address",
          "name": "orgAddress",
          "type": "address"
        }
      ],
      "name": "getOrgEmail",
      "outputs": [
        {
          "internalType": "string",
          "name": "",
          "type": "string"
        }
      ],
      "payable": false,
      "stateMutability": "view",
      "type": "function"
    },
    {
      "constant": false,
      "inputs": [
        {
          "internalType": "address",
          "name": "userAddress",
          "type": "address"
        },
        {
          "internalType": "string",
          "name": "userName",
          "type": "string"
        },
        {
          "internalType": "string",
          "name": "email",
          "type": "string"
        }
      ],
      "name": "addUser",
      "outputs": [],
      "payable": false,
      "stateMutability": "nonpayable",
      "type": "function"
    },
    {
      "constant": true,
      "inputs": [
        {
          "internalType": "address",
          "name": "userAddress",
          "type": "address"
        }
      ],
      "name": "isUser",
      "outputs": [
        {
          "internalType": "bool",
          "name": "",
          "type": "bool"
        }
      ],
      "payable": false,
      "stateMutability": "view",
      "type": "function"
    },
    {
      "constant": true,
      "inputs": [],
      "name": "getUserAddress",
      "outputs": [
        {
          "internalType": "address",
          "name": "",
          "type": "address"
        }
      ],
      "payable": false,
      "stateMutability": "view",
      "type": "function"
    },
    {
      "constant": true,
      "inputs": [
        {
          "internalType": "address",
          "name": "userAddress",
          "type": "address"
        }
      ],
      "name": "getUserName",
      "outputs": [
        {
          "internalType": "string",
          "name": "",
          "type": "string"
        }
      ],
      "payable": false,
      "stateMutability": "view",
      "type": "function"
    },
    {
      "constant": true,
      "inputs": [
        {
          "internalType": "address",
          "name": "userAddress",
          "type": "address"
        }
      ],
      "name": "getEmail",
      "outputs": [
        {
          "internalType": "string",
          "name": "",
          "type": "string"
        }
      ],
      "payable": false,
      "stateMutability": "view",
      "type": "function"
    },
    {
      "constant": true,
      "inputs": [],
      "name": "getOwnerAddress",
      "outputs": [
        {
          "internalType": "address",
          "name": "",
          "type": "address"
        }
      ],
      "payable": false,
      "stateMutability": "view",
      "type": "function"
    },
    {
      "constant": false,
      "inputs": [
        {
          "internalType": "string",
          "name": "_name",
          "type": "string"
        }
      ],
      "name": "createElection",
      "outputs": [],
      "payable": false,
      "stateMutability": "nonpayable",
      "type": "function"
    },
    {
      "constant": false,
      "inputs": [
        {
          "internalType": "uint256",
          "name": "_electionId",
          "type": "uint256"
        },
        {
          "internalType": "string",
          "name": "_candidateName",
          "type": "string"
        },
        {
          "internalType": "string",
          "name": "_candidatePosition",
          "type": "string"
        }
      ],
      "name": "addCandidate",
      "outputs": [],
      "payable": false,
      "stateMutability": "nonpayable",
      "type": "function"
    },
    {
      "constant": false,
      "inputs": [
        {
          "internalType": "uint256",
          "name": "_electionId",
          "type": "uint256"
        },
        {
          "internalType": "uint256",
          "name": "_candidateIndex",
          "type": "uint256"
        }
      ],
      "name": "vote",
      "outputs": [],
      "payable": false,
      "stateMutability": "nonpayable",
      "type": "function"
    },
    {
      "constant": true,
      "inputs": [
        {
          "internalType": "uint256",
          "name": "_electionId",
          "type": "uint256"
        }
      ],
      "name": "getElectionResults",
      "outputs": [
        {
          "internalType": "string",
          "name": "",
          "type": "string"
        },
        {
          "internalType": "uint256[]",
          "name": "",
          "type": "uint256[]"
        }
      ],
      "payable": false,
      "stateMutability": "view",
      "type": "function"
    },
    {
      "constant": true,
      "inputs": [
        {
          "internalType": "uint256",
          "name": "_electionId",
          "type": "uint256"
        }
      ],
      "name": "getCandidatesCount",
      "outputs": [
        {
          "internalType": "uint256",
          "name": "",
          "type": "uint256"
        }
      ],
      "payable": false,
      "stateMutability": "view",
      "type": "function"
    },
    {
      "constant": true,
      "inputs": [
        {
          "internalType": "uint256",
          "name": "_electionId",
          "type": "uint256"
        },
        {
          "internalType": "uint256",
          "name": "_candidateIndex",
          "type": "uint256"
        }
      ],
      "name": "getCandidateName",
      "outputs": [
        {
          "internalType": "string",
          "name": "",
          "type": "string"
        }
      ],
      "payable": false,
      "stateMutability": "view",
      "type": "function"
    },
    {
      "constant": true,
      "inputs": [
        {
          "internalType": "uint256",
          "name": "_electionId",
          "type": "uint256"
        }
      ],
      "name": "getCandidateNames",
      "outputs": [
        {
          "internalType": "string[]",
          "name": "",
          "type": "string[]"
        }
      ],
      "payable": false,
      "stateMutability": "view",
      "type": "function"
    },
    {
      "constant": true,
      "inputs": [
        {
          "internalType": "uint256",
          "name": "_electionId",
          "type": "uint256"
        }
      ],
      "name": "getElectionName",
      "outputs": [
        {
          "internalType": "string",
          "name": "",
          "type": "string"
        }
      ],
      "payable": false,
      "stateMutability": "view",
      "type": "function"
    },
    {
      "constant": false,
      "inputs": [
        {
          "internalType": "uint256",
          "name": "_electionId",
          "type": "uint256"
        }
      ],
      "name": "closeElection",
      "outputs": [],
      "payable": false,
      "stateMutability": "nonpayable",
      "type": "function"
    },
    {
      "constant": true,
      "inputs": [],
      "name": "getElectionNames",
      "outputs": [
        {
          "internalType": "string[]",
          "name": "",
          "type": "string[]"
        }
      ],
      "payable": false,
      "stateMutability": "view",
      "type": "function"
    }
  ],
  "bytecode": "0x608060405234801561001057600080fd5b5033600160006101000a81548173ffffffffffffffffffffffffffffffffffffffff021916908373ffffffffffffffffffffffffffffffffffffffff160217905550612c5c806100616000396000f3fe608060405234801561001057600080fd5b50600436106101735760003560e01c8063997d2830116100de578063c89782a211610097578063e220cde511610071578063e220cde5146104e4578063e6c62efc14610502578063e8ededa61461051e578063ebc3eee81461054f57610173565b8063c89782a214610468578063d7554a6814610498578063d84f55ee146104b457610173565b8063997d28301461037f578063a87430ba1461039d578063b024419e146103ce578063b384abef146103fe578063b476cbce1461041a578063bbc0c1a21461044c57610173565b80634209fff1116101305780634209fff11461025e5780634fa7353c1461028e57806352675be3146102be5780635e6fef01146102ee5780636c6281271461031f5780637eb507d71461034f57610173565b806309e33d07146101785780630c4f65bd1461019457806315cf4a5f146101b257806319f4dea8146101ce5780632ed37409146101fe5780633ee95f001461022e575b600080fd5b610192600480360361018d91908101906121a7565b61056d565b005b61019c6106bb565b6040516101a99190612731565b60405180910390f35b6101cc60048036036101c791908101906120cf565b6106e5565b005b6101e860048036036101e39190810190612027565b61081d565b6040516101f5919061276e565b60405180910390f35b61021860048036036102139190810190612027565b61087e565b6040516102259190612789565b60405180910390f35b610248600480360361024391908101906121a7565b610961565b6040516102559190612975565b60405180910390f35b61027860048036036102739190810190612027565b6109d4565b604051610285919061276e565b60405180910390f35b6102a860048036036102a39190810190612027565b610a36565b6040516102b59190612789565b60405180910390f35b6102d860048036036102d391908101906121a7565b610ace565b6040516102e59190612789565b60405180910390f35b610308600480360361030391908101906121a7565b610bd7565b6040516103169291906127e2565b60405180910390f35b61033960048036036103349190810190612027565b610ca0565b6040516103469190612789565b60405180910390f35b610369600480360361036491908101906121a7565b610d83565b604051610376919061274c565b60405180910390f35b610387610f35565b6040516103949190612975565b60405180910390f35b6103b760048036036103b29190810190612027565b610f3b565b6040516103c5929190612812565b60405180910390f35b6103e860048036036103e3919081019061224f565b61108f565b6040516103f59190612789565b60405180910390f35b6104186004803603610413919081019061224f565b611210565b005b610434600480360361042f9190810190612027565b611422565b60405161044393929190612849565b60405180910390f35b61046660048036036104619190810190612110565b611614565b005b610482600480360361047d9190810190612027565b6116cc565b60405161048f9190612789565b60405180910390f35b6104b260048036036104ad9190810190612050565b6117af565b005b6104ce60048036036104c99190810190612027565b6118de565b6040516104db9190612789565b60405180910390f35b6104ec611976565b6040516104f9919061274c565b60405180910390f35b61051c600480360361051791908101906121d0565b611aa0565b005b610538600480360361053391908101906121a7565b611cce565b6040516105469291906127ab565b60405180910390f35b610557611e7c565b6040516105649190612731565b60405180910390f35b60008060003373ffffffffffffffffffffffffffffffffffffffff1673ffffffffffffffffffffffffffffffffffffffff16815260200190815260200160002060000180546001816001161561010002031660029004905011610605576040517f08c379a00000000000000000000000000000000000000000000000000000000081526004016105fc90612955565b60405180910390fd5b60008111801561061757506004548111155b801561064a5750600115156003600083815260200190815260200160002060010160009054906101000a900460ff161515145b610689576040517f08c379a0000000000000000000000000000000000000000000000000000000008152600401610680906128d5565b60405180910390fd5b60006003600083815260200190815260200160002060010160006101000a81548160ff02191690831515021790555050565b6000600160009054906101000a900473ffffffffffffffffffffffffffffffffffffffff16905090565b60008060003373ffffffffffffffffffffffffffffffffffffffff1673ffffffffffffffffffffffffffffffffffffffff1681526020019081526020016000206000018054600181600116156101000203166002900490501161077d576040517f08c379a000000000000000000000000000000000000000000000000000000000815260040161077490612955565b60405180910390fd5b60046000815480929190600101919050555060006003600060045481526020019081526020016000209050818160000190805190602001906107c0929190611e84565b5060018160010160006101000a81548160ff0219169083151502179055507f52be7c4e77b4de76b7607d621492061fe13b58597e72dfb5e51ab8f6187ed14160045483604051610811929190612990565b60405180910390a15050565b6000806000808473ffffffffffffffffffffffffffffffffffffffff1673ffffffffffffffffffffffffffffffffffffffff168152602001908152602001600020600001805460018160011615610100020316600290049050119050919050565b60606000808373ffffffffffffffffffffffffffffffffffffffff1673ffffffffffffffffffffffffffffffffffffffff1681526020019081526020016000206001018054600181600116156101000203166002900480601f0160208091040260200160405190810160405280929190818152602001828054600181600116156101000203166002900480156109555780601f1061092a57610100808354040283529160200191610955565b820191906000526020600020905b81548152906001019060200180831161093857829003601f168201915b50505050509050919050565b6000808211801561097457506004548211155b6109b3576040517f08c379a00000000000000000000000000000000000000000000000000000000081526004016109aa90612895565b60405180910390fd5b60036000838152602001908152602001600020600201805490509050919050565b600080600260008473ffffffffffffffffffffffffffffffffffffffff1673ffffffffffffffffffffffffffffffffffffffff168152602001908152602001600020600001805460018160011615610100020316600290049050119050919050565b60606000600260008473ffffffffffffffffffffffffffffffffffffffff1673ffffffffffffffffffffffffffffffffffffffff16815260200190815260200160002090506000816001018054600181600116156101000203166002900490501115610ac75780600101604051602001610ab0919061271a565b604051602081830303815290604052915050610ac9565b505b919050565b6060600082118015610ae257506004548211155b610b21576040517f08c379a0000000000000000000000000000000000000000000000000000000008152600401610b1890612895565b60405180910390fd5b600360008381526020019081526020016000206000018054600181600116156101000203166002900480601f016020809104026020016040519081016040528092919081815260200182805460018160011615610100020316600290048015610bcb5780601f10610ba057610100808354040283529160200191610bcb565b820191906000526020600020905b815481529060010190602001808311610bae57829003601f168201915b50505050509050919050565b6003602052806000526040600020600091509050806000018054600181600116156101000203166002900480601f016020809104026020016040519081016040528092919081815260200182805460018160011615610100020316600290048015610c835780601f10610c5857610100808354040283529160200191610c83565b820191906000526020600020905b815481529060010190602001808311610c6657829003601f168201915b5050505050908060010160009054906101000a900460ff16905082565b60606000808373ffffffffffffffffffffffffffffffffffffffff1673ffffffffffffffffffffffffffffffffffffffff1681526020019081526020016000206002018054600181600116156101000203166002900480601f016020809104026020016040519081016040528092919081815260200182805460018160011615610100020316600290048015610d775780601f10610d4c57610100808354040283529160200191610d77565b820191906000526020600020905b815481529060010190602001808311610d5a57829003601f168201915b50505050509050919050565b6060600082118015610d9757506004548211155b610dd6576040517f08c379a0000000000000000000000000000000000000000000000000000000008152600401610dcd90612895565b60405180910390fd5b600060036000848152602001908152602001600020600201805490509050606081604051908082528060200260200182016040528015610e2a57816020015b6060815260200190600190039081610e155790505b50905060008090505b82811015610f2a57600360008681526020019081526020016000206002018181548110610e5c57fe5b90600052602060002090600302016000018054600181600116156101000203166002900480601f016020809104026020016040519081016040528092919081815260200182805460018160011615610100020316600290048015610f015780601f10610ed657610100808354040283529160200191610f01565b820191906000526020600020905b815481529060010190602001808311610ee457829003601f168201915b5050505050828281518110610f1257fe5b60200260200101819052508080600101915050610e33565b508092505050919050565b60045481565b6002602052806000526040600020600091509050806000018054600181600116156101000203166002900480601f016020809104026020016040519081016040528092919081815260200182805460018160011615610100020316600290048015610fe75780601f10610fbc57610100808354040283529160200191610fe7565b820191906000526020600020905b815481529060010190602001808311610fca57829003601f168201915b505050505090806001018054600181600116156101000203166002900480601f0160208091040260200160405190810160405280929190818152602001828054600181600116156101000203166002900480156110855780601f1061105a57610100808354040283529160200191611085565b820191906000526020600020905b81548152906001019060200180831161106857829003601f168201915b5050505050905082565b60606000831180156110a357506004548311155b6110e2576040517f08c379a00000000000000000000000000000000000000000000000000000000081526004016110d990612895565b60405180910390fd5b6003600084815260200190815260200160002060020180549050821061113d576040517f08c379a0000000000000000000000000000000000000000000000000000000008152600401611134906128f5565b60405180910390fd5b60036000848152602001908152602001600020600201828154811061115e57fe5b90600052602060002090600302016000018054600181600116156101000203166002900480601f0160208091040260200160405190810160405280929190818152602001828054600181600116156101000203166002900480156112035780601f106111d857610100808354040283529160200191611203565b820191906000526020600020905b8154815290600101906020018083116111e657829003601f168201915b5050505050905092915050565b60008211801561122257506004548211155b611261576040517f08c379a000000000000000000000000000000000000000000000000000000000815260040161125890612895565b60405180910390fd5b60006003600084815260200190815260200160002090508060010160009054906101000a900460ff166112c9576040517f08c379a00000000000000000000000000000000000000000000000000000000081526004016112c090612915565b60405180910390fd5b8060030160003373ffffffffffffffffffffffffffffffffffffffff1673ffffffffffffffffffffffffffffffffffffffff16815260200190815260200160002060009054906101000a900460ff1615611358576040517f08c379a000000000000000000000000000000000000000000000000000000000815260040161134f90612935565b60405180910390fd5b80600201828154811061136757fe5b90600052602060002090600302016002016000815480929190600101919050555060018160030160003373ffffffffffffffffffffffffffffffffffffffff1673ffffffffffffffffffffffffffffffffffffffff16815260200190815260200160002060006101000a81548160ff0219169083151502179055507fd91ecafccf238642dccd41161308b3eebe62a12bc5819daf5164780c221ec95b838333604051611415939291906129c0565b60405180910390a1505050565b6000602052806000526040600020600091509050806000018054600181600116156101000203166002900480601f0160208091040260200160405190810160405280929190818152602001828054600181600116156101000203166002900480156114ce5780601f106114a3576101008083540402835291602001916114ce565b820191906000526020600020905b8154815290600101906020018083116114b157829003601f168201915b505050505090806001018054600181600116156101000203166002900480601f01602080910402602001604051908101604052809291908181526020018280546001816001161561010002031660029004801561156c5780601f106115415761010080835404028352916020019161156c565b820191906000526020600020905b81548152906001019060200180831161154f57829003601f168201915b505050505090806002018054600181600116156101000203166002900480601f01602080910402602001604051908101604052809291908181526020018280546001816001161561010002031660029004801561160a5780601f106115df5761010080835404028352916020019161160a565b820191906000526020600020905b8154815290600101906020018083116115ed57829003601f168201915b5050505050905083565b6040518060600160405280848152602001838152602001828152506000803373ffffffffffffffffffffffffffffffffffffffff1673ffffffffffffffffffffffffffffffffffffffff1681526020019081526020016000206000820151816000019080519060200190611689929190611f04565b5060208201518160010190805190602001906116a6929190611f04565b5060408201518160020190805190602001906116c3929190611f04565b50905050505050565b60606000808373ffffffffffffffffffffffffffffffffffffffff1673ffffffffffffffffffffffffffffffffffffffff1681526020019081526020016000206000018054600181600116156101000203166002900480601f0160208091040260200160405190810160405280929190818152602001828054600181600116156101000203166002900480156117a35780601f10611778576101008083540402835291602001916117a3565b820191906000526020600020905b81548152906001019060200180831161178657829003601f168201915b50505050509050919050565b6000600260008573ffffffffffffffffffffffffffffffffffffffff1673ffffffffffffffffffffffffffffffffffffffff16815260200190815260200160002060000180546001816001161561010002031660029004905014611848576040517f08c379a000000000000000000000000000000000000000000000000000000000815260040161183f906128b5565b60405180910390fd5b604051806040016040528083815260200182815250600260008573ffffffffffffffffffffffffffffffffffffffff1673ffffffffffffffffffffffffffffffffffffffff16815260200190815260200160002060008201518160000190805190602001906118b8929190611f04565b5060208201518160010190805190602001906118d5929190611f04565b50905050505050565b60606000600260008473ffffffffffffffffffffffffffffffffffffffff1673ffffffffffffffffffffffffffffffffffffffff1681526020019081526020016000209050600081600001805460018160011615610100020316600290049050111561196f5780600001604051602001611958919061271a565b604051602081830303815290604052915050611971565b505b919050565b6060806004546040519080825280602002602001820160405280156119af57816020015b606081526020019060019003908161199a5790505b50905060008090505b600454811015611a9857600360006001830181526020019081526020016000206000018054600181600116156101000203166002900480601f016020809104026020016040519081016040528092919081815260200182805460018160011615610100020316600290048015611a6f5780601f10611a4457610100808354040283529160200191611a6f565b820191906000526020600020905b815481529060010190602001808311611a5257829003601f168201915b5050505050828281518110611a8057fe5b602002602001018190525080806001019150506119b8565b508091505090565b60008060003373ffffffffffffffffffffffffffffffffffffffff1673ffffffffffffffffffffffffffffffffffffffff16815260200190815260200160002060000180546001816001161561010002031660029004905011611b38576040517f08c379a0000000000000000000000000000000000000000000000000000000008152600401611b2f90612955565b60405180910390fd5b600083118015611b4a57506004548311155b611b89576040517f08c379a0000000000000000000000000000000000000000000000000000000008152600401611b8090612895565b60405180910390fd5b6003600084815260200190815260200160002060010160009054906101000a900460ff16611bec576040517f08c379a0000000000000000000000000000000000000000000000000000000008152600401611be390612915565b60405180910390fd5b6003600084815260200190815260200160002060020160405180606001604052808481526020018381526020016000815250908060018154018082558091505090600182039060005260206000209060030201600090919290919091506000820151816000019080519060200190611c65929190611f04565b506020820151816001019080519060200190611c82929190611f04565b50604082015181600201555050507fe83b2a43e7e82d975c8a0a6d2f045153c869e111136a34d1889ab7b598e396a38383604051611cc1929190612990565b60405180910390a1505050565b606080600083118015611ce357506004548311155b611d22576040517f08c379a0000000000000000000000000000000000000000000000000000000008152600401611d1990612895565b60405180910390fd5b600060036000858152602001908152602001600020905060608160020180549050604051908082528060200260200182016040528015611d715781602001602082028038833980820191505090505b50905060008090505b8260020180549050811015611dcf57826002018181548110611d9857fe5b906000526020600020906003020160020154828281518110611db657fe5b6020026020010181815250508080600101915050611d7a565b508160000181818054600181600116156101000203166002900480601f016020809104026020016040519081016040528092919081815260200182805460018160011615610100020316600290048015611e6a5780601f10611e3f57610100808354040283529160200191611e6a565b820191906000526020600020905b815481529060010190602001808311611e4d57829003601f168201915b50505050509150935093505050915091565b600033905090565b828054600181600116156101000203166002900490600052602060002090601f016020900481019282601f10611ec557805160ff1916838001178555611ef3565b82800160010185558215611ef3579182015b82811115611ef2578251825591602001919060010190611ed7565b5b509050611f009190611f84565b5090565b828054600181600116156101000203166002900490600052602060002090601f016020900481019282601f10611f4557805160ff1916838001178555611f73565b82800160010185558215611f73579182015b82811115611f72578251825591602001919060010190611f57565b5b509050611f809190611f84565b5090565b611fa691905b80821115611fa2576000816000905550600101611f8a565b5090565b90565b600081359050611fb881612beb565b92915050565b600082601f830112611fcf57600080fd5b8135611fe2611fdd82612a24565b6129f7565b91508082526020830160208301858383011115611ffe57600080fd5b612009838284612b98565b50505092915050565b60008135905061202181612c02565b92915050565b60006020828403121561203957600080fd5b600061204784828501611fa9565b91505092915050565b60008060006060848603121561206557600080fd5b600061207386828701611fa9565b935050602084013567ffffffffffffffff81111561209057600080fd5b61209c86828701611fbe565b925050604084013567ffffffffffffffff8111156120b957600080fd5b6120c586828701611fbe565b9150509250925092565b6000602082840312156120e157600080fd5b600082013567ffffffffffffffff8111156120fb57600080fd5b61210784828501611fbe565b91505092915050565b60008060006060848603121561212557600080fd5b600084013567ffffffffffffffff81111561213f57600080fd5b61214b86828701611fbe565b935050602084013567ffffffffffffffff81111561216857600080fd5b61217486828701611fbe565b925050604084013567ffffffffffffffff81111561219157600080fd5b61219d86828701611fbe565b9150509250925092565b6000602082840312156121b957600080fd5b60006121c784828501612012565b91505092915050565b6000806000606084860312156121e557600080fd5b60006121f386828701612012565b935050602084013567ffffffffffffffff81111561221057600080fd5b61221c86828701611fbe565b925050604084013567ffffffffffffffff81111561223957600080fd5b61224586828701611fbe565b9150509250925092565b6000806040838503121561226257600080fd5b600061227085828601612012565b925050602061228185828601612012565b9150509250929050565b600061229783836123f0565b905092915050565b60006122ab83836126fc565b60208301905092915050565b6122c081612b62565b82525050565b6122cf81612b1a565b82525050565b60006122e082612a85565b6122ea8185612acb565b9350836020820285016122fc85612a50565b8060005b858110156123385784840389528151612319858261228b565b945061232483612ab1565b925060208a01995050600181019050612300565b50829750879550505050505092915050565b600061235582612a90565b61235f8185612adc565b935061236a83612a60565b8060005b8381101561239b578151612382888261229f565b975061238d83612abe565b92505060018101905061236e565b5085935050505092915050565b6123b181612b2c565b82525050565b60006123c282612aa6565b6123cc8185612afe565b93506123dc818560208601612ba7565b6123e581612bda565b840191505092915050565b60006123fb82612a9b565b6124058185612aed565b9350612415818560208601612ba7565b61241e81612bda565b840191505092915050565b600061243482612a9b565b61243e8185612afe565b935061244e818560208601612ba7565b61245781612bda565b840191505092915050565b60008154600181166000811461247f57600181146124a4576124e8565b607f60028304166124908187612b0f565b955060ff19831686528086019350506124e8565b600282046124b28187612b0f565b95506124bd85612a70565b60005b828110156124df578154818901526001820191506020810190506124c0565b82880195505050505b505092915050565b60006124fd601783612afe565b91507f456c656374696f6e20646f6573206e6f742065786973740000000000000000006000830152602082019050919050565b600061253d601383612afe565b91507f5573657220616c726561647920657869737473000000000000000000000000006000830152602082019050919050565b600061257d602883612afe565b91507f456c656374696f6e20646f6573206e6f74206578697374206f72206973206e6f60008301527f74206163746976650000000000000000000000000000000000000000000000006020830152604082019050919050565b60006125e3601883612afe565b91507f43616e64696461746520646f6573206e6f7420657869737400000000000000006000830152602082019050919050565b6000612623601683612afe565b91507f456c656374696f6e206973206e6f7420616374697665000000000000000000006000830152602082019050919050565b6000612663601683612afe565b91507f596f75206861766520616c726561647920766f746564000000000000000000006000830152602082019050919050565b60006126a3602a83612afe565b91507f4f6e6c7920746865206f7267616e697a65722063616e20706572666f726d207460008301527f68697320616374696f6e000000000000000000000000000000000000000000006020830152604082019050919050565b61270581612b58565b82525050565b61271481612b58565b82525050565b60006127268284612462565b915081905092915050565b600060208201905061274660008301846122c6565b92915050565b6000602082019050818103600083015261276681846122d5565b905092915050565b600060208201905061278360008301846123a8565b92915050565b600060208201905081810360008301526127a381846123b7565b905092915050565b600060408201905081810360008301526127c581856123b7565b905081810360208301526127d9818461234a565b90509392505050565b600060408201905081810360008301526127fc8185612429565b905061280b60208301846123a8565b9392505050565b6000604082019050818103600083015261282c8185612429565b905081810360208301526128408184612429565b90509392505050565b600060608201905081810360008301526128638186612429565b905081810360208301526128778185612429565b9050818103604083015261288b8184612429565b9050949350505050565b600060208201905081810360008301526128ae816124f0565b9050919050565b600060208201905081810360008301526128ce81612530565b9050919050565b600060208201905081810360008301526128ee81612570565b9050919050565b6000602082019050818103600083015261290e816125d6565b9050919050565b6000602082019050818103600083015261292e81612616565b9050919050565b6000602082019050818103600083015261294e81612656565b9050919050565b6000602082019050818103600083015261296e81612696565b9050919050565b600060208201905061298a600083018461270b565b92915050565b60006040820190506129a5600083018561270b565b81810360208301526129b781846123b7565b90509392505050565b60006060820190506129d5600083018661270b565b6129e2602083018561270b565b6129ef60408301846122b7565b949350505050565b6000604051905081810181811067ffffffffffffffff82111715612a1a57600080fd5b8060405250919050565b600067ffffffffffffffff821115612a3b57600080fd5b601f19601f8301169050602081019050919050565b6000819050602082019050919050565b6000819050602082019050919050565b60008190508160005260206000209050919050565b600081519050919050565b600081519050919050565b600081519050919050565b600081519050919050565b6000602082019050919050565b6000602082019050919050565b600082825260208201905092915050565b600082825260208201905092915050565b600082825260208201905092915050565b600082825260208201905092915050565b600081905092915050565b6000612b2582612b38565b9050919050565b60008115159050919050565b600073ffffffffffffffffffffffffffffffffffffffff82169050919050565b6000819050919050565b6000612b6d82612b74565b9050919050565b6000612b7f82612b86565b9050919050565b6000612b9182612b38565b9050919050565b82818337600083830152505050565b60005b83811015612bc5578082015181840152602081019050612baa565b83811115612bd4576000848401525b50505050565b6000601f19601f8301169050919050565b612bf481612b1a565b8114612bff57600080fd5b50565b612c0b81612b58565b8114612c1657600080fd5b5056fea365627a7a7231582020b409151f3e6631dee6c9758b1e8d65b1f5522486e5de1cf05d2605024208006c6578706572696d656e74616cf564736f6c63430005100040",
  "source": "// SPDX-License-Identifier: MIT\r\npragma solidity >=0.4.21 <=0.8.20;\r\npragma experimental ABIEncoderV2;\r\n\r\ncontract DecentralizedVoting {\r\n    //address[] public org;\r\n\r\n    mapping(address => UserOrg) public org;\r\n\r\n    struct UserOrg {\r\n        string orgName;\r\n        string userName;\r\n        string email;\r\n    }\r\n\r\n    address deployer;\r\n\r\n    struct User {\r\n        string userName;\r\n        string email;\r\n    }\r\n\r\n    mapping(address => User) public users;\r\n\r\n    struct Candidate {\r\n        string name;\r\n        string position;\r\n        uint256 voteCount;\r\n    }\r\n\r\n    struct Election {\r\n        string name;\r\n        bool active;\r\n        Candidate[] candidates;\r\n        mapping(address => bool) hasVoted;\r\n    }\r\n\r\n    mapping(uint256 => Election) public elections;\r\n    uint256 public electionCount;\r\n\r\n    event ElectionCreated(uint256 electionId, string name);\r\n    event CandidateAdded(uint256 electionId, string name);\r\n    event Voted(uint256 electionId, uint256 candidateIndex, address voter);\r\n\r\n    modifier onlyOrg() {\r\n        \r\n        require(bytes(org[msg.sender].orgName).length > 0, \"Only the organizer can perform this action\");\r\n        _;\r\n    }\r\n\r\n    constructor() public {\r\n        deployer = msg.sender;\r\n    }\r\n\r\n\r\n    //ORG    \r\n    function addOrg(string memory orgName, string memory name, string memory email) public {\r\n        org[msg.sender] = UserOrg(orgName, name, email);\r\n    }    \r\n\r\n    \r\n    function isOrg(address orgAddress) public view returns (bool){\r\n        return bytes(org[orgAddress].orgName).length > 0;\r\n    }\r\n\r\n    \r\n    function getOrgName(address orgAddress) public view returns (string memory){\r\n        return org[orgAddress].orgName;\r\n    }\r\n\r\n    \r\n    function getOrgUserName(address orgAddress) public view returns (string memory){\r\n        return org[orgAddress].userName;\r\n    }\r\n\r\n    function getOrgEmail(address orgAddress) public view returns (string memory) {\r\n        return org[orgAddress].email;\r\n    }\r\n    //End ORG\r\n\r\n\r\n    //Voter\r\n    function addUser(address userAddress, string memory userName, string memory email) public {\r\n        require(bytes(users[userAddress].userName).length == 0, \"User already exists\");\r\n        users[userAddress] = User(userName, email);\r\n        \r\n    }\r\n\r\n    function isUser(address userAddress) public view returns (bool){\r\n        return bytes(users[userAddress].userName).length > 0;\r\n    }\r\n\r\n    function getUserAddress() public view returns (address) {\r\n        return msg.sender;\r\n    }\r\n\r\n    function getUserName(address userAddress) public view returns (string memory){\r\n        User storage user = users[userAddress];\r\n        if(bytes(user.userName).length > 0)\r\n            return string(abi.encodePacked(user.userName));\r\n    }\r\n\r\n    function getEmail(address userAddress) public view returns (string memory){\r\n        User storage user = users[userAddress];\r\n        if(bytes(user.email).length > 0)\r\n            return string(abi.encodePacked(user.email));\r\n    }\r\n    //end voter\r\n\r\n\r\n    function getOwnerAddress() public view returns (address) {\r\n        return deployer;\r\n    }\r\n\r\n    // Create a new election (only owner)\r\n    function createElection(string memory _name) public onlyOrg {\r\n        electionCount++;\r\n        Election storage newElection = elections[electionCount];\r\n        newElection.name = _name;\r\n        newElection.active = true;\r\n\r\n        emit ElectionCreated(electionCount, _name);\r\n    }\r\n\r\n    // Add a candidate to an election (only owner)\r\n    function addCandidate(uint256 _electionId, string memory _candidateName, string memory _candidatePosition) public onlyOrg {\r\n        require(_electionId > 0 && _electionId <= electionCount, \"Election does not exist\");\r\n        require(elections[_electionId].active, \"Election is not active\");\r\n\r\n        elections[_electionId].candidates.push(Candidate({ name: _candidateName, voteCount: 0 , position: _candidatePosition}));\r\n        emit CandidateAdded(_electionId, _candidateName);\r\n    }\r\n\r\n    // Vote for a candidate in an election\r\n    function vote(uint256 _electionId, uint256 _candidateIndex) public {\r\n        require(_electionId > 0 && _electionId <= electionCount, \"Election does not exist\");\r\n        Election storage election = elections[_electionId];\r\n\r\n        require(election.active, \"Election is not active\");\r\n        require(!election.hasVoted[msg.sender], \"You have already voted\");\r\n\r\n        election.candidates[_candidateIndex].voteCount++;\r\n        election.hasVoted[msg.sender] = true;\r\n\r\n        emit Voted(_electionId, _candidateIndex, msg.sender);\r\n    }\r\n\r\n    // Get election results\r\n    function getElectionResults(uint256 _electionId) public view returns (string memory, uint256[] memory) {\r\n        require(_electionId > 0 && _electionId <= electionCount, \"Election does not exist\");\r\n        Election storage election = elections[_electionId];\r\n\r\n        uint256[] memory votes = new uint256[](election.candidates.length);\r\n        for (uint256 i = 0; i < election.candidates.length; i++) {\r\n            votes[i] = election.candidates[i].voteCount;\r\n        }\r\n\r\n        return (election.name, votes);\r\n    }\r\n\r\n    // Get the number of candidates in an election\r\n    function getCandidatesCount(uint256 _electionId) public view returns (uint256) {\r\n        require(_electionId > 0 && _electionId <= electionCount, \"Election does not exist\");\r\n        return elections[_electionId].candidates.length;\r\n    }\r\n\r\n\r\n    \r\n    // Get candidate name\r\n    function getCandidateName(uint256 _electionId, uint256 _candidateIndex) public view returns (string memory) {\r\n        require(_electionId > 0 && _electionId <= electionCount, \"Election does not exist\");\r\n        require(_candidateIndex < elections[_electionId].candidates.length, \"Candidate does not exist\");\r\n        return elections[_electionId].candidates[_candidateIndex].name;\r\n    }\r\n\r\n    function getCandidateNames(uint256 _electionId) public view returns (string[] memory) {\r\n        require(_electionId > 0 && _electionId <= electionCount, \"Election does not exist\");\r\n\r\n        uint256 candidateCount = elections[_electionId].candidates.length;\r\n        string[] memory candidateNames = new string[](candidateCount);\r\n\r\n        for (uint256 i = 0; i < candidateCount; i++) {\r\n            candidateNames[i] = elections[_electionId].candidates[i].name;\r\n        }\r\n\r\n        return candidateNames;\r\n    }\r\n    \r\n    // Get election name\r\n    function getElectionName(uint256 _electionId) public view returns (string memory) {\r\n        require(_electionId > 0 && _electionId <= electionCount, \"Election does not exist\");\r\n        return elections[_electionId].name;\r\n    }\r\n\r\n    // Close an election (only owner)\r\n    function closeElection(uint256 _electionId) public onlyOrg {\r\n        require(_electionId > 0 && _electionId <= electionCount && elections[_electionId].active == true, \"Election does not exist or is not active\");\r\n        elections[_electionId].active = false;\r\n    }\r\n\r\n    \r\n    // Get list of all election names\r\n    function getElectionNames() public view returns (string[] memory) {\r\n        string[] memory electionNames = new string[](electionCount);\r\n\r\n        for (uint256 i = 0; i < electionCount; i++) {\r\n            electionNames[i] = elections[i + 1].name;\r\n        }\r\n\r\n        return electionNames;\r\n    }\r\n\r\n\r\n\r\n}\r\n",
  "sourcePath": "C:\\Users\\dizon\\OneDrive\\Desktop\\Gordon College\\AppDev\\BlockVote\\contract\\contracts\\Voting.sol",
  "compiler": {
    "name": "solc",
    "version": "0.5.16+commit.9c3226ce.Emscripten.clang"
  },
  "schemaVersion": "3.4.16",
  "updatedAt": "2025-04-09T12:04:25.637Z",
  "networkType": "ethereum",
  "devdoc": {
    "methods": {}
  },
  "userdoc": {
    "methods": {}
  }
}